:100000000C945A000C9477000C9477000C947700B1
:100010000C942C040C9477000C9477000C947304CB
:100020000C9477000C9477000C9477000C94770074
:100030000C9477000C9477000C9477000C94770064
:100040000C9477000C9477000C9477000C94770054
:100050000C9477000C9477000C9477000C94770044
:100060000C9477000C9477000C9477000C94770034
:100070000C9477000C9477000C9477000C94770024
:100080000C9477000C9477000C9477000C94770014
:100090000C9477000C9477000C9477000C94770004
:1000A0004F05570562056F057E05860591059E057E
:1000B00035053C0511241FBECFEFCDBFDFE3DEBF0A
:1000C00028E2A0E0B8E201C01D92AB35B207E1F72B
:1000D00010E0C9E5D0E004C02197FE010E94CC07E2
:1000E000C835D107C9F70E94B9040C94E1070C94F4
:1000F0000000E0E2F4E09481907F282F22952F7099
:10010000922B948394819F7D9483948190619483B6
:10011000A7EEB3E01197F1F700C0000094819F7E35
:100120009483A7EEB3E01197F1F700C0000094812B
:10013000907F8F70892B848384818061848387EE94
:1001400093E00197F1F700C0000084818F7E8483E3
:10015000A7EEB3E01197F1F700C000008FE097E23F
:100160000197F1F700C00000089582E00E94790035
:1001700088E20E94790081E00E9479008CE00E9470
:10018000790080E0803240F4E82FF0E0E75FF74D3F
:1001900090E290838F5FF6CF80E0843038F4E82FD0
:1001A000F0E0EB5FF74D10828F5FF7CF10920428DD
:1001B000109203280895CF9380910128982F92954B
:1001C000969597709370C82FCF718C2F9111AAC0FC
:1001D0005C2F57706FEF70E0052E02C0660F771F1F
:1001E0000A94E2F79C2F9871292F30E035952795D6
:1001F0003595279535952795F901EB5FF74D4081AA
:100200006423A1F091E001C0990F5A95EAF701C06B
:1002100090E0992309F444C0292F2423C9F78F5F64
:10022000990FB9F723E620930328F3CF892F522F94
:1002300091E001C095E09530F0F4252F30E0F90110
:10024000EB5FF74D40814111F5CF9F5F2F5F3F4F2F
:100250002430310514F45F5F01C050E0282F30E0F6
:10026000285F3F4F2032310514F0885101C0885F6C
:10027000953008F31EC1E52FF0E0EB5FF74D3081BC
:1002800091E001C090E0992359F0292F2323D1F761
:10029000990F8F5F9111F7CF23E620930328F3CFB7
:1002A000982F9F70C1F09091022896959F718913A5
:1002B00012C0E1E0F8E290819F779083E82FF0E0B0
:1002C000E75FF74D908190930028E0E2F4E024810D
:1002D0002062248318C0E1E0F8E290819068908366
:1002E000282F207130E0220F331F220F331F922F4F
:1002F0009068282F2F70922B90930028E0E2F4E072
:1003000024812F7D2483E2E0F8E220812160208394
:10031000E0E2F4E02481207F92959F70922B9483F9
:1003200091E0BAC0913039F4E0E2F4E09481906158
:10033000948392E0B1C0923081F4E0E2F4E09481E1
:100340009F7E94839091012899230CF4A2C09091F0
:10035000022890FFA0C093E09FC0933009F095C0A1
:10036000209101282078E1F03091022830FF18C058
:10037000E2E0F8E2232F2E7F208330910028A0E2D4
:10038000B4E014964C911497407F3F70342B149630
:100390003C939C2F990F217C292B208391E07CC0DA
:1003A000222311F19091022890FD1EC0E0E2F4E0BA
:1003B000948190629483A1E0B8E29C919F779C9392
:1003C000A2E0B8E29C9191609C93AC2FB0E0A75F53
:1003D000B74D9C91909300282481207F92959F7027
:1003E000922B948391E058C021114AC09091022829
:1003F00090FF46C0E2E0F8E29E7F908330910028B3
:10040000E0E2F4E09481292F207F932F9F70922BBC
:100410009483EC2FF0E0E75FF74D9081391318C01B
:10042000EC2FE871F0E0F595E795F595E795F595F2
:10043000E7959C2F977021E030E002C0220F331F18
:100440009A95E2F7EB5FF74D209590819223908388
:100450009091022896959F71292F30E02F5F3F4F92
:100460002032310514F49F5F01C090E0E2E0F8E231
:100470009F71990F2081217C922B908391E00CC079
:1004800093E69093032891E007C023E62093032886
:1004900003C093E001C090E0E1E0F8E2292F22954B
:1004A000220F207E90819F79922B8F71907E892BD5
:1004B0008083CF910895813220F08AE080930328D1
:1004C0000895282F30E0F901E75FF74D90819617E6
:1004D000E1F0F901E75FF74D6083E82FE871F0E0A4
:1004E000F595E795F595E795F595E795877021E002
:1004F00030E0A90102C0440F551F8A95E2F7CA01F6
:10050000EB5FF74D9081892B808308950F931F93A4
:10051000CF93DF9361157105B1F08B01D82FC0E047
:100520002C2F30E02D0F311D2132310564F4F801FC
:10053000EC0FF11D6081662331F08C2F8D0F0E942E
:100540005B02CF5FEDCFDF91CF911F910F910895A7
:10055000FF920F931F93CF93DF93CDB7DEB76097D2
:10056000CDBFDEBFF82E8B016F3F710511F008F093
:100570004EC084E68F838AE0888781E0898720E007
:1005800030E03330D8F5E7E0F0E0EC0FFD1FE30F8B
:10059000F11D40810417D8F0802F642F0E948A0734
:1005A000622F70E0643071051CF0198200E08BC08E
:1005B000E1E0F0E0EC0FFD1FE20FF11D90E3980F7A
:1005C0009083489F001911242F5F80E015C0882375
:1005D00011F0323089F4422F50E0443051051CF0C4
:1005E000198200E070C0E1E0F0E0EC0FFD1FE20FC7
:1005F000F11D90E390832F5F3F5FC3CFE1E0F0E018
:10060000EC0FFD1FE20FF11D1082022F5CC08AE08B
:10061000ECEDFFE4DE01179601900D928A95E1F76B
:1006200081E020E030E0353008F045C0E32FF0E015
:10063000EE0FFF1F41E050E04C0F5D1FE40FF51F70
:100640000680F781E02D0E171F07F0F0C801BF01EB
:100650000E949607822F90E004971CF0198200E018
:1006600032C0A1E0B0E0AC0FBD1FA20FB11D80E30E
:10067000860F8C936E9FC0016F9F900D1124081BF5
:10068000190B2F5F80E015C0882311F0343089F4F6
:10069000422F50E0443051051CF0198200E013C095
:1006A000E1E0F0E0EC0FFD1FE20FF11D90E390831D
:1006B0002F5F3F5FB8CFE1E0F0E0EC0FFD1FE20FEE
:1006C000F11D1082022F10E0153038F580910428BA
:1006D00080FF0AC01017C0F4E1E0F0E0EC0FFD1F4E
:1006E000E10FF11D608113C0802F90E0810F911DFB
:1006F000853091055CF00597E1E0F0E0EC0FFD1F1F
:10070000E80FF91F608103C060E201C060E2812F41
:100710008F0D0E945B021F5FD7CF6096CDBFDEBFFB
:10072000DF91CF911F910F91FF90089588ED84BFC5
:10073000E0E6F0E090819C7F908384BF90819F777A
:10074000908384BF91819E7F918384BF9181917EAC
:10075000918384BF92819E7F928390899260908BD7
:1007600084BF82898068828B0895E0E0F4E080E8AD
:10077000808384831286108A118A128A138A148ACB
:10078000158A88E0868B178AE0E2F4E08FE38083A5
:1007900014821286108A118A128A138A148A158A80
:1007A000168A178AE0E4F4E080E3808314821286DC
:1007B000108A118A128A138A148A158A168A178A4D
:1007C000E0E6F4E0108214821286108A118A128AFE
:1007D000138A148A158A168A178AE0E8F4E08FE0F3
:1007E000808314821286108A118A128A138A148ACC
:1007F000158A168A178AE0EAF4E08083148212864A
:10080000108A118A128A138A148A158A168A178AFC
:100810000895E0E4F1E0908142815581378180893B
:1008200022893C7F97789168816087788062216017
:100830001682128613861486158655833783808B1D
:1008400090834283228B08950E9496030E94B503F1
:100850000E940904789408951F920F920FB60F9288
:1008600011242F938F939F9380915A2880FD06C067
:1008700080915A28816080935A2807C08091592816
:10088000882319F081E0809359288091292890913C
:100890002A28009789F420915A2821FD06C020912A
:1008A0005A28226020935A2807C0209159282223D1
:1008B00019F022E020935928873E23E0920711F097
:1008C000019602C080E090E08093292890932A2826
:1008D00081E0809353019F918F912F910F900FBED4
:1008E0000F901F9018951F920F920FB60F92112420
:1008F0002F933F934F935F936F937F938F939F9328
:10090000AF93BF93EF93FF938BE298E20E9414079B
:1009100081E080930B0AFF91EF91BF91AF919F917E
:100920008F917F916F915F914F913F912F910F9098
:100930000FBE0F901F9018950F931F93CF93DF93C7
:10094000EC018B01019739F46F3F7F4F21F48BE26B
:1009500098E20E948106CD2B39F40F3F1F4F21F4FE
:100960008BE298E20E944305DF91CF911F910F9196
:100970000895CF93DF93CDB7DEB7AE97CDBFDEBF7F
:100980000E942404E0E0F4E08481806884832FE7FF
:1009900084E89EE1215080409040E1F700C00000D3
:1009A00084818F7784832FE784E89EE12150804003
:1009B0009040E1F700C000000E94B50066E170E5DC
:1009C00080E00E948602CE0101960E9481068EE29E
:1009D000FE013196ABE2B8E201900D928A95E1F703
:1009E000CE0101960E94430561E08BE298E20E94ED
:1009F000C90600E010E080915A2880FF24C0809151
:100A00005A288E7F80935A28E0E4F4E02481809174
:100A10000804982F9074892F90E0082E892F000CDD
:100A2000881F990B000C881F991F880F991F8295AA
:100A30009295907F9827807F9827922F9F7D892B72
:100A400084830E94DB0080915A2881FFD4CF80915B
:100A50005A288D7F80935A2880E180934704B801FB
:100A60000E94A8020F5F1F4FC6CF6FEF7FEF81E09C
:100A700090E00E949C0408956FEF7FEF80E090E08B
:100A80000E949C0408950895862F90E08830910577
:100A900008F063C0FC01E05BFF4F0C94CC07E0E87A
:100AA000F4E084818E7F482B448380E00895E0E861
:100AB000F4E0848150E0440F551F8D7F482B448320
:100AC00080E00895E0E8F4E0848150E0440F551F91
:100AD000440F551F8B7F482B448380E00895E0E846
:100AE000F4E0848150E0440F551F440F551F440F1C
:100AF000551F877F482B448380E00895E0EAF4E0A7
:100B000084818E7F482B448380E00895E0EAF4E0FE
:100B1000848150E0440F551F8D7F482B448380E033
:100B20000895E0EAF4E0848150E0440F551F440F3B
:100B3000551F8B7F482B448380E00895E0EAF4E062
:100B4000848150E0440F551F440F551F440F551F1B
:100B5000877F482B448380E0089581E00895CF93F8
:100B6000DF93DC01C0E6D4E090E2E0E6F4E001903F
:100B70000D929A95E1F7888180688883E0E8F4E037
:100B800080818160808380E0DF91CF9108951F9301
:100B9000CF93DF93E0E0FAE0808131811281D3814D
:100BA000C5812685A0EEB5E014965C911497418529
:100BB0009285817F8860387F9160216031831283C4
:100BC000D383C583268714965C9366A377A310A668
:100BD00011A612A613A614A615A680834187928794
:100BE00080E0DF91CF911F91089586E08A95F1F71B
:100BF00000C080E00895CF93DF939B01C0E0DAE06E
:100C000088818E7F888388A199A1A8EEB3E00E9495
:100C1000D20720E233E040E050E00E94AA072EA372
:100C20003FA388818160888380E0DF91CF91089520
:100C3000611106C0E0E6F4E084818068848305C029
:100C4000E0E6F4E084818F77848380E00895611189
:100C500006C0E0E0FAE080818E7F808309C0E0E09A
:100C6000FAE087EA91E686A397A38081816080837A
:100C700080E00895CF93DF93CDB7DEB72597CDBF42
:100C8000DEBFAC01FC0110A213A614A683E597E019
:100C900089839A831B828C839D8390E09230A8F491
:100CA000292F30E0D901AA0FBB1FAA0FBB1FA20F2B
:100CB000B31FA40FB51F919625E0FE013196019058
:100CC0000D922A95E1F79F5FE9CF80E02596CDBF91
:100CD000DEBFDF91CF9108950F931F93CF938C01C7
:100CE0000E943A06C82FC8010E94AF05C82B67EAC8
:100CF00071E6C8010E94C7058C2BCF911F910F91FF
:100D000008950E946C060895BF92CF92DF92EF92F1
:100D1000FF920F931F93CF93DF937C01162FD42F55
:100D2000C22EBB24B394BB2049F1CD1608F5D12CBB
:100D3000D016D8F4E0E6F4E084818F778483C0E0B5
:100D4000C11728F4C7010E94F505CF5FF9CF60E015
:100D5000C7010E941806C0E0CD1728F4C7010E9401
:100D6000F505CF5FF9CFD394E3CF1C0DDC19DBCFB2
:100D700061E0C7010E941806B12CD5CF80E0DF9159
:100D8000CF911F910F91FF90EF90DF90CF90BF9088
:100D900008950F931F93CF93DF93EC01611108C067
:100DA0000E941806182F60E0CE010E9427060BC093
:100DB00002E021E044E66AE00E948406182F61E028
:100DC000CE010E942706812FDF91CF911F910F91B5
:100DD00008950F931F93CF93DF938C01C0E0D0E071
:100DE000C23040F440E06C2FC8010E944405D82B6B
:100DF000CF5FF6CF8D2FDF91CF911F910F91089587
:100E00000F931F93CF938C0160E00E942706C82F99
:100E1000C8010E94E906C82BC8010E943A068C2B23
:100E2000CF911F910F910895CF92DF92EF92FF9291
:100E30000F931F93CF93DF938C01FC01C0A1C111CD
:100E400005C041E06C2F0E94440518C0C13069F410
:100E500040E06FEF6C0F0E944405D82F41E06C2FEB
:100E6000C8010E9444058D2B09C0C23031F440E016
:100E70006FEF6C0F0E94440501C081E0882321F0D0
:100E8000C8010E9400073DC0F801E3A4F4A4C230E9
:100E900058F4F4E2EF1AFAEFFF0A0F2EFCEDCF2E12
:100EA000F5E0DF2EF02D12C0C23069F490E2E916B1
:100EB0009EE4F90650F420E23EE46901CE18DF0812
:100EC000E12CF12C03C081E001C081E0882321F0F6
:100ED000C8010E94000715C0B601C8010E94FB05A9
:100EE000882321F0C8010E9400070BC0F801E3A687
:100EF000F4A6C23011F0CF5F01C0C0E0F801C0A37A
:100F000080E0DF91CF911F910F91FF90EF90DF90E4
:100F1000CF900895991B79E004C0991F961708F0A7
:100F2000961B881F7A95C9F780950895AA1BBB1B4D
:100F300051E107C0AA1FBB1FA617B70710F0A61BD9
:100F4000B70B881F991F5A95A9F780959095BC01FA
:100F5000CD010895A1E21A2EAA1BBB1BFD010DC0F5
:100F6000AA1FBB1FEE1FFF1FA217B307E407F50759
:100F700020F0A21BB30BE40BF50B661F771F881F35
:100F8000991F1A9469F760957095809590959B01CB
:100F9000AC01BD01CF010895EE0FFF1F0590F49144
:100FA000E02D0994A29FB001B39FC001A39F700DD3
:100FB000811D1124911DB29F700D811D1124911D61
:100FC000089510E0C9E5D0E004C0FE010E94CC07FE
:0C0FD0002196CA35D107C9F7F894FFCF6D
:100FDC001027E80364000A00010000CA9A3B00E1F4
:100FEC00F5058096980040420F00A086010010275E
:100FFC000000E8030000640000000A00000001008B
:10100C000000E80364000A0001004F72616E67651E
:04101C0048617400B3
:00000001FF
