:100000000C9450000C9462000C9462000C946200FA
:100010000C9416040C9462000C9462000C94620020
:100020000C9462000C9462000C9462000C946200C8
:100030000C9462000C9462000C9462000C946200B8
:100040000C9462000C9462000C9462000C946200A8
:100050000C9462000C9462000C9462000C94620098
:100060000C9462000C9462000C9462000C94620088
:100070000C9462000C9462000C9462000C94620078
:100080000C9462000C9462000C9462000C94620068
:100090000C9462000C9462000C9462000C94620058
:1000A00011241FBECFEFCDBFDFE3DEBF28E2A0E00B
:1000B000B8E201C01D92AD32B207E1F70E945D04C3
:1000C0000C94DB040C940000E0E2F4E09481907F57
:1000D000282F22952F70922B948394819F7D948357
:1000E000948190619483A7EEB3E01197F1F700C07B
:1000F000000094819F7E9483A7EEB3E01197F1F7FF
:1001000000C000009481907F8F70892B848384814C
:100110008061848387EE93E00197F1F700C00000CF
:1001200084818F7E8483A7EEB3E01197F1F700C03E
:1001300000008FE097E20197F1F700C000000895FA
:1001400082E00E94640088E20E94640081E00E94D4
:1001500064008CE00E94640080E0803240F4E82F6C
:10016000F0E0E75FF74D90E290838F5FF6CF80E09D
:10017000843038F4E82FF0E0EB5FF74D10828F5FAA
:10018000F7CF10920428109203280895CF938091FE
:100190000128982F9295969597709370C82FCF71DC
:1001A0008C2F9111AAC05C2F57706FEF70E0052E55
:1001B00002C0660F771F0A94E2F79C2F9871292FCF
:1001C00030E0359527953595279535952795F90193
:1001D000EB5FF74D40816423A1F091E001C0990FDE
:1001E0005A95EAF701C090E0992309F444C0292FF9
:1001F0002423C9F78F5F990FB9F723E620930328CB
:10020000F3CF892F522F91E001C095E09530F0F4A3
:10021000252F30E0F901EB5FF74D40814111F5CF1B
:100220009F5F2F5F3F4F2430310514F45F5F01C0A3
:1002300050E0282F30E0285F3F4F2032310514F086
:10024000885101C0885F953008F31EC1E52FF0E0AA
:10025000EB5FF74D308191E001C090E0992359F0B8
:10026000292F2323D1F7990F8F5F9111F7CF23E621
:1002700020930328F3CF982F9F70C1F0909102280C
:1002800096959F71891312C0E1E0F8E290819F7703
:100290009083E82FF0E0E75FF74D9081909300287E
:1002A000E0E2F4E024812062248318C0E1E0F8E277
:1002B000908190689083282F207130E0220F331FA7
:1002C000220F331F922F9068282F2F70922B90931C
:1002D0000028E0E2F4E024812F7D2483E2E0F8E2CC
:1002E000208121602083E0E2F4E02481207F929548
:1002F0009F70922B948391E0BAC0913039F4E0E280
:10030000F4E094819061948392E0B1C0923081F4E2
:10031000E0E2F4E094819F7E9483909101289923F8
:100320000CF4A2C09091022890FFA0C093E09FC05F
:10033000933009F095C0209101282078E1F03091A8
:10034000022830FF18C0E2E0F8E2232F2E7F20833E
:1003500030910028A0E2B4E014964C911497407FAD
:100360003F70342B14963C939C2F990F217C292BA2
:10037000208391E07CC0222311F19091022890FD0E
:100380001EC0E0E2F4E0948190629483A1E0B8E2C0
:100390009C919F779C93A2E0B8E29C9191609C9382
:1003A000AC2FB0E0A75FB74D9C91909300282481BB
:1003B000207F92959F70922B948391E058C02111D9
:1003C0004AC09091022890FF46C0E2E0F8E29E7F8A
:1003D000908330910028E0E2F4E09481292F207F7F
:1003E000932F9F70922B9483EC2FF0E0E75FF74DF3
:1003F0009081391318C0EC2FE871F0E0F595E7957E
:10040000F595E795F595E7959C2F977021E030E0FD
:1004100002C0220F331F9A95E2F7EB5FF74D20954C
:100420009081922390839091022896959F71292F15
:1004300030E02F5F3F4F2032310514F49F5F01C041
:1004400090E0E2E0F8E29F71990F2081217C922BED
:10045000908391E00CC093E69093032891E007C04D
:1004600023E62093032803C093E001C090E0E1E07D
:10047000F8E2292F2295220F207E90819F79922BDE
:100480008F71907E892B8083CF910895813220F0E7
:100490008AE0809303280895282F30E0F901E75F70
:1004A000F74D90819617E1F0F901E75FF74D608312
:1004B000E82FE871F0E0F595E795F595E795F59566
:1004C000E795877021E030E0A90102C0440F551F75
:1004D0008A95E2F7CA01EB5FF74D9081892B808303
:1004E00008950F931F93CF93DF9361157105B1F0BA
:1004F0008B01D82FC0E02C2F30E02D0F311D213281
:10050000310564F4F801EC0FF11D6081662331F0D0
:100510008C2F8D0F0E944602CF5FEDCFDF91CF91E0
:100520001F910F910895FF920F931F93CF93DF9325
:10053000CDB7DEB76097CDBFDEBFF82E8B016F3F22
:10054000710511F008F04EC084E68F838AE0888739
:1005500081E0898720E030E03330D8F5E7E0F0E053
:10056000EC0FFD1FE30FF11D40810417D8F0802F21
:10057000642F0E94BB04622F70E0643071051CF090
:10058000198200E08BC0E1E0F0E0EC0FFD1FE20F0C
:10059000F11D90E3980F9083489F001911242F5F5D
:1005A00080E015C0882311F0323089F4422F50E0EA
:1005B000443051051CF0198200E070C0E1E0F0E029
:1005C000EC0FFD1FE20FF11D90E390832F5F3F5F63
:1005D000C3CFE1E0F0E0EC0FFD1FE20FF11D108250
:1005E000022F5CC08AE0EAEBF9E4DE011796019085
:1005F0000D928A95E1F781E020E030E0353008F097
:1006000045C0E32FF0E0EE0FFF1F41E050E04C0F3C
:100610005D1FE40FF51F0680F781E02D0E171F0701
:10062000F0F0C801BF010E94C704822F90E0049738
:100630001CF0198200E032C0A1E0B0E0AC0FBD1F99
:10064000A20FB11D80E3860F8C936E9FC0016F9F38
:10065000900D1124081B190B2F5F80E015C0882313
:1006600011F0343089F4422F50E0443051051CF031
:10067000198200E013C0E1E0F0E0EC0FFD1FE20F93
:10068000F11D90E390832F5F3F5FB8CFE1E0F0E092
:10069000EC0FFD1FE20FF11D1082022F10E015304C
:1006A00038F58091042880FF0AC01017C0F4E1E0FB
:1006B000F0E0EC0FFD1FE10FF11D608113C0802FF2
:1006C00090E0810F911D853091055CF00597E1E088
:1006D000F0E0EC0FFD1FE80FF91F608103C060E23E
:1006E00001C060E2812F8F0D0E9446021F5FD7CFAD
:1006F0006096CDBFDEBFDF91CF911F910F91FF902C
:10070000089588ED84BFE0E6F0E090819C7F9083BF
:1007100084BF90819F77908384BF91819E7F9183D6
:1007200084BF9181917E918384BF92819E7F9283C9
:1007300090899260908B84BF82898068828B0895B3
:10074000E0E0F4E080E8808384831286108A118AD6
:10075000128A138A148A158A88E0868B178AE0E247
:10076000F4E08FE3808314821286108A118A128A41
:10077000138A148A158A168A178AE0E4F4E080E363
:10078000808314821286108A118A128A138A148A2C
:10079000158A168A178AE0E6F4E01082148212861F
:1007A000108A118A128A138A148A158A168A178A5D
:1007B000E0E8F4E0108214821286108A118A128A0C
:1007C000138A148A158A168A178AE0EAF4E01082DE
:1007D00014821286108A118A128A138A148A158A40
:1007E000168A178A0895E0E4F1E0908142815581EC
:1007F0003781808922893C7F9778916881608778EA
:1008000080622160168212861386148615865583AF
:100810003783808B90834283228B08950E948103CB
:100820000E94A0030E94F303789408951F920F92F0
:100830000FB60F9211242F938F939F9380912C28A2
:1008400080FD06C080912C28816080932C2807C0F1
:1008500080912B28882319F081E080932B288091A8
:10086000292890912A28009789F420912C2821FD8D
:1008700006C020912C28226020932C2807C02091AC
:100880002B28222319F022E020932B28873E23E0F7
:10089000920711F0019602C080E090E08093292831
:1008A00090932A2881E0809353019F918F912F91FB
:1008B0000F900FBE0F901F9018950E940E04E0E05D
:1008C000F4E08481806884832FE784E89EE12150EE
:1008D00080409040E1F700C0000084818F778483DE
:1008E0002FE784E89EE1215080409040E1F700C06E
:1008F00000000E94A00064EF79E480E00E94710291
:10090000C0E0D0E080912C2880FF24C080912C286A
:100910008E7F80932C28E0E4F4E024818091080409
:10092000982F9074892F90E0082E892F000C881F33
:10093000990B000C881F991F880F991F829592951B
:10094000907F9827807F9827922F9F7D892B848383
:100950000E94C60080912C2881FFD4CF80912C2842
:100960008D7F80932C2880E180934704BE010E94F4
:1009700093022196C7CF991B79E004C0991F96175F
:1009800008F0961B881F7A95C9F780950895AA1BD1
:10099000BB1B51E107C0AA1FBB1FA617B70710F06A
:1009A000A61BB70B881F991F5A95A9F7809590959C
:0A09B000BC01CD010895F894FFCFBB
:1009BA001027E80364000A00010000CA9A3B00E11C
:1009CA00F5058096980040420F00A0860100102786
:1009DA000000E8030000640000000A0000000100B3
:1009EA000000E80364000A0001004F72616E676547
:0409FA0048617400DC
:00000001FF
