:100000000C945A000C9477000C9477000C947700B1
:100010000C942C040C9477000C9477000C947304CB
:100020000C9477000C9477000C9477000C94770074
:100030000C9477000C9477000C9477000C94770064
:100040000C9477000C9477000C9477000C94770054
:100050000C9477000C9477000C9477000C94770044
:100060000C9477000C9477000C9477000C94770034
:100070000C9477000C9477000C9477000C94770024
:100080000C9477000C9477000C9477000C94770014
:100090000C9477000C9477000C9477000C94770004
:1000A000AF06B706C206CF06DE06E606F106FE0676
:1000B0004B05520511241FBECFEFCDBFDFE3DEBFDE
:1000C00028E2A0E0B8E201C01D92AB34B207E1F72C
:1000D00010E0C9E5D0E004C02197FE010E94A20A09
:1000E000C835D107C9F70E94B9040C94B70A0C941B
:1000F0000000E0E2F4E09481907F282F22952F7099
:10010000922B948394819F7D9483948190619483B6
:10011000A7EEB3E01197F1F700C0000094819F7E35
:100120009483A7EEB3E01197F1F700C0000094812B
:10013000907F8F70892B848384818061848387EE94
:1001400093E00197F1F700C0000084818F7E8483E3
:10015000A7EEB3E01197F1F700C000008FE097E23F
:100160000197F1F700C00000089582E00E94790035
:1001700088E20E94790081E00E9479008CE00E9470
:10018000790080E0803240F4E82FF0E0E75FF74D3F
:1001900090E290838F5FF6CF80E0843038F4E82FD0
:1001A000F0E0EB5FF74D10828F5FF7CF10920428DD
:1001B000109203280895CF9380910128982F92954B
:1001C000969597709370C82FCF718C2F9111AAC0FC
:1001D0005C2F57706FEF70E0052E02C0660F771F1F
:1001E0000A94E2F79C2F9871292F30E035952795D6
:1001F0003595279535952795F901EB5FF74D4081AA
:100200006423A1F091E001C0990F5A95EAF701C06B
:1002100090E0992309F444C0292F2423C9F78F5F64
:10022000990FB9F723E620930328F3CF892F522F94
:1002300091E001C095E09530F0F4252F30E0F90110
:10024000EB5FF74D40814111F5CF9F5F2F5F3F4F2F
:100250002430310514F45F5F01C050E0282F30E0F6
:10026000285F3F4F2032310514F0885101C0885F6C
:10027000953008F31EC1E52FF0E0EB5FF74D3081BC
:1002800091E001C090E0992359F0292F2323D1F761
:10029000990F8F5F9111F7CF23E620930328F3CFB7
:1002A000982F9F70C1F09091022896959F718913A5
:1002B00012C0E1E0F8E290819F779083E82FF0E0B0
:1002C000E75FF74D908190930028E0E2F4E024810D
:1002D0002062248318C0E1E0F8E290819068908366
:1002E000282F207130E0220F331F220F331F922F4F
:1002F0009068282F2F70922B90930028E0E2F4E072
:1003000024812F7D2483E2E0F8E220812160208394
:10031000E0E2F4E02481207F92959F70922B9483F9
:1003200091E0BAC0913039F4E0E2F4E09481906158
:10033000948392E0B1C0923081F4E0E2F4E09481E1
:100340009F7E94839091012899230CF4A2C09091F0
:10035000022890FFA0C093E09FC0933009F095C0A1
:10036000209101282078E1F03091022830FF18C058
:10037000E2E0F8E2232F2E7F208330910028A0E2D4
:10038000B4E014964C911497407F3F70342B149630
:100390003C939C2F990F217C292B208391E07CC0DA
:1003A000222311F19091022890FD1EC0E0E2F4E0BA
:1003B000948190629483A1E0B8E29C919F779C9392
:1003C000A2E0B8E29C9191609C93AC2FB0E0A75F53
:1003D000B74D9C91909300282481207F92959F7027
:1003E000922B948391E058C021114AC09091022829
:1003F00090FF46C0E2E0F8E29E7F908330910028B3
:10040000E0E2F4E09481292F207F932F9F70922BBC
:100410009483EC2FF0E0E75FF74D9081391318C01B
:10042000EC2FE871F0E0F595E795F595E795F595F2
:10043000E7959C2F977021E030E002C0220F331F18
:100440009A95E2F7EB5FF74D209590819223908388
:100450009091022896959F71292F30E02F5F3F4F92
:100460002032310514F49F5F01C090E0E2E0F8E231
:100470009F71990F2081217C922B908391E00CC079
:1004800093E69093032891E007C023E62093032886
:1004900003C093E001C090E0E1E0F8E2292F22954B
:1004A000220F207E90819F79922B8F71907E892BD5
:1004B0008083CF910895813220F08AE080930328D1
:1004C0000895282F30E0F901E75FF74D90819617E6
:1004D000E1F0F901E75FF74D6083E82FE871F0E0A4
:1004E000F595E795F595E795F595E795877021E002
:1004F00030E0A90102C0440F551F8A95E2F7CA01F6
:10050000EB5FF74D9081892B808308950F931F93A4
:10051000CF93DF9361157105B1F08B01D82FC0E047
:100520002C2F30E02D0F311D2132310564F4F801FC
:10053000EC0FF11D6081662331F08C2F8D0F0E942E
:100540005B02CF5FEDCFDF91CF911F910F910895A7
:10055000FF920F931F93CF93DF93CDB7DEB76097D2
:10056000CDBFDEBFF82E8B016F3F710511F008F093
:100570004EC084E68F838AE0888781E0898720E007
:1005800030E03330D8F5E7E0F0E0EC0FFD1FE30F8B
:10059000F11D40810417D8F0802F642F0E94600A5B
:1005A000622F70E0643071051CF0198200E08BC08E
:1005B000E1E0F0E0EC0FFD1FE20FF11D90E3980F7A
:1005C0009083489F001911242F5F80E015C0882375
:1005D00011F0323089F4422F50E0443051051CF0C4
:1005E000198200E070C0E1E0F0E0EC0FFD1FE20FC7
:1005F000F11D90E390832F5F3F5FC3CFE1E0F0E018
:10060000EC0FFD1FE20FF11D1082022F5CC08AE08B
:10061000E8E8F5E5DE01179601900D928A95E1F77D
:1006200081E020E030E0353008F045C0E32FF0E015
:10063000EE0FFF1F41E050E04C0F5D1FE40FF51F70
:100640000680F781E02D0E171F07F0F0C801BF01EB
:100650000E946C0A822F90E004971CF0198200E03F
:1006600032C0A1E0B0E0AC0FBD1FA20FB11D80E30E
:10067000860F8C936E9FC0016F9F900D1124081BF5
:10068000190B2F5F80E015C0882311F0343089F4F6
:10069000422F50E0443051051CF0198200E013C095
:1006A000E1E0F0E0EC0FFD1FE20FF11D90E390831D
:1006B0002F5F3F5FB8CFE1E0F0E0EC0FFD1FE20FEE
:1006C000F11D1082022F10E0153038F580910428BA
:1006D00080FF0AC01017C0F4E1E0F0E0EC0FFD1F4E
:1006E000E10FF11D608113C0802F90E0810F911DFB
:1006F000853091055CF00597E1E0F0E0EC0FFD1F1F
:10070000E80FF91F608103C060E201C060E2812F41
:100710008F0D0E945B021F5FD7CF6096CDBFDEBFFB
:10072000DF91CF911F910F91FF90089588ED84BFC5
:10073000E0E6F0E090819C7F908384BF90819F777A
:10074000908384BF91819E7F918384BF9181917EAC
:10075000918384BF92819E7F928390899260908BD7
:1007600084BF82898068828B0895E0E0F4E080E8AD
:10077000808384831286108A118A128A138A148ACB
:10078000158A98E0968B178AE0E2F4E09FE3908365
:1007900014821286108A118A128A138A148A158A80
:1007A000168A178AE0E4F4E090E3908314821286BC
:1007B000108A118A128A138A148A158A168A178A4D
:1007C000E0E6F4E0808384831286108A118A128A1C
:1007D000138A148A158A168A178AE0E8F4E081E001
:1007E000808314821286108A118A128A138A148ACC
:1007F000158A168A178AE0EAF4E08FE08083148273
:100800001286108A118A128A138A148A158A168A05
:10081000178A0895E0E4F1E09081428155813781A3
:10082000808922893C7F977891688160877880628F
:1008300021601682128613861486158655833783A7
:10084000808B90834283228B08950E9496030E949E
:10085000B5030E940A0408951F920F920FB60F92DB
:1008600011242F938F939F9380914A2880FD06C077
:1008700080914A28816080934A2807C08091492846
:10088000882319F081E0809349288091292890914C
:100890002A28009789F420914A2821FD06C020913A
:1008A0004A28226020934A2807C020914928222301
:1008B00019F022E020934928873E23E0920711F0A7
:1008C000019602C080E090E08093292890932A2826
:1008D00081E0809353019F918F912F910F900FBED4
:1008E0000F901F9018951F920F920FB60F92112420
:1008F0002F933F934F935F936F937F938F939F9328
:10090000AF93BF93EF93FF938BE298E20E94D209DB
:1009100081E080930B0AFF91EF91BF91AF919F917E
:100920008F917F916F915F914F913F912F910F9098
:100930000FBE0F901F9018950F931F93CF93DF93C7
:10094000EC018B01019739F46F3F7F4F21F48BE26B
:1009500098E20E949F06CD2B39F40F3F1F4F21F4E0
:100960008BE298E20E945905DF91CF911F910F9180
:100970000895CF93DF93CDB7DEB76E97CDBFDEBFBF
:100980000E942504E0E0F4E08481806884832FE7FE
:1009900084E89EE1215080409040E1F700C00000D3
:1009A00084818F7784832FE784E89EE12150804003
:1009B0009040E1F700C000000E94B50062EC75E5D0
:1009C00080E00E948602CE0101960E949F068EE181
:1009D000FE013196ABE2B8E201900D928A95E1F703
:1009E000CE0101960E94590561E08BE298E20E94D7
:1009F000B607789400E010E080914A2880FF24C078
:100A000080914A288E7F80934A28E0E4F4E0248194
:100A100080910804982F9074892F90E0082E892FD8
:100A2000000C881F990B000C881F991F880F991FB5
:100A300082959295907F9827807F9827922F9F7D0F
:100A4000892B84830E94DB0080914A2881FFD4CFC8
:100A500080914A288D7F80934A2880E180934704C3
:100A6000B8010E94A8020F5F1F4F00FD0AC028ECCA
:100A700030E04CE95FEF60E08BE298E20E942B06E9
:100A8000BBCF20E931E044E650E060E08BE298E241
:100A90000E942B06B1CF6FEF7FEF81E090E00E94C4
:100AA0009C0408956FEF7FEF80E090E00E949C042B
:100AB00008950895E0E6F4E0808180688083E0E8AE
:100AC000F4E0808181608083808182608083808186
:100AD00084608083808188608083E0EAF4E08081A4
:100AE0008160808380818260808380818460808354
:100AF00080818860808380E008951F93CF93DF9387
:100B0000E0E0FAE0808131811281D381C5812685C0
:100B1000A0EEB5E014965C91149741859285817F93
:100B20008860387F9160216031831283D383C583CD
:100B3000268714965C9366A377A310A611A612A627
:100B400013A614A615A680834187928780E0DF91C3
:100B5000CF911F91089586E08A95F1F700C080E05B
:100B60000895611106C0E0E6F4E084818068848322
:100B700005C0E0E6F4E084818F77848380E0089507
:100B8000611106C0E0E0FAE080818E7F808309C0B9
:100B9000E0E0FAE087EA91E686A397A3808181608E
:100BA000808380E00895CF93DF93CDB7DEB72D9794
:100BB000CDBFDEBFFC011082138E148E19821A8203
:100BC0001B821C8221E02D832E8318861F8220E049
:100BD0002230A0F4A22FB0E0AA0FBB1FAA0FBB1FA8
:100BE000AA0FBB1FA80FB91F119638E0FE0131965E
:100BF00001900D923A95E1F72F5FEACF19861A8698
:100C00001B862CED35E02C873D8740E04230A8F470
:100C1000242F30E0D901AA0FBB1FAA0FBB1FA20FC0
:100C2000B31FA80FB91F519625E0FE013996019018
:100C30000D922A95E1F74F5FE9CF80E02D96CDBF69
:100C4000DEBFDF91CF910895FC01258D211101C0F8
:100C5000658F81E00895623028F067E00E942406E5
:100C600081E00895FA01E057FE4FE132F34028F0A9
:100C700067E00E94240681E0089570E0FB01EE0F1A
:100C8000FF1FEE0FFF1FEE0FFF1FE80FF91F018080
:100C9000F281E02D4E175F0769F0FB01EE0FFF1F99
:100CA000EE0FFF1FEE0FFF1FE80FF91F4183528366
:100CB00041E04583FB01EE0FFF1FEE0FFF1FEE0F1C
:100CC000FF1FE80FF91F438154814217530779F042
:100CD000660F771F660F771F660F771FFC01E60F01
:100CE000F71F2383348381E0868380E0089580E0CA
:100CF00008950F931F93CF938C010E94D305C82FA3
:100D0000882321F061E0C8010E942406C8010E94E6
:100D10005A05C82B21F062E0C8010E94240667EA48
:100D200071E6C8010E947D05C82B21F063E0C8016F
:100D30000E9424068C2FCF911F910F9108950E943D
:100D4000790608950F931F93062F10E008301105C0
:100D500008F063C0F801E05BFF4F0C94A20AE0E8E2
:100D6000F4E084818E7F482B448380E05AC0E0E821
:100D7000F4E0848150E0440F551F8D7F482B44835D
:100D800080E04FC0E0E8F4E0848150E0440F551F5C
:100D9000440F551F8B7F482B448380E042C0E0E81E
:100DA000F4E0848150E0440F551F440F551F440F59
:100DB000551F877F482B448380E033C0E0EAF4E08E
:100DC00084818E7F482B448380E02BC0E0EAF4E0EE
:100DD000848150E0440F551F8D7F482B448380E071
:100DE00020C0E0EAF4E0848150E0440F551F440F36
:100DF000551F8B7F482B448380E013C0E0EAF4E06A
:100E0000848150E0440F551F440F551F440F551F58
:100E1000877F482B448380E004C064E00E9424065E
:100E200081E01F910F910895CF93DF93EC019B0117
:100E3000A8EEB3E00E94A80A20E233E040E050E0D0
:100E40000E94800A2E3F8FEF38074105510538F088
:100E5000CE0166E00E9424068FEF9FEF01C0C9011A
:100E6000DF91CF9108950F931F93CF93DF93EC0100
:100E7000CB018C549440853D994430F067E0CE011D
:100E80000E94240681E028C0E0E0FAE080818E7FA5
:100E9000808300A111A1CE010E9414079C01215062
:100EA00031092E3F4FEF340730F066E0CE010E944B
:100EB000240681E011C00817190730F065E0CE0163
:100EC0000E94240681E008C0E0E0FAE026A337A3F0
:100ED00080818160808380E0DF91CF911F910F91AD
:100EE0000895BF92CF92DF92EF92FF920F931F93DC
:100EF000CF93DF937C01162FD42FC22EBB24B39443
:100F0000BB2049F1CD1608F5D12CD016D8F4E0E677
:100F1000F4E084818F778483C0E0C11728F4C7018F
:100F20000E94AB05CF5FF9CF60E0C7010E94B10519
:100F3000C0E0CD1728F4C7010E94AB05CF5FF9CF01
:100F4000D394E3CF1C0DDC19DBCF61E0C7010E9415
:100F5000B105B12CD5CF80E0DF91CF911F910F91DA
:100F6000FF90EF90DF90CF90BF9008950F931F9365
:100F7000CF93DF93EC01611108C00E94B105182FD7
:100F800060E0CE010E94C0050BC002E021E044E613
:100F90006AE00E947107182F61E0CE010E94C0052F
:100FA000812FDF91CF911F910F9108950F931F9380
:100FB000CF93DF938C01C0E0D0E0C23040F440E03A
:100FC0006C2FC8010E94A206D82BCF5FF6CF8D2FC1
:100FD000DF91CF911F910F9108950F931F93CF939E
:100FE0008C0160E00E94C005C82FC8010E94D6078E
:100FF000C82BC8010E94D3058C2BCF911F910F9154
:101000000895EF92FF921F93CF93DF93EC017A0143
:10101000623050F067E00E9424068FEF9FEFF701E7
:101020008083918311E0B7C1462F50E0FA01EE0FA3
:10103000FF1FEE0FFF1FEE0FFF1FE80FF91F1581B7
:10104000112391F1FA01EE0FFF1FEE0FFF1FEE0FBC
:10105000FF1FE80FF91F818192819C0120573E4FAD
:101060002132334050F068E0CE010E9424068FEF19
:101070009FEFF701808391838EC184529A4FFA01CA
:10108000EE0FFF1FEE0FFF1FE40FF51FEC0FFD1F0C
:10109000818B928BFA01EE0FFF1FEE0FFF1FEE0FF9
:1010A000FF1FEC0FFD1F1582FA01EE0FFF1FEE0F61
:1010B000FF1FEE0FFF1FEC0FFD1F1681112309F418
:1010C00046C0FA01EE0FFF1FEE0FFF1FEE0FFF1FCE
:1010D000EC0FFD1F238134812115310561F4FA01E4
:1010E000EE0FFF1FEE0FFF1FE40FF51FEC0FFD1FAC
:1010F000138A20E021C036952795ABE7B4E10E9422
:10110000A80A969587958F3F910559F050F066E0B3
:10111000CE010E9424068FEF9FEFF7018083918319
:101120003AC1282FFA01EE0FFF1FEE0FFF1FE40F49
:10113000F51FEC0FFD1F838BFA01EE0FFF1FEE0F63
:10114000FF1FEE0FFF1FEC0FFD1F16820AC0FA01F2
:10115000EE0FFF1FEE0FFF1FE40FF51FEC0FFD1F3B
:101160002389FA01EE0FFF1FEE0FFF1FE40FF51F9B
:10117000EC0FFD1F818992896489758921114DC009
:1011800086179707B9F4FA013196EE0FFF1FEE0F9D
:10119000FF1FEE0FFF1FEC0FFD1F21E02083440F08
:1011A000551F440F551F440F551FFE01E40FF51F37
:1011B000278321C0FA013196EE0FFF1FEE0FFF1FAC
:1011C000EE0FFF1FEC0FFD1F1082FA01EE0FFF1F45
:1011D000EE0FFF1FEE0FFF1FEC0FFD1F1782FA012E
:1011E000EE0FFF1FEE0FFF1F4E0F5F1FFE01E40FFC
:1011F000F51F848B958B9C012C5434402132334055
:1012000008F4B4C068E0CE010E9424068FEF9FEF7F
:10121000F7018083918311E0BEC086179707C9F458
:10122000FA013196EE0FFF1FEE0FFF1FEE0FFF1FAB
:10123000EC0FFD1F81E08083440F551F440F551FA5
:10124000440F551FFE01E40FF51F87838FEF9FEFBB
:101250008DC06817790720F4FC01E61BF70B03C06B
:10126000FB01E81BF90B30E0E217F307A0F5FA01E8
:10127000EE0FFF1FEE0FFF1FEE0FFF1FEC0FFD1F06
:1012800021E02783FA013196EE0FFF1FEE0FFF1FBB
:10129000EE0FFF1FEC0FFD1F1082FA01EE0FFF1F74
:1012A000EE0FFF1F4E0F5F1FFE01E40FF51F848B33
:1012B000958B9C012C5434402132334008F456C0A5
:1012C00068E0CE010E9424068FEF9FEFF701808334
:1012D000918311E060C0FA01EE0FFF1FEE0FFF1FB8
:1012E000EE0FFF1FEC0FFD1F1782FA013196EE0F74
:1012F000FF1FEE0FFF1FEE0FFF1FEC0FFD1F1082F1
:101300006817790720F4CB01820F931F12C086174C
:10131000970720F4CB01821B930B0BC068E0CE0132
:101320000E9424068FEF9FEFF7018083918311E0E5
:1013300032C0FA01EE0FFF1FEE0FFF1F4E0F5F1FAF
:10134000FE01E40FF51F848B958B9C012C543440D7
:101350002132334058F068E0CE010E9424068FEF1E
:101360009FEFF7018083918311E015C09C012C54FD
:1013700034402132334058F068E0CE010E94240608
:101380008FEF9FEFF7018083918311E004C0F70195
:101390008083918310E0812FDF91CF911F91FF9087
:1013A000EF900895CF92DF92EF92FF920F931F93E9
:1013B000CF93DF9300D0CDB7DEB77C01FC01108165
:1013C000111105C041E0612F0E94A20618C0113022
:1013D00069F440E06FEF610F0E94A206082F41E020
:1013E000612FC7010E94A206802B09C0123031F480
:1013F00040E06FEF610F0E94A20601C081E08823E8
:1014000021F0C7010E94ED0750C0F701C38CD48CB6
:101410001230C0F4AE014F5F5F4F612FC7010E94D1
:10142000010829813A81A9014C545440413253406A
:1014300030F068E0C7010E94240681E036C0C20E89
:10144000D31E17C01230A1F490E2C9169EE4D9064B
:1014500030F068E0C7010E94240681E00AC020E263
:101460003EE42C193D0929833A83C12CD12C01C0BB
:1014700081E0882321F0C7010E94ED0716C0698131
:101480007A81C7010E943307882321F0C7010E9497
:10149000ED070BC0F701C38ED48E123011F01F5F21
:1014A00001C010E0F701108380E00F900F90DF91F2
:1014B000CF911F910F91FF90EF90DF90CF90089503
:1014C000991B79E004C0991F961708F0961B881F96
:1014D0007A95C9F780950895AA1BBB1B51E107C0F7
:1014E000AA1FBB1FA617B70710F0A61BB70B881FB4
:1014F000991F5A95A9F780959095BC01CD01089543
:10150000A1E21A2EAA1BBB1BFD010DC0AA1FBB1F07
:10151000EE1FFF1FA217B307E407F50720F0A21B79
:10152000B30BE40BF50B661F771F881F991F1A94E6
:1015300069F760957095809590959B01AC01BD0110
:10154000CF010895EE0FFF1F0590F491E02D09944F
:10155000A29FB001B39FC001A39F700D811D1124F4
:10156000911DB29F700D811D1124911D089510E0F1
:10157000C9E5D0E004C0FE010E94A20A2196CA3546
:08158000D107C9F7F894FFCF71
:101588001027E80364000A00010000CA9A3B00E142
:10159800F5058096980040420F00A08601001027AC
:1015A8000000E8030000640000000A0000000100D9
:1015B8000000E80364000A0001004F72616E67656D
:0415C8004861740002
:00000001FF
