:100000000C945A000C9482000C9482000C94820090
:100010000C9438040C9482000C9482000C94A50477
:100020000C9482000C9482000C9482000C94820048
:100030000C9482000C9482000C9482000C94820038
:100040000C9482000C947F040C9482000C94820027
:100050000C9482000C9482000C9482000C94820018
:100060000C9482000C9482000C9482000C94820008
:100070000C9482000C9482000C9482000C948200F8
:100080000C9482000C9482000C9482000C948200E8
:100090000C9482000C9482000C9482000C948200D8
:1000A000A107A907B407C107D007D807E307F007DE
:1000B000FB05020611241FBECFEFCDBFDFE3DEBF7D
:1000C00028E2A4E0B8E201C01D92AF3DB207E1F71B
:1000D00018E2A0E0B8E2E2E9FAE102C005900D9270
:1000E000A430B107D9F710E0C9E5D0E004C02197EA
:1000F000FE010E94770CC835D107C9F70E94F304AE
:100100000C941A0D0C940000E0E2F4E09481907FCE
:10011000282F22952F70922B948394819F7D948316
:10012000948190619483A7EEB3E01197F1F700C03A
:10013000000094819F7E9483A7EEB3E01197F1F7BE
:1001400000C000009481907F8F70892B848384810C
:100150008061848387EE93E00197F1F700C000008F
:1001600084818F7E8483A7EEB3E01197F1F700C0FE
:1001700000008FE097E20197F1F700C000000895BA
:1001800082E00E94840088E20E94840081E00E9454
:1001900084008CE00E94840080E0803240F4E82FEC
:1001A000F0E0E35FF74D90E290838F5FF6CF80E061
:1001B000843038F4E82FF0E0E75FF74D10828F5F6E
:1001C000F7CF10920828109207280895CF938091B6
:1001D0000528982F9295969597709370C82FCF7198
:1001E0008C2F9111AAC05C2F57706FEF70E0052E15
:1001F00002C0660F771F0A94E2F79C2F9871292F8F
:1002000030E0359527953595279535952795F90152
:10021000E75FF74D40816423A1F091E001C0990FA1
:100220005A95EAF701C090E0992309F444C0292FB8
:100230002423C9F78F5F990FB9F723E62093072886
:10024000F3CF892F522F91E001C095E09530F0F463
:10025000252F30E0F901E75FF74D40814111F5CFDF
:100260009F5F2F5F3F4F2430310514F45F5F01C063
:1002700050E0282F30E0285F3F4F2032310514F046
:10028000885101C0885F953008F31EC1E52FF0E06A
:10029000E75FF74D308191E001C090E0992359F07C
:1002A000292F2323D1F7990F8F5F9111F7CF23E6E1
:1002B00020930728F3CF982F9F70C1F090910628C4
:1002C00096959F71891312C0E5E0F8E290819F77BF
:1002D0009083E82FF0E0E35FF74D9081909304283E
:1002E000E0E2F4E024812062248318C0E5E0F8E233
:1002F000908190689083282F207130E0220F331F67
:10030000220F331F922F9068282F2F70922B9093DB
:100310000428E0E2F4E024812F7D2483E6E0F8E283
:10032000208121602083E0E2F4E02481207F929507
:100330009F70922B948391E0BAC0913039F4E0E23F
:10034000F4E094819061948392E0B1C0923081F4A2
:10035000E0E2F4E094819F7E9483909105289923B4
:100360000CF4A2C09091062890FFA0C093E09FC01B
:10037000933009F095C0209105282078E1F0309164
:10038000062830FF18C0E6E0F8E2232F2E7F2083F6
:1003900030910428A0E2B4E014964C911497407F69
:1003A0003F70342B14963C939C2F990F217C292B62
:1003B000208391E07CC0222311F19091062890FDCA
:1003C0001EC0E0E2F4E0948190629483A5E0B8E27C
:1003D0009C919F779C93A6E0B8E29C9191609C933E
:1003E000AC2FB0E0A35FB74D9C919093042824817B
:1003F000207F92959F70922B948391E058C0211199
:100400004AC09091062890FF46C0E6E0F8E29E7F41
:10041000908330910428E0E2F4E09481292F207F3A
:10042000932F9F70922B9483EC2FF0E0E35FF74DB6
:100430009081391318C0EC2FE871F0E0F595E7953D
:10044000F595E795F595E7959C2F977021E030E0BD
:1004500002C0220F331F9A95E2F7E75FF74D209510
:100460009081922390839091062896959F71292FD1
:1004700030E02F5F3F4F2032310514F49F5F01C001
:1004800090E0E6E0F8E29F71990F2081217C922BA9
:10049000908391E00CC093E69093072891E007C009
:1004A00023E62093072803C093E001C090E0E5E035
:1004B000F8E2292F2295220F207E90819F79922B9E
:1004C0008F71907E892B8083CF910895813220F0A7
:1004D0008AE0809307280895282F30E0F901E35F30
:1004E000F74D90819617E1F0F901E35FF74D6083D6
:1004F000E82FE871F0E0F595E795F595E795F59526
:10050000E795877021E030E0A90102C0440F551F34
:100510008A95E2F7CA01E75FF74D9081892B8083C6
:1005200008950F931F93CF93DF9361157105B1F079
:100530008B01D82FC0E02C2F30E02D0F311D213240
:10054000310564F4F801EC0FF11D6081662331F090
:100550008C2F8D0F0E946602CF5FEDCFDF91CF9180
:100560001F910F910895FF920F931F93CF93DF93E5
:10057000CDB7DEB76097CDBFDEBFF82E8B016F3FE2
:10058000710511F008F04EC084E68F838AE08887F9
:1005900081E0898720E030E03330D8F5E7E0F0E013
:1005A000EC0FFD1FE30FF11D40810417D8F0802FE1
:1005B000642F0E94350C622F70E0643071051CF0CE
:1005C000198200E08BC0E1E0F0E0EC0FFD1FE20FCC
:1005D000F11D90E3980F9083489F001911242F5F1D
:1005E00080E015C0882311F0323089F4422F50E0AA
:1005F000443051051CF0198200E070C0E1E0F0E0E9
:10060000EC0FFD1FE20FF11D90E390832F5F3F5F22
:10061000C3CFE1E0F0E0EC0FFD1FE20FF11D10820F
:10062000022F5CC08AE0EEE4FAE5DE011796019045
:100630000D928A95E1F781E020E030E0353008F056
:1006400045C0E32FF0E0EE0FFF1F41E050E04C0FFC
:100650005D1FE40FF51F0680F781E02D0E171F07C1
:10066000F0F0C801BF010E94410C822F90E0049776
:100670001CF0198200E032C0A1E0B0E0AC0FBD1F59
:10068000A20FB11D80E3860F8C936E9FC0016F9FF8
:10069000900D1124081B190B2F5F80E015C08823D3
:1006A00011F0343089F4422F50E0443051051CF0F1
:1006B000198200E013C0E1E0F0E0EC0FFD1FE20F53
:1006C000F11D90E390832F5F3F5FB8CFE1E0F0E052
:1006D000EC0FFD1FE20FF11D1082022F10E015300C
:1006E00038F58091082880FF0AC01017C0F4E1E0B7
:1006F000F0E0EC0FFD1FE10FF11D608113C0802FB2
:1007000090E0810F911D853091055CF00597E1E047
:10071000F0E0EC0FFD1FE80FF91F608103C060E2FD
:1007200001C060E2812F8F0D0E9466021F5FD7CF4C
:100730006096CDBFDEBFDF91CF911F910F91FF90EB
:10074000089588ED84BFE0E6F0E090819C7F90837F
:1007500084BF90819F77908384BF91819E7F918396
:1007600084BF9181917E918384BF92819E7F928389
:1007700090899260908B84BF82898068828B089573
:10078000E0E0F4E081E8808384831286108A118A95
:10079000128A138A148A158A88E0868B178AE0E207
:1007A000F4E08FE3808314821286108A118A128A01
:1007B000138A148A158A168A178AE0E4F4E080E323
:1007C000808314821286108A118A128A138A148AEC
:1007D000158A168A178AE0E6F4E080E8808384832D
:1007E0001286108A118A128A138A148A158A168A26
:1007F000178AE0E8F4E081E0808314821286108A90
:10080000118A128A138A148A158A168A178AE0EACC
:10081000F4E08FE0808314821286108A118A128A93
:10082000138A148A158A168A178A0895E0E4F1E07B
:100830009081428155813781808922893C7F9778D8
:1008400091688160877880622160168212861386A3
:100850001486158655833783808B90834283228B41
:1008600008950E94A1030E94C0030E9416040895E7
:100870001F920F920FB60F9211242F938F939F9375
:100880008091DE2880FD06C08091DE288160809303
:10089000DE2807C08091DD28882319F081E080934D
:1008A000DD2880912D2890912E28009789F42091A1
:1008B000DE2821FD06C02091DE2822602093DE285C
:1008C00007C02091DD28222319F022E02093DD28A3
:1008D000873E23E0920711F0019602C080E090E08D
:1008E00080932D2890932E2881E0809353019F912F
:1008F0008F912F910F900FBE0F901F9018951F9200
:100900000F920FB60F9211242F933F934F935F9343
:100910006F937F938F939F93AF93BF93EF93FF93C7
:100920008DE998E20E946A0BFF91EF91BF91AF9120
:100930009F918F917F916F915F914F913F912F91F7
:100940000F900FBE0F901F9018951F920F920FB629
:100950000F9211242F933F934F935F936F937F9345
:100960008F939F93AF93BF93EF93FF938FE298E2A0
:100970000E94B60A81E080930B0AFF91EF91BF912C
:10098000AF919F918F917F916F915F914F913F9127
:100990002F910F900FBE0F901F9018950F931F93DC
:1009A000CF93DF93EC018B01019759F46F3F7F4F99
:1009B00041F48DE998E20E94320C8FE298E20E94A5
:1009C0009107CD2B59F40F3F1F4F41F48FE298E26E
:1009D0000E9409068DE998E20E944A0BDF91CF91AF
:1009E0001F910F910895CF93DF93CDB7DEB7CE5609
:1009F000D109CDBFDEBF0E943104E0E0F4E0848184
:100A0000806884832FE764E87EE121506040704075
:100A1000E1F700C0000084818F7784838FE794E83A
:100A20002EE1815090402040E1F700C000000E947C
:100A3000C00068E87AE580E00E949102CE0101964C
:100A40000E94320C80E4FE013196ADE9B8E20190DB
:100A50000D928A95E1F7CE0101960E944A0BCE01D4
:100A600001960E9491078EE6FE013196AFE2B8E250
:100A700001900D928A95E1F7CE0101960E94090638
:100A800061E08FE298E20E94B208789480E090E002
:100A90000E94E80CE12CF12C8091DE2880FF24C01C
:100AA0008091DE288E7F8093DE28E0E4F4E02481CC
:100AB00080910804982F9074892F90E0082E892F38
:100AC000000C881F990B000C881F991F880F991F15
:100AD00082959295907F9827807F9827922F9F7D6F
:100AE000892B84830E94E6008091DE2881FF7EC0EE
:100AF0008091DE288D7F8093DE2880E180934704FB
:100B0000B7010E94B3026FEFE61AF60A6AE58DE9B3
:100B100098E20E944B0BBE016F5F7F4F8DE998E218
:100B20000E94620B811105C069817A818AE00E946E
:100B3000B302C70183709927009751F428EE33E080
:100B400048E35FEF60E08FE298E20E94130711C074
:100B5000029741F448EC50E060E08FE298E20E9496
:100B6000E30607C040E050E060E08FE298E20E94B8
:100B7000E306DD24D39477E07D15C0F10E94E30CF9
:100B8000AC019C0136952795329522952F7023272D
:100B90003F702327AEE3BAE00E947D0C20E233E0F1
:100BA000BC01629FC001639F900D729F900D112444
:100BB000481B590B8A01005911400E94E30C8770B1
:100BC0009078992324F40197886F9F6F019601967E
:100BD00042E3489F9001499F300D1124A8016D2DDB
:100BE0008FE298E20E941307D394C5CF8DE998E273
:100BF0000E94C30B51CF6FEF7FEF81E090E00E9426
:100C0000CE0408956FEF7FEF80E090E00E94CE0465
:100C100008950895E0E6F4E0808180688083E0E84C
:100C2000F4E0808181608083808182608083808124
:100C300084608083808188608083E0EAF4E0808142
:100C400081608083808182608083808184608083F2
:100C500080818860808380E008951F93CF93DF9325
:100C6000E0E0FAE0808131811281D381C58126855F
:100C7000A0EEB5E014965C91149741859285817F32
:100C80008860387F9160216031831283D383C5836C
:100C9000268714965C9366A377A310A611A612A6C6
:100CA00013A614A615A680834187928780E0DF9162
:100CB000CF911F91089586E08A95F1F700C080E0FA
:100CC0000895611106C0E0E6F4E0848180688483C1
:100CD00005C0E0E6F4E084818F77848380E00895A6
:100CE000611106C0E0E0FAE080818E7F808309C058
:100CF000E0E0FAE087EA91E686A397A3808181602D
:100D0000808380E00895CF93DF93CDB7DEB72D9732
:100D1000CDBFDEBFFC011082E759FF4F1082118268
:100D200019821A821B821C8221E02D832E83188651
:100D30001F8220E02830A0F4A22FB0E0AA0FBB1F32
:100D4000AA0FBB1FAA0FBB1FA80FB91F119638E02F
:100D5000FE01319601900D923A95E1F72F5FEACFAF
:100D600019861A861B862CED35E02C873D8740E0DE
:100D70004830B0F4242F30E0D901AA0FBB1FAA0FCE
:100D8000BB1FA20FB31FA80FB91FAF5BBF4F25E05A
:100D9000FE01399601900D922A95E1F74F5FE8CF59
:100DA00080E02D96CDBFDEBFDF91CF910895FC018D
:100DB000E559FF4F2081211104C0608331964083A3
:100DC000518381E00895683038F043EA50E067E0ED
:100DD0000E94D70681E008959A0120573E4F2132A4
:100DE000334038F049EA50E067E00E94D70681E0DE
:100DF000089570E0DB01AA0FBB1FAA0FBB1FAA0F4B
:100E0000BB1FA80FB91F11962D913C911297421745
:100E1000530739F0FD014183528381E0858380E0EF
:100E2000089580E00895683038F044ED50E067E0C0
:100E30000E94D70681E00895FA01E057FE4FE132A3
:100E4000F34038F04AED50E067E00E94D70681E0B9
:100E5000089570E0FB01EE0FFF1FEE0FFF1FEE0F76
:100E6000FF1FE80FF91F0180F281E02D4E175F0789
:100E700069F0FB01EE0FFF1FEE0FFF1FEE0FFF1FCC
:100E8000E80FF91F4183528341E04583FB01EE0FD8
:100E9000FF1FEE0FFF1FEE0FFF1FE80FF91F43812B
:100EA00054814217530779F0660F771F660F771F3B
:100EB000660F771FFC01E60FF71F2383348381E061
:100EC000868380E0089580E008950F931F93CF9369
:100ED0008C010E948306C82F882331F049E151E03C
:100EE00061E0C8010E94D706C8010E940A06C82B0B
:100EF00031F040E251E062E0C8010E94D70660E0B4
:100F000070E0C8010E942D06C82B31F047E251E085
:100F100063E0C8010E94D7068C2FCF911F910F91DB
:100F200008950E94650708950F931F93062F10E000
:100F30000830110508F063C0F801E05BFF4F0C9426
:100F4000770CE0E8F4E084818E7F482B448380E0D6
:100F50005CC0E0E8F4E0848150E0440F551F8D7FD1
:100F6000482B448380E051C0E0E8F4E0848150E005
:100F7000440F551F440F551F8B7F482B448380E03F
:100F800044C0E0E8F4E0848150E0440F551F440F72
:100F9000551F440F551F877F482B448380E035C081
:100FA000E0EAF4E084818E7F482B448380E02DC00A
:100FB000E0EAF4E0848150E0440F551F8D7F482B18
:100FC000448380E022C0E0EAF4E0848150E0440FF2
:100FD000551F440F551F8B7F482B448380E015C05D
:100FE000E0EAF4E0848150E0440F551F440F551FA0
:100FF000440F551F877F482B448380E006C044E997
:1010000051E064E00E94D70681E01F910F9108959E
:10101000CF93DF93EC019B01A8EEB3E00E947D0C1F
:1010200020E233E040E050E00E94550C2E3F8FEF6D
:1010300038074105510548F0CE014CE653E066E023
:101040000E94D7068FEF9FEF01C0C901DF91CF91BA
:1010500008950F931F93CF93DF93EC01CB018C5432
:101060009440853D994440F040E953E067E0CE016B
:101070000E94D70681E02CC0E0E0FAE080818E7FFC
:10108000808300A111A1CE010E9408089C0121507B
:1010900031092E3F4FEF340740F041EA53E066E05C
:1010A000CE010E94D70681E013C00817190740F04F
:1010B00048EA53E065E0CE010E94D70681E008C00F
:1010C000E0E0FAE026A337A380818160808380E09E
:1010D000DF91CF911F910F910895BF92CF92DF9230
:1010E000EF92FF920F931F93CF93DF937C01162F04
:1010F000D42FC22EBB24B394BB2049F1CD1608F5E2
:10110000D12CD016D8F4E0E6F4E084818F77848384
:10111000C0E0C11728F4C7010E945B06CF5FF9CF7A
:1011200060E0C7010E946106C0E0CD1728F4C70146
:101130000E945B06CF5FF9CFD394E3CF1C0DDC197F
:10114000DBCF61E0C7010E946106B12CD5CF80E002
:10115000DF91CF911F910F91FF90EF90DF90CF9093
:10116000BF9008950F931F93CF93DF93EC0161110C
:1011700008C00E946106182F60E0CE010E94700630
:101180000BC002E021E044E66AE00E946D08182FDF
:1011900061E0CE010E947006812FDF91CF911F91F7
:1011A0000F9108950F931F93CF93DF938C01C0E0AD
:1011B000D0E0C83040F440E06C2FC8010E94940792
:1011C000D82BCF5FF6CF8D2FDF91CF911F910F914D
:1011D00008950F931F93CF938C0160E00E947006D7
:1011E000C82FC8010E94D208C82BC8010E948306DC
:1011F0008C2BCF911F910F910895FF920F931F9306
:10120000CF93DF93EC018A01683068F045E155E047
:1012100067E00E94D7068FEF9FEFF80180839183EC
:10122000FF24F3949CC1462F50E0FA01EE0FFF1FFC
:10123000EE0FFF1FEE0FFF1FE80FF91FF580FF20D5
:10124000B1F1FA01EE0FFF1FEE0FFF1FEE0FFF1FB0
:10125000E80FF91F818192819C0120573E4F213276
:10126000334060F047E255E068E0CE010E94D706C7
:101270008FEF9FEFF8018083918371C184529A4F61
:10128000FA01EE0FFF1FEE0FFF1FE40FF51FEC0F2B
:10129000FD1FEF5BFF4F80839183FA01EE0FFF1F6D
:1012A000EE0FFF1FEE0FFF1FEC0FFD1F1582FA015F
:1012B000EE0FFF1FEE0FFF1FEE0FFF1FEC0FFD1FC6
:1012C000F680FF2009F44CC0FA01EE0FFF1FEE0F6D
:1012D000FF1FEE0FFF1FEC0FFD1F2381348121152F
:1012E000310571F4FA01EE0FFF1FEE0FFF1FE40F3F
:1012F000F51FEC0FFD1FED5BFF4F108260E025C076
:1013000036952795ABE7B4E10E947D0C96958795BD
:101310008F3F910569F060F045E455E066E0CE014D
:101320000E94D7068FEF9FEFF8018083918317C14A
:10133000682FFA01EE0FFF1FEE0FFF1FE40FF51FDE
:10134000EC0FFD1FED5BFF4F8083FA01EE0FFF1FD7
:10135000EE0FFF1FEE0FFF1FEC0FFD1F16820CC0DC
:10136000FA01EE0FFF1FEE0FFF1FE40FF51FEC0F4A
:10137000FD1FED5BFF4F6081CA01880F991F880F29
:10138000991F840F951F8C0F9D1FFC01EF5BFF4F72
:101390002081318133968081918161113DC0281770
:1013A0003907B9F4FA013196EE0FFF1FEE0FFF1F58
:1013B000EE0FFF1FEC0FFD1F81E08083440F551FD0
:1013C000440F551F440F551FFE01E40FF51F87837F
:1013D000AEC0FA013196EE0FFF1FEE0FFF1FEE0FAA
:1013E000FF1FEC0FFD1F1082FA01EE0FFF1FEE0F23
:1013F000FF1FEE0FFF1FEC0FFD1F1782FA01EE0F0C
:10140000FF1FEE0FFF1FE40FF51FEC0FFD1FEC5B3E
:10141000FF4F208331838BC028173907C1F4FA01AD
:101420003196EE0FFF1FEE0FFF1FEE0FFF1FEC0FA9
:10143000FD1F21E02083440F551F440F551F440F0B
:10144000551FFE01E40FF51F27839C0170C0821712
:10145000930720F4F901E81BF90B03C0FC01E21B20
:10146000F30B70E0E617F70720F5FA01EE0FFF1F08
:10147000EE0FFF1FEE0FFF1FEC0FFD1F81E08783B4
:10148000FA013196EE0FFF1FEE0FFF1FEE0FFF1F49
:10149000EC0FFD1F1082FA01EE0FFF1FEE0FFF1F72
:1014A000E40FF51FEC0FFD1FEC5BFF4F2083318332
:1014B0003EC0FA01EE0FFF1FEE0FFF1FEE0FFF1FE2
:1014C000EC0FFD1F1782FA013196EE0FFF1FEE0F92
:1014D000FF1FEE0FFF1FEC0FFD1F108282179307F7
:1014E00020F49C01260F371F15C02817390720F458
:1014F0009C01261B370B0EC048EA55E068E0CE0180
:101500000E94D7068FEF9FEFF80180839183FF241D
:10151000F39425C0FA01EE0FFF1FEE0FFF1FE40F3B
:10152000F51FEC0FFD1FEC5BFF4F20833183C901DA
:101530008C5494408132934070F045EB55E068E064
:10154000CE010E94D7068FEF9FEFF8018083918331
:10155000FF24F39404C0F80120833183F12C8F2DF4
:10156000DF91CF911F910F91FF900895CF92DF925D
:10157000EF92FF920F931F93CF93DF9300D0CDB7DD
:10158000DEB77C01FC011081111105C041E0612F23
:101590000E94940716C06FEF610F673058F440E067
:1015A0000E949407082F41E0612FC7010E94940711
:1015B000802B07C0183021F440E00E94940701C03E
:1015C00081E0882321F0C7010E94E90858C0F70193
:1015D000E759FF4FC080D1801830D0F4AE014F5F83
:1015E0005F4F612FC7010E94FD0829813A81A9013F
:1015F0004C5454404132534040F04DEE51E068E0CD
:10160000C7010E94D70681E03AC0C20ED31E19C09E
:101610001830B1F490E2C9169EE4D90640F049EFC3
:1016200051E068E0C7010E94D70681E00AC020E2CD
:101630003EE42C193D0929833A83C12CD12C01C0E9
:1016400081E0882321F0C7010E94E90818C0698160
:101650007A81C7010E942908882321F0C7010E94CE
:10166000E9080DC0F701E759FF4FC082D182183059
:1016700011F01F5F01C010E0F701108380E00F90B0
:101680000F90DF91CF911F910F91FF90EF90DF901E
:10169000CF9008950895FC01A685B7858585A80F8C
:1016A000B11D8AE58C932585422F50E0838590E01B
:1016B0000197481759071CF42F5F258701C015862D
:1016C00080E00895FC0183819481FB0180839183F4
:1016D00080E00895FC016091000887819681891758
:1016E00050F0282F30E0291B310941E02F3131051E
:1016F00074F440E00CC04581282F30E0240F311DE8
:10170000291B310941E02F3131050CF440E0411132
:1017100038C0228520FD30C021602287891728F03B
:10172000482F50E0491B510907C02581482F50E040
:10173000420F511D491B5109258130E021503109CB
:1017400042175307B4F4A085B185A80FB11D6C935F
:101750002781422F50E0858190E001974817590773
:101760001CF42F5F278301C0178282858E7F8287BA
:1017700003C082858E7F82878181928101968183D9
:10178000928380E00895FC0125858485281740F028
:1017900030E0281B3109121613065CF090E012C0ED
:1017A000938530E0290F311D281B310912161306CD
:1017B00034F49091040895FD04C090E003C090E0DB
:1017C00001C091E09923C9F0A685B785482F50E064
:1017D000A40FB51F9C91238530E021503109421799
:1017E00053071CF48F5F848701C01486909302080E
:1017F0008381948101968383948380E00895FB0123
:10180000258196818781638534858F7388602C7FDD
:10181000997F906C887F83608F7C20684087518798
:10182000158616866387878334872583968380E0B1
:101830000895FC01118212821382148240968087DF
:10184000918780E28583CF01C0968687978780E164
:10185000838749E351E060E078E0CF010E94FF0B0D
:1018600080E008950E94190C0895991B79E004C046
:10187000991F961708F0961B881F7A95C9F78095CF
:101880000895AA1BBB1B51E107C0AA1FBB1FA617C7
:10189000B70710F0A61BB70B881F991F5A95A9F719
:1018A00080959095BC01CD010895A1E21A2EAA1B46
:1018B000BB1BFD010DC0AA1FBB1FEE1FFF1FA21700
:1018C000B307E407F50720F0A21BB30BE40BF50BFD
:1018D000661F771F881F991F1A9469F76095709586
:1018E000809590959B01AC01BD01CF010895EE0F4D
:1018F000FF1F0590F491E02D0994A29FB001B39FC2
:10190000C001A39F700D811D1124911DB29F700D08
:10191000811D1124911D08950E947D0CA59F900D9D
:10192000B49F900DA49F800D911D112408958F9256
:101930009F92AF92BF92CF92DF92EF92FF92CF939E
:10194000DF93EC01688179818A819B816115710542
:101950008105910521F464E279ED8BE597E02DE1B5
:1019600033EF41E050E00E94F30C49015A019B0122
:10197000AC01A7EAB1E40E948C0C6B017C01ACEED7
:10198000B4EFA50194010E94150DDC01CB018C0D73
:101990009D1DAE1DBF1DB7FF03C00197A109B04833
:1019A00088839983AA83BB839F77DF91CF91FF9030
:1019B000EF90DF90CF90BF90AF909F908F90089561
:1019C0000E94970C089580E098E20E94970C089579
:1019D000A0E0B0E08093002890930128A093022813
:1019E000B09303280895052E97FB1EF400940E94DF
:1019F0000A0D57FD07D00E94550C07FC03D04EF48A
:101A00000C940A0D50954095309521953F4F4F4FBE
:101A10005F4F089590958095709561957F4F8F4F9A
:101A20009F4F0895B7FF0C948C0C0E948C0C821B66
:101A3000930B089510E0C9E5D0E004C0FE010E94B8
:0E1A4000770C2196CA35D107C9F7F894FFCF6D
:101A4E001027E80364000A00010000CA9A3B00E177
:101A5E00F5058096980040420F00A08601001027E1
:101A6E000000E8030000640000000A00000001000E
:101A7E000000E80364000A0001004F72616E6765A2
:041A8E004861740037
:041A9200010000004F
:00000001FF
