S0260000323032322D30312D303562204154343830392055415254204472697665722E7372656344
S11300000C945A000C9482000C9482000C9482008C
S11300100C9438040C9482000C9482000C94B30465
S11300200C9482000C9482000C9482000C94820044
S11300300C9482000C9482000C9482000C94820034
S11300400C9482000C948D040C9482000C94820015
S11300500C9482000C9482000C9482000C94820014
S11300600C9482000C9482000C9482000C94820004
S11300700C9482000C9482000C9482000C948200F4
S11300800C9482000C9482000C9482000C948200E4
S11300900C9482000C9482000C9482000C948200D4
S11300A003080B081608230832083A0845085208C2
S11300B0FD05040611241FBECFEFCDBFDFE3DEBF75
S11300C018E2A0E0B8E2E6ECF5E302C005900D9278
S11300D0A630B107D9F729E2A6E0B8E201C01D9223
S11300E0A635B207E1F710E0C9E5D0E004C02197D6
S11300F0FE010E94001AC835D107C9F70E941005F5
S11301000C94A31A0C940000E0E2F4E09481907F34
S1130110282F22952F70922B948394819F7D948312
S1130120948190619483A7EEB3E01197F1F700C036
S1130130000094819F7E9483A7EEB3E01197F1F7BA
S113014000C000009481907F8F70892B8483848108
S11301508061848387EE93E00197F1F700C000008B
S113016084818F7E8483A7EEB3E01197F1F700C0FA
S113017000008FE097E20197F1F700C000000895B6
S113018082E00E94840088E20E94840081E00E9450
S113019084008CE00E94840080E0803240F4E82FE8
S11301A0F0E0E15FF74D90E290838F5FF6CF80E05F
S11301B0843038F4E82FF0E0E55FF74D10828F5F6C
S11301C0F7CF10920A28109209280895CF938091AE
S11301D00728982F9295969597709370C82FCF7192
S11301E08C2F9111AAC05C2F57706FEF70E0052E11
S11301F002C0660F771F0A94E2F79C2F9871292F8B
S113020030E0359527953595279535952795F9014E
S1130210E55FF74D40816423A1F091E001C0990F9F
S11302205A95EAF701C090E0992309F444C0292FB4
S11302302423C9F78F5F990FB9F723E62093092880
S1130240F3CF892F522F91E001C095E09530F0F45F
S1130250252F30E0F901E55FF74D40814111F5CFDD
S11302609F5F2F5F3F4F2430310514F45F5F01C05F
S113027050E0282F30E0285F3F4F2032310514F042
S1130280885101C0885F953008F31EC1E52FF0E066
S1130290E55FF74D308191E001C090E0992359F07A
S11302A0292F2323D1F7990F8F5F9111F7CF23E6DD
S11302B020930928F3CF982F9F70C1F090910828BC
S11302C096959F71891312C0E7E0F8E290819F77B9
S11302D09083E82FF0E0E15FF74D9081909306283A
S11302E0E0E2F4E024812062248318C0E7E0F8E22D
S11302F0908190689083282F207130E0220F331F63
S1130300220F331F922F9068282F2F70922B9093D7
S11303100628E0E2F4E024812F7D2483E8E0F8E27B
S1130320208121602083E0E2F4E02481207F929503
S11303309F70922B948391E0BAC0913039F4E0E23B
S1130340F4E094819061948392E0B1C0923081F49E
S1130350E0E2F4E094819F7E9483909107289923AE
S11303600CF4A2C09091082890FFA0C093E09FC015
S1130370933009F095C0209107282078E1F030915E
S1130380082830FF18C0E8E0F8E2232F2E7F2083EE
S113039030910628A0E2B4E014964C911497407F63
S11303A03F70342B14963C939C2F990F217C292B5E
S11303B0208391E07CC0222311F19091082890FDC4
S11303C01EC0E0E2F4E0948190629483A7E0B8E276
S11303D09C919F779C93A8E0B8E29C9191609C9338
S11303E0AC2FB0E0A15FB74D9C9190930628248177
S11303F0207F92959F70922B948391E058C0211195
S11304004AC09091082890FF46C0E8E0F8E29E7F39
S1130410908330910628E0E2F4E09481292F207F34
S1130420932F9F70922B9483EC2FF0E0E15FF74DB4
S11304309081391318C0EC2FE871F0E0F595E79539
S1130440F595E795F595E7959C2F977021E030E0B9
S113045002C0220F331F9A95E2F7E55FF74D20950E
S11304609081922390839091082896959F71292FCB
S113047030E02F5F3F4F2032310514F49F5F01C0FD
S113048090E0E8E0F8E29F71990F2081217C922BA3
S1130490908391E00CC093E69093092891E007C003
S11304A023E62093092803C093E001C090E0E7E02D
S11304B0F8E2292F2295220F207E90819F79922B9A
S11304C08F71907E892B8083CF910895813220F0A3
S11304D08AE0809309280895282F30E0F901E15F2C
S11304E0F74D90819617E1F0F901E15FF74D6083D4
S11304F0E82FE871F0E0F595E795F595E795F59522
S1130500E795877021E030E0A90102C0440F551F30
S11305108A95E2F7CA01E55FF74D9081892B8083C4
S113052008950F931F93CF93DF9361157105B1F075
S11305308B01D82FC0E02C2F30E02D0F311D21323C
S1130540310564F4F801EC0FF11D6081662331F08C
S11305508C2F8D0F0E946602CF5FEDCFDF91CF917C
S11305601F910F910895FF920F931F93CF93DF93E1
S1130570CDB7DEB76097CDBFDEBFF82E8B016F3FDE
S1130580710511F008F04EC084E68F838AE08887F5
S113059081E0898720E030E03330D8F5E7E0F0E00F
S11305A0EC0FFD1FE30FF11D40810417D8F0802FDD
S11305B0642F0E94BE19622F70E0643071051CF034
S11305C0198200E08BC0E1E0F0E0EC0FFD1FE20FC8
S11305D0F11D90E3980F9083489F001911242F5F19
S11305E080E015C0882311F0323089F4422F50E0A6
S11305F0443051051CF0198200E070C0E1E0F0E0E5
S1130600EC0FFD1FE20FF11D90E390832F5F3F5F1E
S1130610C3CFE1E0F0E0EC0FFD1FE20FF11D10820B
S1130620022F5CC08AE0E0E6F5E7DE011796019050
S11306300D928A95E1F781E020E030E0353008F052
S113064045C0E32FF0E0EE0FFF1F41E050E04C0FF8
S11306505D1FE40FF51F0680F781E02D0E171F07BD
S1130660F0F0C801BF010E94CA19822F90E00497DC
S11306701CF0198200E032C0A1E0B0E0AC0FBD1F55
S1130680A20FB11D80E3860F8C936E9FC0016F9FF4
S1130690900D1124081B190B2F5F80E015C08823CF
S11306A011F0343089F4422F50E0443051051CF0ED
S11306B0198200E013C0E1E0F0E0EC0FFD1FE20F4F
S11306C0F11D90E390832F5F3F5FB8CFE1E0F0E04E
S11306D0EC0FFD1FE20FF11D1082022F10E0153008
S11306E038F580910A2880FF0AC01017C0F4E1E0B1
S11306F0F0E0EC0FFD1FE10FF11D608113C0802FAE
S113070090E0810F911D853091055CF00597E1E043
S1130710F0E0EC0FFD1FE80FF91F608103C060E2F9
S113072001C060E2812F8F0D0E9466021F5FD7CF48
S11307306096CDBFDEBFDF91CF911F910F91FF90E7
S1130740089588ED84BFE0E6F0E090819C7F90837B
S113075084BF90819F77908384BF91819E7F918392
S113076084BF9181917E918384BF92819E7F928385
S113077090899260908B84BF82898068828B08956F
S1130780E0E0F4E081E8808384831286108A88E0C4
S1130790818B128A138A148A158A868B178AE0E25F
S11307A0F4E08FE3808314821286108A118A128AFD
S11307B0138A148A158A168A178AE0E4F4E080E31F
S11307C0808314821286108A118A128A138A148AE8
S11307D0158A168A178AE0E6F4E080E88083848329
S11307E01286108A118A128A138A148A158A168A22
S11307F0178AE0E8F4E081E0808314821286108A8C
S1130800118A128A138A148A158A168A178AE0EAC8
S1130810F4E08FE0808314821286108A118A128A8F
S1130820138A148A158A168A178A0895E0E4F1E077
S11308309081428155813781808922893C7F9778D4
S1130840916881608778806221601682128613869F
S11308501486158655833783808B90834283228B3D
S113086008950E94A1030E94C0030E9416040895E3
S11308701F920F920FB60F9211242F933F934F9311
S11308805F936F937F938F939F93AF93BF93EF93F4
S1130890FF938091542980FD06C080915429816082
S11308A08093542903C081E00E94090580912F2878
S11308B090913028892B69F48091542981FD06C0D8
S11308C08091542982608093542903C082E00E945D
S11308D0090580912F2890913028873E23E09207C4
S11308E011F0019602C080E090E080932F2890934D
S11308F0302881E080935301FF91EF91BF91AF9134
S11309009F918F917F916F915F914F913F912F9123
S11309100F900FBE0F901F9018951F920F920FB655
S11309200F9211242F933F934F935F936F937F9371
S11309308F939F93AF93BF93EF93FF9384E199E2D7
S11309400E944A0CFF91EF91BF91AF919F918F91BB
S11309507F916F915F914F913F912F910F900FBEB7
S11309600F901F9018951F920F920FB60F9211249B
S11309702F933F934F935F936F937F938F939F93A3
S1130980AF93BF93EF93FF9381E398E20E94180B18
S113099081E080930B0AFF91EF91BF91AF919F91FA
S11309A08F917F916F915F914F913F912F910F9014
S11309B00FBE0F901F9018950F931F93CF93DF9343
S11309C0EC018B01019779F46F3F7F4F61F484E16F
S11309D099E20E94F30C8FE998E20E94A01981E346
S11309E098E20E94F307CD2B79F40F3F1F4F61F477
S11309F081E398E20E949B068FE998E20E94F60C3C
S1130A0084E199E20E94FB0BDF91CF911F910F913A
S1130A1008959091532991118093532980E008956A
S1130A20CF93DF93CDB7DEB7CE56D109CDBFDEBFAE
S1130A300E943104E0E0F4E08481806884832FE73D
S1130A4034E88EE1215030408040E1F700C00000DE
S1130A5084818F7784839FE724E83EE1915020408E
S1130A603040E1F700C000000E94C0006AE975E769
S1130A7080E00E9491026FE975E780E10E94910293
S1130A80CE0101960E94F30C8FE3FE013196A4E19E
S1130A90B9E201900D928A95E1F7CE0101960E9488
S1130AA0FB0B8FE998E20E947C06882319F083E00F
S1130AB00E940905CE0101960E94F3078EE6FE010D
S1130AC03196A1E3B8E201900D928A95E1F7CE0147
S1130AD001960E949B0661E081E398E20E9414095A
S1130AE0789480E090E00E94711A00E010E0809118
S1130AF0542980FF24C0809154298E7F80935429E7
S1130B00E0E4F4E0248180910804982F9074892F04
S1130B1090E0082E892F000C881F990B000C881F69
S1130B20991F880F991F82959295907F9827807FAF
S1130B309827922F9F7D892B84830E94E6008091C1
S1130B40542981FF47C0809154298D7F8093542973
S1130B50E0E4F4E080E1878380E287830F5F1F4F46
S1130B609801ADECBCEC0E94061A96958795969573
S1130B70879596958795BC01660F771F880F991FF7
S1130B80880F991F880F991F860F971F281B390BF1
S1130B9060E3620F84E199E20E94FC0BBE016F5F87
S1130BA07F4F84E199E20E94120C811105C0698192
S1130BB07A8184E00E94B302BE016F5F7F4F84E1BB
S1130BC099E20E941A0C811105C069817A8184E13D
S1130BD00E94B302BE016F5F7F4F84E199E20E94DD
S1130BE0220C811105C069818FE998E20E94901757
S1130BF084E199E20E94800C7ACF6FEF7FEF81E06D
S1130C0090E00E94DC0408956FEF7FEF80E090E0B5
S1130C100E94DC0408951092552980E280934704D1
S1130C2068E584E199E20E94FC0B0895FF920F931A
S1130C301F93CF93DF9300D000D0CDB7DEB71092CF
S1130C40552960E280910428909105280E94AC0BFC
S1130C50082F813220F083E00E94090535C0BE01CF
S1130C606F5F7F4F0E94BA0BF82E66E484E199E22D
S1130C700E94FC0B10E01F1568F4E1E0F0E0EC0FBB
S1130C80FD1FE10FF11D608184E199E20E94FC0BDC
S1130C901F5FF1CF60E084E199E20E94FC0B10E059
S1130CA0101768F4E0910428F0910528E10FF11D74
S1130CB0608184E199E20E94FC0B1F5FF1CF60E048
S1130CC084E199E20E94FC0B2496CDBFDEBFDF9144
S1130CD0CF911F910F91FF9008959A011092552979
S1130CE0AB01682F81E398E20E947507882319F00D
S1130CF083E00E94090508950F931F93CF938C01FD
S1130D004BE056E064EA75E70E94450FC82F46E1C0
S1130D1056E066EA75E7C8010E94450FC82B4DE608
S1130D2056E068EA75E7C8010E94450F8C2BCF9105
S1130D301F910F9108950895E0E6F4E080818068A2
S1130D408083E0E8F4E08081816080838081826038
S1130D508083808184608083808188608083E0EAEE
S1130D60F4E08081816080838081826080838081DF
S1130D708460808380818860808380E008951F93ED
S1130D80CF93DF93E0E0FAE0808131811281D38157
S1130D90C5812685A0EEB5E014965C911497418533
S1130DA09285817F8860387F9160216031831283CE
S1130DB0D383C583268714965C9366A377A310A672
S1130DC011A612A613A614A615A68083418792879E
S1130DD080E0DF91CF911F91089586E08A95F1F725
S1130DE000C080E00895611106C0E0E6F4E084816B
S1130DF08068848305C0E0E6F4E084818F7784838F
S1130E0080E00895611106C0E0E0FAE080818E7F01
S1130E10808309C0E0E0FAE087EA91E686A397A31D
S1130E2080818160808380E00895CF93DF93CDB784
S1130E30DEB72D97CDBFDEBFFC011082E759FF4F0F
S1130E401082118219821A821B821C8221E02D8356
S1130E502E8318861F8220E02830A0F4A22FB0E051
S1130E60AA0FBB1FAA0FBB1FAA0FBB1FA80FB91F36
S1130E70119638E0FE01319601900D923A95E1F712
S1130E802F5FEACF19861A861B862CED35E02C8756
S1130E903D8740E04830B0F4242F30E0D901AA0F58
S1130EA0BB1FAA0FBB1FA20FB31FA80FB91FAF5BB5
S1130EB0BF4F25E0FE01399601900D922A95E1F786
S1130EC04F5FE8CF80E02D96CDBFDEBFDF91CF919D
S1130ED00895FC01E559FF4F2081211104C060836E
S1130EE031964083518381E00895683038F044EDB1
S1130EF050E067E00E94690781E00895FA01E05735
S1130F00FE4FE132F34038F04AED50E067E00E94D2
S1130F10690781E0089570E0FB01EE0FFF1FEE0FFB
S1130F20FF1FEE0FFF1FE80FF91F0180F281E02D74
S1130F304E175F0769F0FB01EE0FFF1FEE0FFF1F57
S1130F40EE0FFF1FE80FF91F4183528341E04583F1
S1130F50FB01EE0FFF1FEE0FFF1FEE0FFF1FE80F49
S1130F60F91F438154814217530779F0660F771FA5
S1130F70660F771F660F771FFC01E60FF71F2383A9
S1130F80348381E0868380E0089580E008950F93A0
S1130F901F93CF938C010E941507C82F882331F02B
S1130FA049E151E061E0C8010E946907C8010E945B
S1130FB09C06C82B31F040E251E062E0C8010E9477
S1130FC0690760E070E0C8010E94BF06C82B31F0D9
S1130FD047E251E063E0C8010E9469078C2FCF917A
S1130FE01F910F9108950E94C70708950F931F93AF
S1130FF0062F10E00830110508F063C0F801E05B2B
S1131000FF4F0C94001AE0E8F4E084818E7F482BB3
S1131010448380E05CC0E0E8F4E0848150E0440F65
S1131020551F8D7F482B448380E051C0E0E8F4E0F5
S1131030848150E0440F551F440F551F8B7F482B6C
S1131040448380E044C0E0E8F4E0848150E0440F4D
S1131050551F440F551F440F551F877F482B44834A
S113106080E035C0E0EAF4E084818E7F482B44833D
S113107080E02DC0E0EAF4E0848150E0440F551F85
S11310808D7F482B448380E022C0E0EAF4E0848131
S113109050E0440F551F440F551F8B7F482B44834A
S11310A080E015C0E0EAF4E0848150E0440F551F6D
S11310B0440F551F440F551F877F482B448380E0FE
S11310C006C044E951E064E00E94690781E01F9191
S11310D00F910895CF93DF93EC019B01A8EEB3E049
S11310E00E94061A20E233E040E050E00E94DE193C
S11310F02E3F8FEF38074105510548F0CE014CE6ED
S113110053E066E00E9469078FEF9FEF01C0C901B9
S1131110DF91CF9108950F931F93CF93DF93EC0149
S1131120CB018C549440853D994440F040E953E010
S113113067E0CE010E94690781E02CC0E0E0FAE09C
S113114080818E7F808300A111A1CE010E946A0854
S11311509C01215031092E3F4FEF340740F041EA02
S113116053E066E0CE010E94690781E013C00817CE
S1131170190740F048EA53E065E0CE010E94690790
S113118081E008C0E0E0FAE026A337A38081816013
S1131190808380E0DF91CF911F910F910895BF92DA
S11311A0CF92DF92EF92FF920F931F93CF93DF932F
S11311B07C01162FD42FC22EBB24B394BB2049F13B
S11311C0CD1608F5D12CD016D8F4E0E6F4E08481ED
S11311D08F778483C0E0C11728F4C7010E94ED060D
S11311E0CF5FF9CF60E0C7010E94F306C0E0CD17DE
S11311F028F4C7010E94ED06CF5FF9CFD394E3CF63
S11312001C0DDC19DBCF61E0C7010E94F306B12C91
S1131210D5CF80E0DF91CF911F910F91FF90EF9098
S1131220DF90CF90BF9008950F931F93CF93DF93D8
S1131230EC01611108C00E94F306182F60E0CE0192
S11312400E9402070BC002E021E044E66AE00E942B
S1131250CF08182F61E0CE010E940207812FDF9191
S1131260CF911F910F9108950F931F93CF93DF9305
S11312708C01C0E0D0E0C83040F440E06C2FC801DD
S11312800E94F607D82BCF5FF6CF8D2FDF91CF9139
S11312901F910F9108950F931F93CF938C0160E0DA
S11312A00E940207C82FC8010E943409C82BC80134
S11312B00E9415078C2BCF911F910F910895FF92D7
S11312C00F931F93CF93DF93EC018A01683068F08A
S11312D045E155E067E00E9469078FEF9FEFF80151
S11312E080839183FF24F3949CC1462F50E0FA013C
S11312F0EE0FFF1FEE0FFF1FEE0FFF1FE80FF91F8A
S1131300F580FF20B1F1FA01EE0FFF1FEE0FFF1F72
S1131310EE0FFF1FE80FF91F818192819C01205776
S11313203E4F2132334060F047E255E068E0CE01A1
S11313300E9469078FEF9FEFF8018083918371C149
S113134084529A4FFA01EE0FFF1FEE0FFF1FE40FB6
S1131350F51FEC0FFD1FEF5BFF4F80839183FA01B4
S1131360EE0FFF1FEE0FFF1FEE0FFF1FEC0FFD1F11
S11313701582FA01EE0FFF1FEE0FFF1FEE0FFF1F86
S1131380EC0FFD1FF680FF2009F44CC0FA01EE0FAC
S1131390FF1FEE0FFF1FEE0FFF1FEC0FFD1F23813A
S11313A034812115310571F4FA01EE0FFF1FEE0FA0
S11313B0FF1FE40FF51FEC0FFD1FED5BFF4F1082C5
S11313C060E025C036952795ABE7B4E10E94061A84
S11313D0969587958F3F910569F060F045E455E057
S11313E066E0CE010E9469078FEF9FEFF8018083CA
S11313F0918317C1682FFA01EE0FFF1FEE0FFF1F35
S1131400E40FF51FEC0FFD1FED5BFF4F8083FA0126
S1131410EE0FFF1FEE0FFF1FEE0FFF1FEC0FFD1F60
S113142016820CC0FA01EE0FFF1FEE0FFF1FE40F30
S1131430F51FEC0FFD1FED5BFF4F6081CA01880FA4
S1131440991F880F991F840F951F8C0F9D1FFC01F6
S1131450EF5BFF4F2081318133968081918161114F
S11314603DC028173907B9F4FA013196EE0FFF1F72
S1131470EE0FFF1FEE0FFF1FEC0FFD1F81E08083B7
S1131480440F551F440F551F440F551FFE01E40F11
S1131490F51F8783AEC0FA013196EE0FFF1FEE0FE2
S11314A0FF1FEE0FFF1FEC0FFD1F1082FA01EE0F5E
S11314B0FF1FEE0FFF1FEE0FFF1FEC0FFD1F178224
S11314C0FA01EE0FFF1FEE0FFF1FE40FF51FEC0FE5
S11314D0FD1FEC5BFF4F208331838BC02817390736
S11314E0C1F4FA013196EE0FFF1FEE0FFF1FEE0F4E
S11314F0FF1FEC0FFD1F21E02083440F551F440FF5
S1131500551F440F551FFE01E40FF51F27839C014F
S113151070C08217930720F4F901E81BF90B03C08C
S1131520FC01E21BF30B70E0E617F70720F5FA0164
S1131530EE0FFF1FEE0FFF1FEE0FFF1FEC0FFD1F3F
S113154081E08783FA013196EE0FFF1FEE0FFF1F34
S1131550EE0FFF1FEC0FFD1F1082FA01EE0FFF1FAD
S1131560EE0FFF1FE40FF51FEC0FFD1FEC5BFF4FA9
S1131570208331833EC0FA01EE0FFF1FEE0FFF1FE1
S1131580EE0FFF1FEC0FFD1F1782FA013196EE0FCD
S1131590FF1FEE0FFF1FEE0FFF1FEC0FFD1F10824A
S11315A08217930720F49C01260F371F15C02817B4
S11315B0390720F49C01261B370B0EC048EA55E07E
S11315C068E0CE010E9469078FEF9FEFF8018083E6
S11315D09183FF24F39425C0FA01EE0FFF1FEE0F51
S11315E0FF1FE40FF51FEC0FFD1FEC5BFF4F208383
S11315F03183C9018C5494408132934070F045EB9F
S113160055E068E0CE010E9469078FEF9FEFF80173
S113161080839183FF24F39404C0F80120833183F1
S1131620F12C8F2DDF91CF911F910F91FF90089591
S1131630CF92DF92EF92FF920F931F93CF93DF939A
S113164000D0CDB7DEB77C01FC011081111105C0BB
S113165041E0612F0E94F60716C06FEF610F6730FB
S113166058F440E00E94F607082F41E0612FC701BB
S11316700E94F607802B07C0183021F440E00E9436
S1131680F60701C081E0882321F0C7010E944B09BD
S113169058C0F701E759FF4FC080D1801830D0F40B
S11316A0AE014F5F5F4F612FC7010E945F0929811F
S11316B03A81A9014C5454404132534040F04DEE1C
S11316C051E068E0C7010E94690781E03AC0C20E98
S11316D0D31E19C01830B1F490E2C9169EE4D9069D
S11316E040F049EF51E068E0C7010E94690781E0DA
S11316F00AC020E23EE42C193D0929833A83C12C17
S1131700D12C01C081E0882321F0C7010E944B093C
S113171018C069817A81C7010E948B08882321F04F
S1131720C7010E944B090DC0F701E759FF4FC08262
S1131730D182183011F01F5F01C010E0F70110834F
S113174080E00F900F90DF91CF911F910F91FF9048
S1131750EF90DF90CF900895AC0180E0861740F4BD
S1131760FA01E80FF11D2081222311F08F5FF6CFDB
S11317708F5F0895CF93DF9300D01F92CDB7DEB76C
S1131780582FDB0184E689838AE08A8381E08B8396
S113179030E020E0233028F5E1E0F0E0EC0FFD1F1D
S11317A0E20FF11D4081541780F0852F642F0E94B1
S11317B0BE19FD01E30FF11D90E3980F9083489F3C
S11317C0501911243F5F80E00AC0882311F02230B1
S11317D031F4FD01E30FF11D90E390833F5F2F5F30
S11317E0D9CFA30FB11D1C92832F2396CDBFDEBF8B
S11317F0DF91CF9108950895FC01A585B685848570
S1131800A80FB11D6C932485422F50E0828590E08F
S11318100197481759071CF42F5F248701C01486C9
S113182080E00895FC0183819481FB01808391838E
S113183080E00895FC0181819281FB018083918382
S113184080E00895FC0187812681821302C081E033
S113185001C080E0811119C0818192810196818348
S11318609283A085B185422F50E0A40FB51F3C910F
S1131870858190E001974817590724F42F5F268348
S113188080E005C0168280E002C030E081E0FB0108
S113189030830895FC01409100088781968189175F
S11318A050F0282F30E0291B310991E02F31310508
S11318B074F490E00CC05581282F30E0250F311DC1
S11318C0291B310991E02F3131050CF490E0992363
S11318D019F01782168212C0A085B185A80FB11D18
S11318E04C932781422F50E0858190E0019748175F
S11318F059071CF42F5F278301C0178280E00895E5
S1131900FC0124858385281740F030E0281B310929
S1131910121613065CF090E012C0928530E0290F95
S1131920311D281B31091216130634F49091040852
S113193095FD04C090E003C090E001C091E09923BC
S1131940C9F0A585B685482F50E0A40FB51F9C911A
S1131950228530E021503109421753071CF48F5F70
S1131960838701C013869093020883819481019632
S11319708383948380E00895FB0125819681878188
S1131980638534858F7388602C7F997F906C887F02
S113199083608F7C2068408751871586168663870D
S11319A0878334872583968380E00895FC01118220
S11319B01282138214820F968087918780E2858336
S11319C017821682CF018F968587968780E182875A
S11319D01486138649E351E060E078E0CF010E9469
S11319E0BC0C80E008950E94D60C08950895CF920F
S11319F0DF92EF92FF92CF93DF939C01FC01EB59AE
S1131A00FF4F9081E92FE295EF7096959770D90179
S1131A10A90FB11DAA59BF4F8C916B3211F06D32D1
S1131A2069F491E06D3209F090E0F901EB59FF4F50
S1131A30808190FB80F9808380E057C1853509F46B
S1131A4053C038F4843409F4A5C0833509F474C050
S1131A503BC1833751F1853721F0843609F034C115
S1131A60E1C08E2F90E0F901E80FF91FE659FF4F0E
S1131A7040814A3108F02EC1440F542F550F550FA1
S1131A80450FF901EB59FF4F508150FD03C0640F1E
S1131A90605303C0461B642F605D820F931FFC01DB
S1131AA0E659FF4F608380E020C1F0E0E659FF4F24
S1131AB0E20FF31F90818CE0890F893108F00CC18B
S1131AC0990F892F880F880F980FD901AB59BF4FF1
S1131AD08C9180FD03C0690F605303C0961B692F6E
S1131AE0605D608380E001C1F0E0E659FF4FE20FE2
S1131AF0F31F808191818A3949E1940708F0EEC08F
S1131B00AC01440F551F880F991F880F991F880F28
S1131B10991F840F951FD901AB59BF4F2C9120FDFC
S1131B2004C0860F911DC09703C0861B9109C096FF
S1131B308083918380E0D9C0F0E0E659FF4FE20F43
S1131B40F31F80819181AC014453534F493959416A
S1131B5008F0C6C0AC01440F551F880F991F880FA9
S1131B60991F880F991F840F951FD901AB59BF4F37
S1131B702C9120FD06C070E060537109860F971FF9
S1131B8005C070E060537109861B970B80839183B5
S1131B9080E0ABC0F0E0E659FF4FE20FF31F808115
S1131BA09181A281B3818A3949E99407A40749E163
S1131BB0B40708F097C0880F991FAA1FBB1F6C01B8
S1131BC07D01CC0CDD1CEE1CFF1CCC0CDD1CEE1CC2
S1131BD0FF1C8C0D9D1DAE1DBF1DE901CB59DF4FB0
S1131BE0288120FD0DC0462F50E040535109052E99
S1131BF0000C660B770B840F951FA61FB71F0CC034
S1131C00462F50E040535109052E000C660B770B0C
S1131C10841B950BA60BB70B80839183A283B3839C
S1131C2080E063C0F0E0E659FF4FE20FF31F8081CC
S1131C309181A281B3816C017D015CECC50ED51E3E
S1131C40E51E5CE0F51E79E9C716D706E70679E1DB
S1131C50F70608F049C0880F991FAA1FBB1F6C0123
S1131C607D01CC0CDD1CEE1CFF1CCC0CDD1CEE1C21
S1131C70FF1CC80ED91EEA1EFB1ED901AB59BF4F6B
S1131C808C9180FD0CC0862F90E0C097092E000C2B
S1131C90AA0BBB0B8C0D9D1DAE1DBF1D0FC0862F47
S1131CA090E0C097092E000CAA0BBB0BA70196016C
S1131CB0281B390B4A0B5B0BDA01C9018083918322
S1131CC0A283B38380E011C0F901EC58FF4F81E097
S1131CD080830BC081E009C081E007C081E005C0BA
S1131CE081E003C081E001C081E0DF91CF91FF90EA
S1131CF0EF90DF90CF900895AC01FC01EB59FF4FBA
S1131D009081292F22952F7096959770FA01E90FEB
S1131D10F11DEA59FF4F8081853711F0833711F4A3
S1131D202F5F0BC0853511F0833511F42E5F05C08C
S1131D30843411F08436E9F42C5F293040F0FA0140
S1131D40EB59FF4F10823F9681E080830895FA019A
S1131D50EB59FF4F2295207F30813F70322B9F5FDC
S1131D609770292F220F932F917F922B908380E0DD
S1131D70089581E008958C589F4FFC016083089575
S1131D80CF93DF93EC016115710529F468E00E949B
S1131D90BB0E81E077C0FB0180819FE9980F9A31E7
S1131DA048F081548A3150F06EE0CE010E94BB0E9F
S1131DB081E068C050E0A0E091E003C050E0A0E002
S1131DC091E0292F30E0FB01E20FF31F408144230F
S1131DD009F44FC0903208F04CC0453209F047C0B6
S1131DE05F5F553030F06AE0CE010E94BB0E81E0A7
S1131DF049C0923070F022503109FB01E20FF31F09
S1131E008081853231F46BE0CE010E94BB0E81E00B
S1131E1039C09F5FFB01E90FF11D2081253589F051
S1131E2028F4243491F0233571F013C0233739F0AA
S1131E30253719F0243669F40AC0AF5F10C0AF5FCC
S1131E400EC0AE5F0CC0AE5F0AC0AC5F08C0AC5F32
S1131E5006C069E0CE010E94BB0E81E013C0A93028
S1131E6030F06CE0CE010E94BB0E81E00BC09F5F9E
S1131E70A8CF903230F06DE0CE010E94BB0E81E01D
S1131E8001C080E0DF91CF910895EF92FF920F930C
S1131E901F93CF93DF936115710519F04115510517
S1131EA039F4FC01EC58FF4F25E0208381E021C088
S1131EB0FC012081233130F0EC58FF4F26E02083D1
S1131EC081E017C07A018B01EC010E94C00E8111E0
S1131ED00FC08881E82FF0E0EE0FFF1FEC0FFD1F0D
S1131EE001831283E5AEF6AE8F5F888380E001C084
S1131EF081E0DF91CF911F910F91FF90EF900895B2
S1131F0070E0FC01E60FF71F21A52F5F660F771F16
S1131F10FC01E60FF71F0180F281E02DE20FF11DB5
S1131F203081FC01EB59FF4F208126952770DC019D
S1131F30A20FB11DAA59BF4F3C9320812E7F20834D
S1131F4022952F70353509F128F4343491F1333565
S1131F5031F147C0333771F0353721F0343609F0A9
S1131F6040C033C0FC01E20FF11DE659FF4F10825F
S1131F7080E00895E22FF0E09F0126593F4FFC01D5
S1131F80E20FF31F108280E0089530E026593F4F9E
S1131F90FC01E20FF31F1082118280E0089530E00B
S1131FA026593F4FFC01E20FF31F1082118280E09B
S1131FB0089530E026593F4FFC01E20FF31F1082D1
S1131FC011821282138280E0089530E026593F4F37
S1131FD0FC01E20FF31F108211821282138280E04F
S1131FE0089564E00E94BB0E81E00895EF92FF9291
S1131FF00F931F93CF93DF93DC01FB01EC01CB59CB
S1132000DF4F9881969597702196911103C0099599
S113201080E07FC72881253719F0233709F02AC3C8
S1132020913031F4A659BF4F8C91099580E071C766
S11320308981853719F0833709F035C1923051F41D
S1132040ED01C559DF4F6881A659BF4F8C910995A1
S113205080E05FC78A81853719F0833709F058C05B
S1132060933061F4ED01C459DF4F488121976881B1
S1132070A659BF4F8C91099580E04BC78B8185375A
S113208011F0833789F4943009F006C7ED01C35980
S1132090DF4F28812197488121976881A659BF4F36
S11320A08C91099580E035C7853511F0833591F41D
S11320B0ED01C359DF4F943009F0F0C6288139810E
S11320C02197488121976881A659BF4F8C91099522
S11320D080E01FC7843411F08436A1F4ED01C359A4
S11320E0DF4F943009F0DCC6088119812A813B81D5
S11320F02197488121976881A659BF4F8C910995F2
S113210080E007C763E0CD010E94BB0E81E001C7F8
S1132110853519F0833509F063C0AD0144595F4F2B
S1132120933059F4EA014881598121976881A6596D
S1132130BF4F8C91099580E0ECC68B81853711F0F7
S11321408337A1F4943009F0ADC6ED01C259DF4FD5
S11321502881EA0148815981ED01C559DF4F688121
S1132160A659BF4F8C91099580E0D3C6853511F0EF
S11321708335A9F4ED01C259DF4F943009F094C6B8
S113218028813981EA0148815981ED01C559DF4F20
S11321906881A659BF4F8C91099580E0BAC68434F2
S11321A011F08436B9F4ED01C259DF4F943009F0CF
S11321B07DC6088119812A813B81EA0148815981C0
S11321C0ED01C559DF4F6881A659BF4F8C91099520
S11321D080E09FC663E0CD010E94BB0E81E099C6FA
S11321E0843419F0843609F058C09D0124593F4FB6
S11321F0933069F4E901288139814A815B8121970F
S11322006881A659BF4F8C91099580E082C68B8165
S1132210853711F08337B1F4943009F049C6ED01E4
S1132220C059DF4F0881E901288139814A815B81E6
S1132230ED01C559DF4F6881A659BF4F8C910995AF
S113224080E067C6853511F08335B9F4ED01C059D6
S1132250DF4F943009F02EC608811981E9012881E5
S113226039814A815B81ED01C559DF4F6881A659E7
S1132270BF4F8C91099580E04CC6843411F08436AC
S113228031F462E0CD010E94BB0E81E042C663E0FE
S1132290CD010E94BB0E81E03CC664E0CD010E94EA
S11322A0BB0E81E036C6853519F0833509F018C1B7
S11322B0BD0165597F4F923049F4EB016881798102
S11322C0A659BF4F8C91099580E023C68A81853732
S11322D019F0833709F05CC0933069F4ED01C359F8
S11322E0DF4F4881EB0168817981A659BF4F8C91FA
S11322F0099580E00EC68B81853711F0833791F400
S1132300943009F0D9C5ED01C259DF4F28812197D6
S11323104881EB0168817981A659BF4F8C91099559
S113232080E0F7C5853511F0833599F4ED01C25984
S1132330DF4F943009F0C2C5288139812197488143
S1132340EB0168817981A659BF4F8C91099580E092
S1132350E0C5843411F08436A9F4ED01C259DF4F8D
S1132360943009F0ADC5088119812A813B812197F8
S11323704881EB0168817981A659BF4F8C910995F9
S113238080E0C7C563E0CD010E94BB0E81E0C1C5FA
S1132390853519F0833509F051C0AD0143595F4FBC
S11323A0933061F4EA0148815981EB0168817981B4
S11323B0A659BF4F8C91099580E0ABC58B818537B9
S11323C011F0833799F4943009F07CC5ED01C159BB
S11323D0DF4F2881EA0148815981EB0168817981C5
S11323E0A659BF4F8C91099580E093C5853511F0AE
S11323F08335A1F4ED01C159DF4F943009F064C570
S113240028813981EA0148815981EB016881798108
S1132410A659BF4F8C91099580E07BC5843411F097
S1132420843631F462E0CD010E94BB0E81E071C5B7
S113243063E0CD010E94BB0E81E06BC5843419F0CA
S1132440843609F047C09D0123593F4F933071F4FE
S1132450E901288139814A815B81EB0168817981B5
S1132460A659BF4F8C91099580E053C58B81853760
S113247011F08337A9F4943009F028C5ED01CF5841
S1132480DF4F0881E901288139814A815B81EB01B1
S113249068817981A659BF4F8C91099580E039C52F
S11324A0853511F0833531F462E0CD010E94BB0E15
S11324B081E02FC5843411F0843631F462E0CD011B
S11324C00E94BB0E81E025C563E0CD010E94BB0ED6
S11324D081E01FC564E0CD010E94BB0E81E019C5F7
S11324E0843419F0843609F0BFC0AD0145595F4FFB
S11324F0923059F4EA01488159816A817B81A65955
S1132500BF4F8C91099580E004C58A81853719F005
S1132510833709F053C0933079F4ED01C159DF4F8B
S11325202881EA01488159816A817B81A659BF4F7C
S11325308C91099580E0EDC48B81853711F0833748
S1132540A1F4943009F0C4C4ED01C059DF4F0881EF
S113255021972881EA01488159816A817B81A659A2
S1132560BF4F8C91099580E0D4C4853511F0833533
S1132570A9F4ED01C059DF4F943009F0ABC40881D0
S1132580198121972881EA01488159816A817B81D7
S1132590A659BF4F8C91099580E0BBC4843411F0D7
S11325A0843631F462E0CD010E94BB0E81E0B1C4F7
S11325B063E0CD010E94BB0E81E0ABC4853519F008
S11325C0833509F041C09D0121593F4F933071F487
S11325D0E90128813981EA01488159816A817B8135
S11325E0A659BF4F8C91099580E093C48B818537A0
S11325F011F08337A9F4943009F06EC4ED01CF587B
S1132600DF4F0881E90128813981EA014881598134
S11326106A817B81A659BF4F8C91099580E079C46A
S1132620853531F0833521F0843411F0843631F46A
S113263062E0CD010E94BB0E81E06BC463E0CD017A
S11326400E94BB0E81E065C4843411F0843631F4F9
S113265062E0CD010E94BB0E81E05BC464E0CD0169
S11326600E94BB0E81E055C464E0CD010E94BB0E04
S113267081E04FC4253519F0233509F08EC27D0160
S11326808AE6E80EF11C913031F4D7018D919C91CA
S1132690099580E03EC48981853719F0833709F0B4
S11326A00FC1923049F4A459BF4F6C91E70188815E
S11326B09981099580E02DC48A81853719F0833783
S11326C009F05CC0933069F4ED01C359DF4F4881D0
S11326D0A459BF4F6C91D7018D919C91099580E0CD
S11326E018C48B81853711F0833791F4943009F045
S11326F0F5C3ED01C259DF4F288121974881A459C0
S1132700BF4F6C91E70188819981099580E001C4EC
S1132710853511F0833599F4ED01C259DF4F9430BA
S113272009F0DEC32881398121974881A459BF4F1C
S11327306C91D7018D919C91099580E0EAC3843412
S113274011F08436A9F4ED01C259DF4F943009F039
S1132750C9C3088119812A813B8121974881A459E1
S1132760BF4F6C91E70188819981099580E0D1C3BD
S113277063E0CD010E94BB0E81E0CBC3853519F027
S1132780833509F051C0AD0143595F4F933061F473
S1132790EA0148815981A459BF4F6C91D7018D91A9
S11327A09C91099580E0B5C38B81853711F08337FF
S11327B099F4943009F098C3ED01C159DF4F288191
S11327C0EA0148815981A459BF4F6C91D7018D9179
S11327D09C91099580E09DC3853511F08335A1F462
S11327E0ED01C159DF4F943009F080C3288139814C
S11327F0EA0148815981A459BF4F6C91D7018D9149
S11328009C91099580E085C3843411F0843631F4B9
S113281062E0CD010E94BB0E81E07BC363E0CD0189
S11328200E94BB0E81E075C3843419F0843609F02C
S113283041C09D0123593F4F933071F4E901288130
S113284039814A815B81A459BF4F6C91D7018D9125
S11328509C91099580E05DC38B81853711F08337A6
S1132860A9F4943009F044C3ED01CF58DF4F088137
S1132870E901288139814A815B81A459BF4F6C9158
S1132880D7018D919C91099580E043C3853531F042
S1132890833521F0843411F0843631F462E0CD01C3
S11328A00E94BB0E81E035C363E0CD010E94BB0EE4
S11328B081E02FC364E0CD010E94BB0E81E029C3F7
S11328C0853519F0833509F0DEC0BD0164597F4FA9
S11328D0923049F4EB0168817981D7018D919C9103
S11328E0099580E016C38A81853719F0833709F08A
S11328F04EC0933061F4A259BF4F4C91EB016881F3
S11329007981D7018D919C91099580E002C38B81D7
S1132910853711F0833799F4943009F0EBC2ED0157
S1132920C159DF4F2881A259BF4F4C91EB016881F7
S11329307981D7018D919C91099580E0EAC2853512
S113294011F08335A1F4ED01C159DF4F943009F042
S1132950D3C228813981A259BF4F4C91EB016881C0
S11329607981D7018D919C91099580E0D2C28434FC
S113297011F0843631F462E0CD010E94BB0E81E097
S1132980C8C263E0CD010E94BB0E81E0C2C285359E
S113299019F0833509F055C0AD0142595F4F9330AA
S11329A061F4EA0148815981DB016D917C91E70171
S11329B088819981099580E0ACC28B81853711F0BB
S11329C0833791F4943009F099C2A059BF4F2C91E8
S11329D0DA014D915C91EB0168817981D7018D9188
S11329E09C91099580E095C2853511F08335C9F431
S11329F0ED01C059DF4F943071F428813981EA0127
S1132A0048815981DB016D917C91E701888199812D
S1132A10099580E07EC262E0CD010E94BB0E81E098
S1132A2078C2843411F0843631F462E0CD010E941E
S1132A30BB0E81E06EC263E0CD010E94BB0E81E05B
S1132A4068C2843411F08436C1F4ED01C259DF4FF9
S1132A50933069F4288139814A815B81DB016D916E
S1132A607C91E70188819981099580E052C262E0F6
S1132A70CD010E94BB0E81E04CC264E0CD010E94F6
S1132A80BB0E81E046C2843419F0843609F07FC05D
S1132A90AD0144595F4F923059F4DA014D915D9183
S1132AA06D917C91E70188819981099580E031C21B
S1132AB08A81853711F08337F1F5933071F4A05989
S1132AC0BF4F2C91DA014D915D916D917C91E7019D
S1132AD088819981099580E01CC28B81853711F02A
S1132AE08337A9F4943009F00BC2ED01CF58DF4FBE
S1132AF00881A059BF4F2C91DA014D915D916D91E0
S1132B007C91E70188819981099580E002C285352D
S1132B1031F0833521F0843411F0843631F462E0ED
S1132B20CD010E94BB0E81E0F4C163E0CD010E949F
S1132B30BB0E81E0EEC1853511F08335C1F4ED01A2
S1132B40C059DF4F933069F428813981DA014D91FE
S1132B505D916D917C91E70188819981099580E06F
S1132B60D8C162E0CD010E94BB0E81E0D2C18434A1
S1132B7011F0843631F462E0CD010E94BB0E81E095
S1132B80C8C164E0CD010E94BB0E81E0C2C164E013
S1132B90CD010E94BB0E81E0BCC1243419F024365F
S1132BA009F074C1BD0166597F4F913041F4DB01D6
S1132BB06D917D918D919C91099580E0AAC1898147
S1132BC0853719F0833709F0BCC0923059F4A25903
S1132BD0BF4F4C91EB01688179818A819B81099572
S1132BE080E097C18A81853719F0833709F053C093
S1132BF0933079F4ED01C159DF4F2881A259BF4FB9
S1132C004C91DB016D917D918D919C91099580E0B2
S1132C1080C18B81853711F08337A1F4943009F09A
S1132C2071C1ED01C059DF4F088121972881A25954
S1132C30BF4F4C91EB01688179818A819B81099511
S1132C4080E067C1853511F08335A9F4ED01C059E1
S1132C50DF4F943009F058C10881198121972881E8
S1132C60A259BF4F4C91DB016D917D918D919C9147
S1132C70099580E04EC1843411F0843631F462E069
S1132C80CD010E94BB0E81E044C163E0CD010E94EE
S1132C90BB0E81E03EC1853519F0833509F041C092
S1132CA09D0121593F4F933071F4E9012881398105
S1132CB0A259BF4F4C91DB016D917D918D919C91F7
S1132CC0099580E026C18B81853711F08337A9F4FB
S1132CD0943009F01BC1ED01CF58DF4F0881E901A1
S1132CE028813981A259BF4F4C91DB016D917D91AF
S1132CF08D919C91099580E00CC1853531F0833527
S1132D0021F0843411F0843631F462E0CD010E9464
S1132D10BB0E81E0FEC063E0CD010E94BB0E81E0EA
S1132D20F8C0843411F0843631F462E0CD010E949D
S1132D30BB0E81E0EEC064E0CD010E94BB0E81E0D9
S1132D40E8C0853519F0833509F07FC0AD014259DB
S1132D505F4F923059F4EA0148815981DB016D914A
S1132D607D918D919C91099580E0D3C08A818537AE
S1132D7011F08337F1F5933071F4A059BF4F2C91C2
S1132D80EA0148815981DB016D917D918D919C917E
S1132D90099580E0BEC08B81853711F08337A9F493
S1132DA0943009F0B5C0ED01CF58DF4F0881A05928
S1132DB0BF4F2C91EA0148815981DB016D917D91CE
S1132DC08D919C91099580E0A4C0853531F08335BF
S1132DD021F0843411F0843631F462E0CD010E9494
S1132DE0BB0E81E096C063E0CD010E94BB0E81E082
S1132DF090C0853511F08335C1F4ED01C059DF4F22
S1132E00933069F428813981EA0148815981DB01D1
S1132E106D917D918D919C91099580E07AC062E0DD
S1132E20CD010E94BB0E81E074C0843411F084365D
S1132E3031F462E0CD010E94BB0E81E06AC064E01F
S1132E40CD010E94BB0E81E064C0843411F084364D
S1132E50B9F4ED01C259DF4F923061F42881398110
S1132E604A815B81EB01688179818A819B81099523
S1132E7080E04FC062E0CD010E94BB0E81E049C0FA
S1132E8064E0CD010E94BB0E81E043C064E0CD014B
S1132E900E94BB0E81E03DC080E03BC080E039C0B1
S1132EA080E037C080E035C080E033C080E031C0CE
S1132EB080E02FC080E02DC080E02BC080E029C0DE
S1132EC080E027C080E025C080E023C080E021C0EE
S1132ED080E01FC080E01DC080E01BC080E019C0FE
S1132EE080E017C080E015C080E013C080E011C00E
S1132EF080E00FC080E00DC080E00BC080E009C01E
S1132F0080E007C080E005C080E003C080E001C02D
S1132F1080E0DF91CF911F910F91FF90EF90089582
S1132F20FF920F931F93CF93DF93EC01162FFC01B5
S1132F30EC58FF4F808181111082111168C0FE018D
S1132F40ED58FF4F8081823049F4CE010E947C0EFF
S1132F50882321F0FE01EE58FF4F1082FE01EE5847
S1132F60FF4FE0811E1664F580E05FEF488184170F
S1132F7008F09DC1282F30E0FE01E20FF31F91A558
S1132F809923E1F0FE01ED58FF4F6081623039F47E
S1132F909E5F61E06083FE01E20FF31F91A7220FA1
S1132FA0331FFE01E20FF31F0180F281E02DE90FD0
S1132FB0F11D9081911102C0582F842F8F5FD6CFBD
S1132FC0EE230CF076C1E0958E2F90E0DE01A80F81
S1132FD0B91F99962C91DE01AD58BF4F3C91323008
S1132FE009F42E5F880F991FDE01A80FB91F1196EF
S1132FF08D919C911297009709F45EC1DC01A20F98
S1133000B11D8C9181115BC15E2F01E070C1FE0185
S1133010ED58FF4F8081811133C08FE9810F8A31D0
S113302038F08FEB810F8A3108F04CC120E001C0E9
S113303020E08881281708F048C1822F90E0FC0125
S1133040EE0FFF1FEC0FFD1F0180F281E02D308198
S1133050131310C0FE01EE58FF4F30813F5F3083E1
S1133060FE01E80FF91F31E031A7FE01ED58FF4FD3
S1133070308304C0FE01E80FF91F11A62F5FD9CFDA
S1133080813009F0DBC080ED810F8A3028F01B32DB
S113309019F01D3209F076C0FE01EE58FF4F808111
S11330A018160CF046C0F12C00E08881F81608F0E0
S11330B00FC18F2D90E0FE01E80FF91F21A52223F7
S11330C0B1F1FC01EE0FFF1FEC0FFD1F0180F28137
S11330D0E02DE20FF11D20812532B9F482E0FE01DA
S11330E0ED58FF4F80836F2DCE010E94800F612F1A
S11330F0CE010E94F70CFE01EE58FF4FF094F082CF
S11331000F2EF4E1FF2EF02D12C0FE01E80FF91F7F
S113311011A6FE01EE58FF4F808182301CF08150D1
S1133120808305C00F2EF4E1FF2EF02D01E0F3940F
S1133130BCCF88230CF0CEC0682F6095862F90E01A
S1133140FC01EE0FFF1FEC0FFD1F0180F281E02D4B
S1133150DE01A80FB91F99968C91E80FF11D8081AB
S1133160853209F0BAC082E0FE01ED58FF4F80833A
S1133170CE010E94800F612FCE010E94F70C5FEFF9
S113318000E0B5C0FE01EE58FF4F50811516D4F58E
S113319080E000E09881891708F0A2C0282F30E071
S11331A0FE01E20FF31F91A5992351F1F901EE0FEE
S11331B0FF1FEC0FFD1F0180F281E02DE90FF11DCF
S11331C0408114130EC0FE01E20FF31F9F5F91A70D
S11331D05130B1F4FE01EE58FF4F8095808384E1B5
S11331E00FC0FE01E20FF31F11A6FE01EE58FF4FC0
S11331F0908192301CF09150908302C084E101E0F0
S11332008F5FC8CF852F809590E0FC01EE0FFF1FE4
S1133210EC0FFD1F0180F281E02DDE01A80FB91F24
S113322099962C919997E20FF11D308113135AC08E
S1133230FD012F5F21A75FEF00E059C0823009F044
S113324054C080ED810F8A3038F4612FCE010E9482
S1133250F70C5FEF00E04BC0CE010E947C0EFE0134
S1133260EE58FF4F8081809590E0FE01E80FF91F32
S113327021A52E5F21A7FC01EE0FFF1FEC0FFD1F00
S11332800180F281E02DE20FF11D3081131307C09C
S1133290FE01E80FF91F2F5F21A700E001C001E044
S11332A081E0FE01ED58FF4F80835FEF20C001E015
S11332B01EC05FEF01E01BC05FEF01E018C05FEFCD
S11332C001E015C05FEF01E012C05FEF00E00FC046
S11332D05FEF0DC05FEF00E00AC05FEF00E007C0E2
S11332E05FEF05C05FEF01E002C05FEF00E0002385
S11332F051F0FE01ED58FF4F1082319710825F3F6D
S113330011F43D971082552374F0E52FEE0FFF0B57
S1133310EC0FFD1F65AD76ADCE010E94F60FFE01E8
S1133320EB59FF4F1082CC58DF4F988181E0911107
S113333001C080E0DF91CF911F910F91FF9008951C
S1133340DC011C9290E0943160F4E92FF0E0EE0F80
S1133350FF1FEA0FFB1F1182128215AE16AE9F5F8C
S1133360F2CFFD01EE58FF4F108231961082319654
S1133370108260E0CD010E9490170895991B79E0B6
S113338004C0991F961708F0961B881F7A95C9F7F1
S113339080950895AA1BBB1B51E107C0AA1FBB1F40
S11333A0A617B70710F0A61BB70B881F991F5A95CD
S11333B0A9F780959095BC01CD010895A1E21A2E3C
S11333C0AA1BBB1BFD010DC0AA1FBB1FEE1FFF1FC5
S11333D0A217B307E407F50720F0A21BB30BE40B15
S11333E0F50B661F771F881F991F1A9469F760955C
S11333F07095809590959B01AC01BD01CF01089516
S1133400EE0FFF1F0590F491E02D0994A29FB001E7
S1133410B39FC001A39F700D811D1124911DB29F04
S1133420700D811D1124911D08950E94061AA59FF7
S1133430900DB49F900DA49F800D911D11240895AB
S11334408F929F92AF92BF92CF92DF92EF92FF92B0
S1133450CF93DF93EC01688179818A819B81611527
S113346071058105910521F464E279ED8BE597E01E
S11334702DE133EF41E050E00E947C1A49015A01EA
S11334809B01AC01A7EAB1E40E94151A6B017C010F
S1133490ACEEB4EFA50194010E949E1ADC01CB01AD
S11334A08C0D9D1DAE1DBF1DB7FF03C00197A10963
S11334B0B04888839983AA83BB839F77DF91CF9198
S11334C0FF90EF90DF90CF90BF90AF909F908F9040
S11334D008950E94201A089580E098E20E94201A1C
S11334E00895A0E0B0E08093002890930128A09371
S11334F00228B09303280895052E97FB1EF4009428
S11335000E94931A57FD07D00E94DE1907FC03D0CE
S11335104EF40C94931A50954095309521953F4F55
S11335204F4F5F4F089590958095709561957F4FAB
S11335308F4F9F4F0895B7FF0C94151A0E94151AC8
S1133540821B930B089510E0C9E5D0E004C0FE018E
S11335500E94001A2196CA35D107C9F7F894FFCF03
S11335601027E80364000A00010000CA9A3B00E146
S1133570F5058096980040420F00A08601001027B0
S11335800000E8030000640000000A0000000100DD
S11335900000E80364000A00010054583A20005275
S11335A0583A20005000460050504D25753A255396
S11335B0004F72616E6765486F742D323032322D60
S10935C030312D3037000C
S10935C601000000B175D4
S9030000FC
