S01C00004F72616E6765486174205465737420426C696E6B2E73726563BF
S11300000C9450000C9462000C9462000C946200F6
S11300100C94F7000C9462000C9462000C9462003F
S11300200C9462000C9462000C9462000C946200C4
S11300300C9462000C9462000C9462000C946200B4
S11300400C9462000C9462000C9462000C946200A4
S11300500C9462000C9462000C9462000C94620094
S11300600C9462000C9462000C9462000C94620084
S11300700C9462000C9462000C9462000C94620074
S11300800C9462000C9462000C9462000C94620064
S11300900C9462000C9462000C9462000C94620054
S11300A011241FBECFEFCDBFDFE3DEBF28E2A0E007
S11300B0B8E201C01D92A430B207E1F70E943E01EC
S11300C00C9473010C94000088ED84BFE0E6F0E02A
S11300D090819C7F908384BF90819F77908384BF1D
S11300E091819E7F918384BF9181917E918384BF0E
S11300F092819E7F928390899260908B84BF828943
S11301008068828B0895E0E0F4E010821482128605
S1130110108A118A128A138A148A158A88E0868BB7
S1130120178AE0E2F4E0108214821286108A118A9F
S1130130128A138A148A158A168A178AE0E4F4E06C
S113014080E3808314821286108A118A128A138AA9
S1130150148A158A168A178AE0E6F4E0108214825B
S11301601286108A118A128A138A148A158A168AA8
S1130170178AE0E8F4E0108214821286108A118A49
S1130180128A138A148A158A168A178AE0EAF4E016
S1130190108214821286108A118A128A138A148A8F
S11301A0158A168A178A0895E0E4F1E09081428165
S11301B055813781808922893C7F97789168816055
S11301C087788062216016821286138614861586CB
S11301D055833783808B90834283228B08950E94BA
S11301E064000E9483000E94D400789408951F92B2
S11301F00F920FB60F9211242F938F939F93809198
S1130200032880FD06C08091032881608093032821
S113021007C080910228882319F081E08093022886
S11302208091002890910128009789F42091032857
S113023021FD06C02091032822602093032807C0D3
S113024020910228222319F022E020930228873EDD
S113025023E0920711F0019602C080E090E08093C1
S113026000289093012881E0809353019F918F91FE
S11302702F910F900FBE0F901F9018950E94EF00C2
S11302808091032880FF22C0809103288E7F809371
S11302900328E0E4F4E0248180910804982F90740A
S11302A0892F90E0082E892F000C881F990B000CD1
S11302B0881F991F880F991F82959295907F982780
S11302C0807F9827922F9F7D892B84838091032898
S11302D081FFD6CF809103288D7F8093032880E10E
S10D02E080934704CDCFF894FFCFBC
S9030000FC
