S02A0000323032312D31322D31386220415434383039204F72616E676548617420536572766F2E737265635B
S11300000C945A000C9482000C9482000C9482008C
S11300100C943F040C9482000C9482000C9487048A
S11300200C9482000C9482000C9482000C94820044
S11300300C9482000C9482000C9482000C94820034
S11300400C9482000C9482000C9482000C94820024
S11300500C9482000C9482000C9482000C94820014
S11300600C9482000C9482000C9482000C94820004
S11300700C9482000C9482000C9482000C948200F4
S11300800C9482000C9482000C9482000C948200E4
S11300900C9482000C9482000C9482000C948200D4
S11300A00306080612061806210626062D06330640
S11300B07105750511241FBECFEFCDBFDFE3DEBF91
S11300C028E2A4E0B8E201C01D92AF39B207E1F71B
S11300D018E2A0E0B8E2E1E5F6E102C005900D9275
S11300E0A430B107D9F710E0C9E5D0E004C02197E6
S11300F0FE010E94550AC835D107C9F70E94B00411
S11301000C94F80A0C940000CF92DF92EF92FF92C5
S11301100F931F93CF93DF9300D01F92CDB7DEB719
S1130120A82FC0900A56D0900B56E0900C56C98266
S1130130DA82EB828E010F5F1F4F71E020E030E026
S1130140E62FF0E06F0181E0C81AD10880E3F82EB1
S1130150F801B1918F01AB17C8F08A2F6B2F0E9461
S1130160FF09622F70E06C157D0524F0FA011082FE
S113017080E022C0640F751F90E3980FFB01908309
S1130180B89FA01911242F5F70E00EC0772311F0DF
S1130190323051F4822F90E08C159D053CF7840F8A
S11301A0951FFC01F0822F5F3F5F333089F6FA011F
S11301B0E20FF11D1082822F2396CDBFDEBFDF91A7
S11301C0CF911F910F91FF90EF90DF90CF90089502
S11301D04115510519F061110C94840080E00895D3
S11301E0AF92BF92CF92DF92EF92FF920F931F9341
S11301F0CF93DF93CDB7DEB72A97CDBFDEBF7C01A7
S11302008A014115510509F465C0662309F462C0E9
S11302108FEFE816F10409F080F48E2D2A96CDBFF5
S1130220DEBFDF91CF911F910F91FF90EF90DF9090
S1130230CF90BF90AF900C94E8008AE0EDE0F6E533
S1130240DE01119601900D928A95E1F7DE01119677
S11302506D0151E020E030E0E62FF0E0319740E31B
S1130260D601AD90BD906D01EA14FB04E0F0C70126
S1130270B5010E940B0A822F90E08E179F071CF095
S1130280F801108227C0D801A80FB91F50E3560FF8
S11302905C936A9DC0016B9D900D1124E81AF90AC4
S11302A02F5F50E00EC0552311F0343051F4822FEB
S11302B090E08E179F0724F7D801A80FB91F4C931D
S11302C02F5F3F5F353061F6F801E20FF11D1082B8
S11302D0822F01C080E02A96CDBFDEBFDF91CF918F
S11302E01F910F91FF90EF90DF90CF90BF90AF9050
S11302F00895E0E2F4E09481907F282F22952F70F6
S1130300922B948394819F7D9483948190619483B0
S1130310A7EEB3E01197F1F700C0000094819F7E2F
S11303209483A7EEB3E01197F1F700C00000948125
S1130330907F8F70892B848384818061848387EE8E
S113034093E00197F1F700C0000084818F7E8483DD
S1130350A7EEB3E01197F1F700C000008FE097E239
S11303600197F1F700C00000089582E00E9479012E
S113037088E20E94790181E00E9479018CE00E9468
S11303807901EDE0F8E280E2819398E2ED32F90739
S1130390D9F71092092810920A2810920B2810926B
S11303A00C28109208281092072808958091052897
S11303B0282F229526952370982F9F71211191C083
S11303C0782F77708871282F30E043E03595279592
S11303D04A95E1F7F901E75FF74D60814FEF50E08F
S11303E0072E01C0440F0A94EAF7462391F081E0F6
S11303F001C0880F7A95EAF720910728362F382311
S113040019F02093072835C09F5F880FB9F723E6BA
S1130410F8CF94E0622F70E0FB01E75FF74D408175
S1130420442331F03091072898E0980F21E016C05A
S11304306330710514F42F5F01C020E0482F50E0B1
S11304404831510514F0885101C0885F915011F76B
S11304500895220F8F5F211101C033E6981303C062
S11304603093072806C0542F522399F3309307285A
S1130470982F292F2F70809105282223A1F03091E5
S1130480062836953F7193130EC08F778093052805
S1130490E92FF0E0E35FF74D8081809304282091F9
S11304A0240420620EC0806880930528892F8071FF
S11304B0880F880F2068822B8093042820912404BD
S11304C02F7D209324042091062821602093062860
S11304D020912404207F82958F70822B80932404A2
S11304E088C0213039F480912404806180932404ED
S11304F082E082C0223079F4809124048F7E80933C
S113050024048091052887FD76C08091062880FD0B
S113051072C080E071C02091062887FF2AC020FFA6
S113052013C02E7F20930628809124043091042840
S11305303F70807F832B80932404217C892F880F34
S1130540282B2093062855C0809124048062809330
S11305502404809105288F778093052821602093B7
S11305600628E92FF0E0E35FF74D808180930428AB
S1130570AFCF20FF3BC02E7F209306284091042854
S113058020912404207F342F3F70232B20932404B4
S1130590E92FF0E0E35FF74D2081421315C0E82F07
S11305A0E871F0E023E0F595E7952A95E1F7E75F38
S11305B0F74D877021E030E001C0220F8A95EAF7F9
S11305C020958081282320838091062886958F7129
S11305D08F3111F08F5F01C080E08F71880F2091FF
S11305E00628217C822B8093062803C083E680930F
S11305F0072881E001C083E0282F2295220F207E66
S1130600309105283078892F8F71932F922B982B56
S1130610909305280895813220F08AE0809307287A
S11306200895E82FF0E0E35FF74D90816917C1F07A
S11306306083E82FE871F0E093E0F595E7959A95EB
S1130640E1F7E75FF74D877021E030E0A90102C0D0
S1130650440F551F8A95E2F7CA019081892B808344
S11306600895EF92FF920F931F93CF93DF93611539
S11306707105C9F08B01D82FC0E0E82EF12C8C2F26
S113068090E09701280F391F2132310564F4F801F5
S1130690E80FF91F6081662331F08C2F8D0F0E94C3
S11306A00B03CF5FECCFDF91CF911F910F91FF90A0
S11306B0EF9008959F92AF92BF92CF92DF92EF9204
S11306C0FF920F931F93CF93DF93CDB7DEB7269797
S11306D0CDBFDEBF982ECB01AE014F5F5F4F65E00B
S11306E00E94F000E82E8E010F5F1F4FF12C90E066
S11306F06C01C01AD10A5C0125E0A21AB1088091EC
S1130700082880FF04C0FE1460F4F80108C0C60184
S1130710800F911F05972CF0F801EA0DFB1D6081F5
S113072001C060E2892D8F0D0E940B03F3940F5FCB
S11307301F4FF5E0FF12E3CF2696CDBFDEBFDF915A
S1130740CF911F910F91FF90EF90DF90CF90BF90CA
S1130750AF909F90089588ED84BFE0E6F0E090812B
S11307609C7F908384BF90819F77908384BF918185
S11307709E7F918384BF9181917E918384BF928176
S11307809E7F928390899260908B84BF82898068D7
S1130790828B0895E0E0F4E080E88083848312860D
S11307A0108A118A128A138A148A158A98E0968B01
S11307B0178AE0E2F4E09FE3908314821286108AA1
S11307C0118A128A138A148A158A168A178AE0E40F
S11307D0F4E090E3908314821286108A118A128ABC
S11307E0138A148A158A168A178AE0E6F4E080834D
S11307F084831286108A118A128A138A148A158AAB
S1130800168A178AE0E8F4E081E080831482128675
S1130810108A118A128A138A148A158A168A178AE8
S1130820E0EAF4E08FE0808314821286108A118A51
S1130830128A138A148A158A168A178A0895E0E49C
S1130840F1E08081428155813781908922893C7F02
S11308508778816896789162216016821286138661
S11308601486158655833783908B80834283228B2D
S113087008950E94AB030E94CA030C941F041F92A4
S11308800F920FB60F9211242F938F939F93809101
S11308909E2880FD06C080919E28816080939E28BA
S11308A007C080919D28882319F081E080939D28BA
S11308B080912D2890912E28009791F420919E28C4
S11308C021FD06C020919E28226020939E281DC0F1
S11308D020919D282223C9F022E020939D2815C051
S11308E0873E23E0920789F480E090E080932D28EE
S11308F090932E2881E0809353019F918F912F91A3
S11309000F900FBE0F901F9018950196EFCF1F9276
S11309100F920FB60F9211242F933F934F935F932F
S11309206F937F938F939F93AF93BF93EF93FF93B3
S11309308FE298E20E94670981E080930B0AFF919D
S1130940EF91BF91AF919F918F917F916F915F9143
S11309504F913F912F910F900FBE0F901F901895BC
S1130960CF93DF93CDB7DEB7CE56D109CDBFDEBF6F
S11309700E943904809104048068809304042FE762
S113098084E89EE1215080409040E1F700C00000DF
S1130990809104048F77809304042FE784E89EE118
S11309A0215080409040E1F700C000000E94B50152
S11309B067E476E580E00E943103CE0101960E944F
S11309C0A1078EE6FE013196AFE2B8E201900D92E6
S11309D08A95E1F7CE0101960E94790561E08FE2E4
S11309E098E20E94D207789480E090E00E94C60AC0
S11309F000E010E040E1E42E58E0A52EB12C62E3C3
S1130A00562E70E2672E73E0772E80919E2880FF29
S1130A101AC080919E288E7F80939E282091440442
S1130A208091080486FBCC24C0F8D12CC60135E0A3
S1130A30880F991F3A95E1F7922F9F7D892B809318
S1130A4044040E94D60180919E2881FFDECF8091CC
S1130A509E288D7F80939E28E0924704B80180E110
S1130A600E945A030F5F1F4FC80183709927009794
S1130A7061F428EE33E048E35FEF60E08FE298E250
S1130A800E94AF05FF24F3940DC0029719F448ECBB
S1130A9050E002C040E050E060E08FE298E20E9443
S1130AA07A05F0CF0E94C10A4C010E94C10AB50127
S1130AB00E941F0A0196589E9001599E300D1124E0
S1130AC0C401B3010E940B0AAC01405951406F2D7F
S1130AD08FE298E20E94AF05F39428E0F212E2CF8D
S1130AE094CF8FE298E20C94A1078FE298E20C94E1
S1130AF079050895683060F0FC01E559FF4F2081C5
S1130B00211129C027E02083319626E432E011C068
S1130B109A0120573E4FFC012132334068F0E559D9
S1130B20FF4F2081211117C027E0208331962CE448
S1130B3032E0208331830FC028E0629FE00DF11D75
S1130B401124818192814817590739F041835283D6
S1130B5081E0858302C081E0089580E008956830D3
S1130B6060F0FC01E559FF4F208121113BC027E0D3
S1130B702083319627E732E011C0FA01E057FE4F97
S1130B80E132F34070F0FC01E559FF4F208121115F
S1130B9029C027E0208331962DE732E0208331837A
S1130BA021C078E0679FF0011124DC01AE0FBF1F64
S1130BB011966D917C9112974617570739F011964B
S1130BC04D935C93129741E015964C93E80FF91FEF
S1130BD0838194818217930739F02383348381E0DE
S1130BE0868302C081E0089580E008959C01942FDB
S1130BF0462F50E04830510508F042C0FA01E05B4E
S1130C00FF4F0C94550A409184044E7F492B07C032
S1130C1040918404842F8D7F492F440F482B4093A7
S1130C2084042CC040918404842F8B7F24E005C06D
S1130C3040918404842F877F28E0929FA00111248F
S1130C40EDCF4091A4044E7F492B16C04091A404DB
S1130C50842F8D7F492F440F0EC04091A404842F0C
S1130C608B7F24E005C04091A404842F877F28E073
S1130C70929FA0011124482B4093A40480E008957E
S1130C80F901E559FF4F8081811107C084E0808319
S1130C90319687E393E08083918381E00895E0E6D1
S1130CA0F4E0808180688083E0E8F4E08081816002
S1130CB0808380818260808380818460808380815E
S1130CC088608083E0EAF4E08081816080838081B1
S1130CD08260808380818460808380818860808357
S1130CE080E008951F93CF93DF93E0E0FAE08081E2
S1130CF031811281D381C5812685A0EEB5E0149699
S1130D005C91149741859285817F8860387F9160DA
S1130D10216031831283D383C583268714965C9321
S1130D2066A377A310A611A612A613A614A615A649
S1130D3080834187928780E0DF91CF911F9108954E
S1130D40CF93DF93EC019B01A8EEB3E00E945B0A12
S1130D5020E233E040E050E00E94330A2E3F8FEF60
S1130D6038074105510578F0FE01E559FF4F8081B0
S1130D7081110BC086E08083C459DF4F8FE095E07A
S1130D808883998302C0C90102C08FEF9FEFDF916E
S1130D90CF9108950F931F93CF93DF939B012C540E
S1130DA03440253D394488F0FC01E559FF4F20814A
S1130DB0211109C027E02083EC01C459DF4F83E3EC
S1130DC095E08883998381E03BC0EC018091000A1F
S1130DD08E7F8093000A0091200A1091210ACE018F
S1130DE00E94A0069C01215031092E3F4FEF340789
S1130DF068F0FE01E559FF4F80818111E4CF86E060
S1130E008083C459DF4F84E495E0DBCF08171907CA
S1130E1068F0FE01E559FF4F80818111D4CF85E050
S1130E208083C459DF4F8BE495E0CBCF2093260A0F
S1130E303093270A8091000A81608093000A80E041
S1130E40DF91CF911F910F910895611104C080919A
S1130E50000A8E7F09C087EA91E68093260A909360
S1130E60270A8091000A81608093000A80E0089537
S1130E70FC011082DC01A759BF4F1D921C921197EF
S1130E80AC01405C5F4F21E0118212821382148214
S1130E9025832683178210863896E417F507A1F771
S1130EA0FC01EF5BFF4F8CED95E010821182128202
S1130EB0838394833596EA17FB07B9F780E0089596
S1130EC01F93CF93DF93EC010E943807182F8823D8
S1130ED069F0FE01E559FF4F8081811107C081E06F
S1130EE080838CEB92E0319680839183CE010E94C3
S1130EF04F06182B69F0FE01E559FF4F80818111DF
S1130F0007C082E0808383EC92E0319680839183F2
S1130F1060E070E0CE010E947206812B71F0FE0148
S1130F20E559FF4F9081911108C093E09083C45913
S1130F30DF4F2AEC32E028833983DF91CF911F9170
S1130F4008950C9460070F93241720F580E0801710
S1130F50F1F0909164049F779093640490E0961765
S1130F6031F036E03A95F1F700C09F5FF8CF9091E9
S1130F70640490689093640490E0941731F036E030
S1130F803A95F1F700C09F5FF8CF8F5FE0CF620F13
S1130F90421BDACF809164048F778093640480E0ED
S1130FA00F9108950F931F93CF93DF9361110CC09A
S1130FB0809164048068809364048091000A8E7F29
S1130FC08093000A10E00CC0EC0102E021E044E64A
S1130FD06AE00E94A307182F61E0CE010E94250752
S1130FE0812FDF91CF911F910F9108950F931F933C
S1130FF0CF93DF938C01C0E0D0E040E06C2FC801B8
S11310000E94F605D82BCF5FC830B9F78D2FDF913A
S1131010CF911F910F9108951F93CF93DF93EC010C
S1131020E0E0FAE080818E7F8083CE010E94F607A3
S1131030182FCE010E943807812BDF91CF911F9189
S11310400895CF92DF92EF92FF920F931F93CF9365
S1131050DF939C016A016830A0F0FC01E559FF4F61
S11310608081811107C087E08083319688EB96E008
S1131070808391838FEF9FEFD6018D939C9381E0C2
S11310801DC1062F10E0F80183E0EE0FFF1F8A95C3
S1131090E1F7A9014E0F5F1FEA018D81882329F131
S11310A089819A81BC0160577E4F6132734060F040
S11310B0F901E559FF4F80818111DCCF88E08083FD
S11310C031968AEC96E0D4CF65E0609FD001619FB1
S11310D0B00D1124A20FB31FAF5BBF4F84529A4FC0
S11310E08D939C93DA0115961C92D901AE0FBF1F04
S11310F016968C9116978823C9F113968D919C911D
S11311001497009769F485E0809FD001819FB00D0A
S11311101124A20FB31FAD5BBF4F1C9270E020C01F
S113112062E370E00E940B0A6F3F710569F060F0A2
S1131130F901E559FF4F808181119CCF86E08083BE
S1131140319688EE96E094CF762F85E0809FD0018B
S1131150819FB00D1124A20FB31FAD5BBF4F6C93E1
S1131160D901AE0FBF1F16961C920BC085E0809F5D
S1131170D001819FB00D1124A20FB31FAD5BBF4FEF
S11311807C9185E0809F7001819FF00C1124E20E18
S1131190F31ED701AF5BBF4F0D90BC91A02DC4E4EB
S11311A0EC0EF11CE70148815981C80101967111C7
S11311B011C0D3E0880F991FDA95E1F7820F931FCE
S11311C0A417B50789F0EC011882E20FF31F178208
S11311D0F7015CC0A417B50771F4C3E0880F991F29
S11311E0CA95E1F7820F931F41E0EC014883E20FB7
S11311F0F31F47834DC04A175B0720F47D01E41AAF
S1131200F50A03C07A01EA1AFB0A672F70E0E20FBD
S1131210F31FE616F70660F441E04783F3E0880F16
S1131220991FFA95E1F7F901E80FF91F108224C01C
S11312301782E3E0880F991FEA95E1F7F901E80FB7
S1131240F91F10824A175B0720F4DA01A60FB71FB3
S113125013C0A417B50720F4DA01A61BB70B0CC002
S1131260F901E559FF4F8081811104CF88E0808323
S113127031968BE497E0FCCE85E0809FF001819F5E
S1131280F00D1124E20FF31FEC5BFF4FA083B18339
S1131290CD018C5494408132934060F0F901E559BA
S11312A0FF4F80818111E6CE88E08083319688E506
S11312B097E0DECEF601A083B18380E0DF91CF9189
S11312C01F910F91FF90EF90DF90CF900895CF92F0
S11312D0DF92FF920F931F93CF93DF9300D0CDB78C
S11312E0DEB78C01FC01F080F11005C041E060E044
S11312F00E94F6050FC06FEF6F0D673070F440E089
S11313000E94F605D82E41E06F2DC8010E94F60513
S1131310D11068C0882351F065C0F8E0FF1262C0A4
S113132040E00E94F605882341F15CC0F801E759CA
S1131330FF4FC080D180AE014F5F5F4F6F2DC8015A
S11313400E94210829813A81A9014C545440413218
S1131350534070F0F801E559FF4F8081811134C08A
S113136088E08083319680E993E0808391832CC068
S1131370C20ED31E882391F035C0F801E759FF4F00
S1131380208131812032FEE43F0700F580E29EE4B3
S1131390821B930B89839A83C12CD12C69817A8116
S11313A0C8010E94CA0681111DC0F801E759FF4F08
S11313B0C082D182E8E0FE1611F0F39401C0F12C52
S11313C0F801F08280E011C081E00FC0F801E55916
S11313D0FF4F8081811106C0F0828CE993E0319641
S11313E080839183C8010E940C080F900F90DF91B5
S11313F0CF911F910F91FF90DF90CF900895991B8B
S113140079E004C0991F961708F0961B881F7A95F7
S1131410C9F780950895AA1BBB1B51E107C0AA1FF9
S1131420BB1FA617B70710F0A61BB70B881F991F81
S11314305A95A9F780959095BC01CD01089597FB25
S1131440072E16F4009407D077FD09D00E940B0AEA
S113145007FC05D03EF4909581959F4F08957095B3
S113146061957F4F0895A1E21A2EAA1BBB1BFD01B3
S11314700DC0AA1FBB1FEE1FFF1FA217B307E4076F
S1131480F50720F0A21BB30BE40BF50B661F771FC7
S1131490881F991F1A9469F76095709580959095A7
S11314A09B01AC01BD01CF010895EE0FFF1F059014
S11314B0F491E02D0994A29FB001B39FC001A39FB2
S11314C0700D811D1124911DB29F700D811D112479
S11314D0911D08950E945B0AA59F900DB49F900DE5
S11314E0A49F800D911D112408958F929F92AF9215
S11314F0BF92CF92DF92EF92FF92CF93DF93EC01F2
S1131500688179818A819B816115710581059105C5
S113151021F464E279ED8BE597E02DE133EF41E0CE
S113152050E00E94D10A49015A019B01AC01A7EA8B
S1131530B1E40E946A0A6B017C01ACEEB4EFA50130
S113154094010E94F30ADC01CB018C0D9D1DAE1D9C
S1131550BF1DB7FF03C00197A109B04888839983D1
S1131560AA83BB839F77DF91CF91FF90EF90DF90A9
S1131570CF90BF90AF909F908F9008950E94750A6E
S1131580089580E098E20E94750A0895A0E0B0E012
S11315908093002890930128A0930228B0930328F5
S11315A00895052E97FB1EF400940E94E80A57FD47
S11315B007D00E94330A07FC03D04EF40C94E80AC7
S11315C050954095309521953F4F4F4F5F4F08956B
S11315D090958095709561957F4F8F4F9F4F08959B
S11315E0B7FF0C946A0A0E946A0A821B930B08953F
S11315F010E0C9E5D0E004C0FE010E94550A21961E
S10D1600CA35D107C9F7F894FFCFEB
S113160A640A011027E80364000A00010000CA9A68
S113161A3B00E1F5058096980040420F00A0860140
S113162A0010270000E8030000640000000A00001C
S113163A0001000000E80364000A0001004F72611F
S10A164A6E6765486174003E
S10716510100000090
S9030000FC
