S0270000323032312D31322D313920415434383039204F72616E6765486174204C43442E73726563FB
S11300000C9450000C9462000C9462000C946200F6
S11300100C941F040C9462000C9462000C94620013
S11300200C9462000C9462000C9462000C946200C4
S11300300C9462000C9462000C9462000C946200B4
S11300400C9462000C9462000C9462000C946200A4
S11300500C9462000C9462000C9462000C94620094
S11300600C9462000C9462000C9462000C94620084
S11300700C9462000C9462000C9462000C94620074
S11300800C9462000C9462000C9462000C94620064
S11300900C9462000C9462000C9462000C94620054
S11300A011241FBECFEFCDBFDFE3DEBF28E2A0E007
S11300B0B8E201C01D92AD32B207E1F70E946704B5
S11300C00C94DF040C940000CF92DF92EF92FF9225
S11300D00F931F93CF93DF9300D01F92CDB7DEB75A
S11300E0A82FC090C249D090C349E090C449C982A6
S11300F0DA82EB828E010F5F1F4F71E020E030E067
S1130100E62FF0E06F0181E0C81AD10880E3F82EF1
S1130110F801B1918F01AB17C8F08A2F6B2F0E94A1
S1130120BF04622F70E06C157D0524F0FA01108283
S113013080E022C0640F751F90E3980FFB01908349
S1130140B89FA01911242F5F70E00EC0772311F01F
S1130150323051F4822F90E08C159D053CF7840FCA
S1130160951FFC01F0822F5F3F5F333089F6FA015F
S1130170E20FF11D1082822F2396CDBFDEBFDF91E7
S1130180CF911F910F91FF90EF90DF90CF90089542
S11301904115510519F061110C94640080E0089533
S11301A0AF92BF92CF92DF92EF92FF920F931F9381
S11301B0CF93DF93CDB7DEB72A97CDBFDEBF7C01E7
S11301C08A014115510509F465C0662309F462C02A
S11301D08FEFE816F10409F080F48E2D2A96CDBF36
S11301E0DEBFDF91CF911F910F91FF90EF90DF90D1
S11301F0CF90BF90AF900C94C8008AE0E5ECF9E48E
S1130200DE01119601900D928A95E1F7DE011196B7
S11302106D0151E020E030E0E62FF0E0319740E35B
S1130220D601AD90BD906D01EA14FB04E0F0C70166
S1130230B5010E94CB04822F90E08E179F071CF01B
S1130240F801108227C0D801A80FB91F50E3560F38
S11302505C936A9DC0016B9D900D1124E81AF90A04
S11302602F5F50E00EC0552311F0343051F4822F2B
S113027090E08E179F0724F7D801A80FB91F4C935D
S11302802F5F3F5F353061F6F801E20FF11D1082F8
S1130290822F01C080E02A96CDBFDEBFDF91CF91CF
S11302A01F910F91FF90EF90DF90CF90BF90AF9090
S11302B00895E0E2F4E09481907F282F22952F7036
S11302C0922B948394819F7D9483948190619483F1
S11302D0A7EEB3E01197F1F700C0000094819F7E70
S11302E09483A7EEB3E01197F1F700C00000948166
S11302F0907F8F70892B848384818061848387EECF
S113030093E00197F1F700C0000084818F7E84831D
S1130310A7EEB3E01197F1F700C000008FE097E279
S11303200197F1F700C00000089582E00E9459018E
S113033088E20E94590181E00E9459018CE00E94E8
S11303405901E9E0F8E280E2819398E2E932F907A1
S1130350D9F71092052810920628109207281092B7
S113036008281092042810920328089580910128E7
S1130370282F229526952370982F9F71211191C0C3
S1130380782F77708871282F30E043E035952795D2
S11303904A95E1F7F901EB5FF74D60814FEF50E0CB
S11303A0072E01C0440F0A94EAF7462391F081E036
S11303B001C0880F7A95EAF720910328362F382355
S11303C019F02093032835C09F5F880FB9F723E6FF
S11303D0F8CF94E0622F70E0FB01EB5FF74D4081B2
S11303E0442331F03091032898E0980F21E016C09F
S11303F06330710514F42F5F01C020E0482F50E0F2
S11304004831510514F0885101C0885F915011F7AB
S11304100895220F8F5F211101C033E6981303C0A2
S11304203093032806C0542F522399F330930328A2
S1130430982F292F2F70809101282223A1F0309129
S1130440022836953F7193130EC08F77809301284D
S1130450E92FF0E0E75FF74D808180930028209139
S1130460240420620EC0806880930128892F807143
S1130470880F880F2068822B809300282091240401
S11304802F7D2093240420910228216020930228A8
S113049020912404207F82958F70822B80932404E2
S11304A088C0213039F4809124048061809324042D
S11304B082E082C0223079F4809124048F7E80937C
S11304C024048091012887FD76C08091022880FD54
S11304D072C080E071C02091022887FF2AC020FFEB
S11304E013C02E7F20930228809124043091002889
S11304F03F70807F832B80932404217C892F880F75
S1130500282B2093022855C0809124048062809374
S11305102404809101288F778093012821602093FF
S11305200228E92FF0E0E75FF74D808180930028EF
S1130530AFCF20FF3BC02E7F20930228409100289C
S113054020912404207F342F3F70232B20932404F4
S1130550E92FF0E0E75FF74D2081421315C0E82F43
S1130560E871F0E023E0F595E7952A95E1F7EB5F74
S1130570F74D877021E030E001C0220F8A95EAF739
S113058020958081282320838091022886958F716D
S11305908F3111F08F5F01C080E08F71880F20913F
S11305A00228217C822B8093022803C083E6809357
S11305B0032881E001C083E0282F2295220F207EAA
S11305C0309101283078892F8F71932F922B982B9B
S11305D0909301280895813220F08AE080930328C3
S11305E00895E82FF0E0E75FF74D90816917C1F0B7
S11305F06083E82FE871F0E093E0F595E7959A952C
S1130600E1F7EB5FF74D877021E030E0A90102C00C
S1130610440F551F8A95E2F7CA019081892B808384
S11306200895EF92FF920F931F93CF93DF93611579
S11306307105C9F08B01D82FC0E0E82EF12C8C2F66
S113064090E09701280F391F2132310564F4F80135
S1130650E80FF91F6081662331F08C2F8D0F0E9403
S1130660EB02CF5FECCFDF91CF911F910F91FF9001
S1130670EF9008959F92AF92BF92CF92DF92EF9244
S1130680FF920F931F93CF93DF93CDB7DEB72697D7
S1130690CDBFDEBF982ECB01AE014F5F5F4F65E04B
S11306A00E94D000E82E8E010F5F1F4FF12C90E0C6
S11306B06C01C01AD10A5C0125E0A21AB10880912C
S11306C0042880FF04C0FE1460F4F80108C0C601C9
S11306D0800F911F05972CF0F801EA0DFB1D608136
S11306E001C060E2892D8F0D0E94EB02F3940F5F2D
S11306F01F4FF5E0FF12E3CF2696CDBFDEBFDF919B
S1130700CF911F910F91FF90EF90DF90CF90BF900A
S1130710AF909F90089588ED84BFE0E6F0E090816B
S11307209C7F908384BF90819F77908384BF9181C5
S11307309E7F918384BF9181917E918384BF9281B6
S11307409E7F928390899260908B84BF8289806817
S1130750828B0895E0E0F4E080E88083848312864D
S1130760108A118A128A138A148A158A88E0868B61
S1130770178AE0E2F4E08FE3808314821286108A01
S1130780118A128A138A148A158A168A178AE0E44F
S1130790F4E080E3808314821286108A118A128A1C
S11307A0138A148A158A168A178AE0E6F4E01082FE
S11307B014821286108A118A128A138A148A158A5C
S11307C0168A178AE0E8F4E0108214821286108AEE
S11307D0118A128A138A148A158A168A178AE0EAF9
S11307E0F4E0108214821286108A118A128A138A03
S11307F0148A158A168A178A0895E0E4F1E0808144
S1130800428155813781908922893C7F877881682C
S11308109678916221601682128613861486158654
S113082055833783908B80834283228B08950E9463
S11308308B030E94AA030E94FD03789408951F92DB
S11308400F920FB60F9211242F938F939F93809141
S11308502C2880FD06C080912C28816080932C2850
S113086007C080912B28882319F081E080932B28DE
S11308708091292890912A28009791F420912C287E
S113088021FD06C020912C28226020932C281DC015
S113089020912B282223C9F022E020932B2815C075
S11308A0873E23E0920789F480E090E08093292832
S11308B090932A2881E0809353019F918F912F91E7
S11308C00F900FBE0F901F9018950196EFCF0E94C6
S11308D01704809104048068809304042FE784E85B
S11308E09EE1215080409040E1F700C000008091DB
S11308F004048F77809304042FE784E89EE1215059
S113090080409040E1F700C000000E9495016FEF25
S113091079E480E00E941103C0E0D0E040E1F42ECD
S113092080912C2880FF1AC080912C288E7F809380
S11309302C28209144048091080486FB002700F9A8
S113094010E0C80135E0880F991F3A95E1F7922F1E
S11309509F7D892B809344040E94B60180912C28AA
S113096081FFDECF80912C288D7F80932C28F092FC
S11309704704BE0180E10E943A032196D1CF991B1E
S113098079E004C0991F961708F0961B881F7A9582
S1130990C9F780950895AA1BBB1B51E107C0AA1F84
S11309A0BB1FA617B70710F0A61BB70B881F991F0C
S11309B05A95A9F780959095BC01CD010895F894B6
S10509C0FFCF63
S11309C2640A011027E80364000A00010000CA9ABD
S11309D23B00E1F5058096980040420F00A0860195
S11309E20010270000E8030000640000000A000071
S11309F20001000000E80364000A0001004F726174
S10A0A026E67654861740092
S9030000FC
