:100000000C945A000C9482000C9482000C94820090
:100010000C9440040C9482000C9482000C94BB0459
:100020000C9482000C9482000C9482000C94820048
:100030000C9482000C9482000C9482000C94820038
:100040000C9482000C9495040C9482000C94820011
:100050000C9482000C9482000C9482000C94820018
:100060000C9482000C9482000C9482000C94820008
:100070000C9482000C9482000C9482000C948200F8
:100080000C9482000C9482000C9482000C948200E8
:100090000C9482000C9482000C9482000C948200D8
:1000A000C306C806D206D806E106E606ED06F30644
:1000B000BD05C90511241FBECFEFCDBFDFE3DEBFF5
:1000C00018E2A0E0B8E2E7EFFFE202C005900D926F
:1000D000A630B107D9F729E2A6E0B8E201C01D9227
:1000E000A635B207E1F710E0C9E5D0E004C02197DA
:1000F000FE010E94FB16C835D107C9F70E94EB0428
:100100000C949E170C940000CF92DF92EF92FF9216
:100110000F931F93CF93DF9300D01F92CDB7DEB71D
:10012000A82FC090566FD090576FE090586FC9823B
:10013000DA82EB828E010F5F1F4F71E020E030E02A
:10014000E62FF0E06F0181E0C81AD10880E3F82EB5
:10015000F801B1918F01AB17C8F08A2F6B2F0E9465
:10016000B916622F70E06C157D0524F0FA0110823B
:1001700080E022C0640F751F90E3980FFB0190830D
:10018000B89FA01911242F5F70E00EC0772311F0E3
:10019000323051F4822F90E08C159D053CF7840F8E
:1001A000951FFC01F0822F5F3F5F333089F6FA0123
:1001B000E20FF11D1082822F2396CDBFDEBFDF91AB
:1001C000CF911F910F91FF90EF90DF90CF90089506
:1001D0004115510519F061110C94840080E00895D7
:1001E000AF92BF92CF92DF92EF92FF920F931F9345
:1001F000CF93DF93CDB7DEB72A97CDBFDEBF7C01AB
:100200008A014115510509F465C0662309F462C0ED
:100210008FEFE816F10409F080F48E2D2A96CDBFF9
:10022000DEBFDF91CF911F910F91FF90EF90DF9094
:10023000CF90BF90AF900C94E8008AE0E9E5FFE62C
:10024000DE01119601900D928A95E1F7DE0111967B
:100250006D0151E020E030E0E62FF0E0319740E31F
:10026000D601AD90BD906D01EA14FB04E0F0C7012A
:10027000B5010E94C516822F90E08E179F071CF0D3
:10028000F801108227C0D801A80FB91F50E3560FFC
:100290005C936A9DC0016B9D900D1124E81AF90AC8
:1002A0002F5F50E00EC0552311F0343051F4822FEF
:1002B00090E08E179F0724F7D801A80FB91F4C9321
:1002C0002F5F3F5F353061F6F801E20FF11D1082BC
:1002D000822F01C080E02A96CDBFDEBFDF91CF9193
:1002E0001F910F91FF90EF90DF90CF90BF90AF9054
:1002F0000895E0E2F4E09481907F282F22952F70FA
:10030000922B948394819F7D9483948190619483B4
:10031000A7EEB3E01197F1F700C0000094819F7E33
:100320009483A7EEB3E01197F1F700C00000948129
:10033000907F8F70892B848384818061848387EE92
:1003400093E00197F1F700C0000084818F7E8483E1
:10035000A7EEB3E01197F1F700C000008FE097E23D
:100360000197F1F700C00000089582E00E94790132
:1003700088E20E94790181E00E9479018CE00E946C
:100380007901EFE0F8E280E2819398E2EF32F90739
:10039000D9F710920B2810920C2810920D28109269
:1003A0000E2810920A281092092808958091072893
:1003B000282F229526952370982F9F71211191C087
:1003C000782F77708871282F30E043E03595279596
:1003D0004A95E1F7F901E55FF74D60814FEF50E095
:1003E000072E01C0440F0A94EAF7462391F081E0FA
:1003F00001C0880F7A95EAF720910928362F382313
:1004000019F02093092835C09F5F880FB9F723E6BC
:10041000F8CF94E0622F70E0FB01E55FF74D40817B
:10042000442331F03091092898E0980F21E016C05C
:100430006330710514F42F5F01C020E0482F50E0B5
:100440004831510514F0885101C0885F915011F76F
:100450000895220F8F5F211101C033E6981303C066
:100460003093092806C0542F522399F3309309285A
:10047000982F292F2F70809107282223A1F03091E7
:10048000082836953F7193130EC08F778093072805
:10049000E92FF0E0E15FF74D8081809306282091FD
:1004A000240420620EC0806880930728892F807101
:1004B000880F880F2068822B8093062820912404BF
:1004C0002F7D209324042091082821602093082860
:1004D00020912404207F82958F70822B80932404A6
:1004E00088C0213039F480912404806180932404F1
:1004F00082E082C0223079F4809124048F7E809340
:1005000024048091072887FD76C08091082880FD0B
:1005100072C080E071C02091082887FF2AC020FFA8
:1005200013C02E7F20930828809124043091062840
:100530003F70807F832B80932404217C892F880F38
:10054000282B2093082855C0809124048062809332
:100550002404809107288F778093072821602093B7
:100560000828E92FF0E0E15FF74D808180930628AD
:10057000AFCF20FF3BC02E7F209308284091062854
:1005800020912404207F342F3F70232B20932404B8
:10059000E92FF0E0E15FF74D2081421315C0E82F0D
:1005A000E871F0E023E0F595E7952A95E1F7E55F3E
:1005B000F74D877021E030E001C0220F8A95EAF7FD
:1005C00020958081282320838091082886958F712B
:1005D0008F3111F08F5F01C080E08F71880F209103
:1005E0000828217C822B8093082803C083E680930F
:1005F000092881E001C083E0282F2295220F207E68
:10060000309107283078892F8F71932F922B982B58
:10061000909307280895813220F08AE0809309287A
:100620000895E82FF0E0E15FF74D90816917C1F080
:100630006083E82FE871F0E093E0F595E7959A95EF
:10064000E1F7E55FF74D877021E030E0A90102C0D6
:10065000440F551F8A95E2F7CA019081892B808348
:100660000895EF92FF920F931F93CF93DF9361153D
:100670007105C9F08B01D82FC0E0E82EF12C8C2F2A
:1006800090E09701280F391F2132310564F4F801F9
:10069000E80FF91F6081662331F08C2F8D0F0E94C7
:1006A0000B03CF5FECCFDF91CF911F910F91FF90A4
:1006B000EF9008959F92AF92BF92CF92DF92EF9208
:1006C000FF920F931F93CF93DF93CDB7DEB726979B
:1006D000CDBFDEBF982ECB01AE014F5F5F4F65E00F
:1006E0000E94F000E82E8E010F5F1F4FF12C90E06A
:1006F0006C01C01AD10A5C0125E0A21AB1088091F0
:100700000A2880FF04C0FE1460F4F80108C0C60186
:10071000800F911F05972CF0F801EA0DFB1D6081F9
:1007200001C060E2892D8F0D0E940B03F3940F5FCF
:100730001F4FF5E0FF12E3CF2696CDBFDEBFDF915E
:10074000CF911F910F91FF90EF90DF90CF90BF90CE
:10075000AF909F90089588ED84BFE0E6F0E090812F
:100760009C7F908384BF90819F77908384BF918189
:100770009E7F918384BF9181917E918384BF92817A
:100780009E7F928390899260908B84BF82898068DB
:10079000828B0895E0E0F4E081E880838483128610
:1007A000108A88E0818B128A138A148A158A868BB4
:1007B000178AE0E2F4E08FE3808314821286108AC5
:1007C000118A128A138A148A158A168A178AE0E413
:1007D000F4E080E3808314821286108A118A128AE0
:1007E000138A148A158A168A178AE0E6F4E080E8EC
:1007F000808384831286108A118A128A138A148A4B
:10080000158A168A178AE0E8F4E081E08083148272
:100810001286108A118A128A138A148A158A168AF5
:10082000178AE0EAF4E08FE0808314821286108A4F
:10083000118A128A138A148A158A168A178A0895C9
:10084000E0E4F1E0808142815581378190892289FD
:100850003C7F877881689678916221601682128643
:1008600013861486158655833783908B8083428345
:10087000228B08950E94AB030E94CA030C942004AB
:100880001F920F920FB60F9211242F933F934F9305
:100890005F936F937F938F939F93AF93BF93EF93E8
:1008A000FF938091542980FD06C080915429816076
:1008B0008093542903C081E00E94E40480912F2892
:1008C00090913028892B69F48091542981FD06C0CC
:1008D0008091542982608093542903C082E00E9451
:1008E000E40480912F2890913028873E23E09207DE
:1008F00011F0019602C080E090E080932F28909341
:10090000302881E080935301FF91EF91BF91AF9127
:100910009F918F917F916F915F914F913F912F9117
:100920000F900FBE0F901F9018951F920F920FB649
:100930000F9211242F933F934F935F936F937F9365
:100940008F939F93AF93BF93EF93FF9384E199E2CB
:100950000E94630BFF91EF91BF91AF919F918F9197
:100960007F916F915F914F913F912F910F900FBEAB
:100970000F901F9018951F920F920FB60F9211248F
:100980002F933F934F935F936F937F938F939F9397
:10099000AF93BF93EF93FF9381E398E20E94270AFE
:1009A00081E080930B0AFF91EF91BF91AF919F91EE
:1009B0008F917F916F915F914F913F912F910F9008
:1009C0000FBE0F901F90189590915329911180930D
:1009D000532980E00895CF93DF93CDB7DEB7CE568D
:1009E000D109CDBFDEBF0E943A0480910404806823
:1009F000809304042FE784E89EE1215080409040DA
:100A0000E1F700C00000809104048F778093040414
:100A10002FE784E89EE1215080409040E1F700C03C
:100A200000000E94B50168EC7FE680E00E9431037F
:100A30006DEC7FE680E10E943103CE0101960E94B9
:100A4000F20B8FE3FE013196A4E1B9E201900D9221
:100A50008A95E1F7CE0101960E94180B8FE998E282
:100A60000E944F06882319F083E00E94E404CE011F
:100A700001960E9461088EE6FE013196A1E3B8E27C
:100A800001900D928A95E1F7CE0101960E946E06C3
:100A900061E081E398E20E949208789480E090E01F
:100AA0000E946C1700E010E040E1B42E5AE0C52E21
:100AB000D12C8091542980FF1AC0809154298E7FB7
:100AC00080935429209144048091080486FBEE24ED
:100AD000E0F8F12CC70135E0880F991F3A95E1F74E
:100AE000922F9F7D892B809344040E94D601809190
:100AF000542981FF2FC0809154298D7F80935429E0
:100B0000B09247040F5F1F4FC801B6010E94C5167F
:100B100060E3680F84E199E20E94190BBE016F5FE8
:100B20007F4F84E199E20E942F0B811105C06981FA
:100B30007A8184E00E945A03BE016F5F7F4F84E197
:100B400099E20E94370B811105C069817A8184E1A5
:100B50000E945A03BE016F5F7F4F84E199E20E94B9
:100B60003F0B811105C069818FE998E20E94D91479
:100B700084E199E20E94920B9CCF84E199E20E9469
:100B8000F20B8FE998E20E94AE1681E398E20C9492
:100B9000610881E398E20E946E068FE998E20E9464
:100BA000F40B84E199E20C94180B1092552960E53E
:100BB00084E199E20E94190B60E084E199E20C94CF
:100BC000190B9A0110925529AB01682F81E398E225
:100BD0000E946F06882319F083E00C94E4040895C2
:100BE000CF92DF92EF92FF920F931F93CF93DF93F9
:100BF00000D000D0CDB7DEB71092552960E28091C9
:100C00000428909105280E94BF0AF82E80E28F15D3
:100C100020F483E00E94E40436C0FE0131966F01A7
:100C2000BF018F2D0E94CC0AE82E66E484E199E290
:100C30000E94190B8601802F8C198E1540F4F80143
:100C400061918F0184E199E20E94190BF4CF60E079
:100C500084E199E20E94190B00E010E00F1570F496
:100C6000E0910428F0910528E00FF11F608184E1F4
:100C700099E20E94190B0F5F1F4FF0CF60E084E1F3
:100C800099E20E94190B2496CDBFDEBFDF91CF9170
:100C90001F910F91FF90EF90DF90CF9008950F93E9
:100CA0001F93CF938C0145ED55E062ED7FE60E94E6
:100CB000720CC82F40EF55E064ED7FE6C8010E943A
:100CC000720CC82B41EE55E066ED7FE6C8010E942C
:100CD000720C8C2BCF911F910F910895089568305D
:100CE00060F0FC01E559FF4F208121113BC027E056
:100CF0002083319624ED30E011C0FA01E057FE4F19
:100D0000E132F34070F0FC01E559FF4F20812111E1
:100D100029C027E0208331962AED30E020833183FB
:100D200021C078E0679FF0011124DC01AE0FBF1FE6
:100D300011966D917C9112974617570739F01196CD
:100D40004D935C93129741E015964C93E80FF91F71
:100D5000838194818217930739F02383348381E060
:100D6000868302C081E0089580E008959C01942F5D
:100D7000462F50E04830510508F042C0FA01E05BD0
:100D8000FF4F0C94FB16409184044E7F492B07C003
:100D900040918404842F8D7F492F440F482B40932A
:100DA00084042CC040918404842F8B7F24E005C0F0
:100DB00040918404842F877F28E0929FA001112412
:100DC000EDCF4091A4044E7F492B16C04091A4045E
:100DD000842F8D7F492F440F0EC04091A404842F8F
:100DE0008B7F24E005C04091A404842F877F28E0F6
:100DF000929FA0011124482B4093A40480E0089501
:100E0000F901E559FF4F8081811107C084E080839B
:100E1000319684E991E08083918381E00895E0E652
:100E2000F4E0808180688083E0E8F4E08081816084
:100E300080838081826080838081846080838081E0
:100E400088608083E0EAF4E0808181608083808133
:100E500082608083808184608083808188608083D9
:100E600080E008951F93CF93DF93E0E0FAE0808164
:100E700031811281D381C5812685A0EEB5E014961B
:100E80005C91149741859285817F8860387F91605D
:100E9000216031831283D383C583268714965C93A4
:100EA00066A377A310A611A612A613A614A615A6CC
:100EB00080834187928780E0DF91CF911F910895D1
:100EC000CF93DF93EC019B01A8EEB3E00E940117E2
:100ED00020E233E040E050E00E94D9162E3F8FEF31
:100EE00038074105510578F0FE01E559FF4F808133
:100EF00081110BC086E08083C459DF4F8CE693E0FC
:100F00008883998302C0C90102C08FEF9FEFDF91F0
:100F1000CF9108950F931F93CF93DF939B012C5490
:100F20003440253D394488F0FC01E559FF4F2081CC
:100F3000211109C027E02083EC01C459DF4F80E96B
:100F400093E08883998381E03BC0EC018091000AA3
:100F50008E7F8093000A0091200A1091210ACE0111
:100F60000E9460079C01215031092E3F4FEF34074A
:100F700068F0FE01E559FF4F80818111E4CF86E0E2
:100F80008083C459DF4F81EA93E0DBCF081719074C
:100F900068F0FE01E559FF4F80818111D4CF85E0D3
:100FA0008083C459DF4F88EA93E0CBCF2093260A91
:100FB0003093270A8091000A81608093000A80E0C4
:100FC000DF91CF911F910F910895611104C080911D
:100FD000000A8E7F09C087EA91E68093260A9093E3
:100FE000270A8091000A81608093000A80E00895BA
:100FF000FC011082DC01A759BF4F1D921C92119772
:10100000AC01405C5F4F21E0118212821382148296
:1010100025832683178210863896E417F507A1F7F3
:10102000FC01EF5BFF4F8CED95E010821182128284
:10103000838394833596EA17FB07B9F780E0089518
:101040001F93CF93DF93EC010E94F807182F88239A
:1010500069F0FE01E559FF4F8081811107C081E0F1
:10106000808389E191E0319680839183CE010E9453
:101070000F07182B69F0FE01E559FF4F80818111A0
:1010800007C082E0808380E291E031968083918383
:1010900060E070E0CE010E943207812B71F0FE010A
:1010A000E559FF4F9081911108C093E09083C45996
:1010B000DF4F27E231E028833983DF91CF911F9101
:1010C00008950C9420080F93241720F580E08017D2
:1010D000F1F0909164049F779093640490E09617E8
:1010E00031F036E03A95F1F700C09F5FF8CF90916C
:1010F000640490689093640490E0941731F036E0B3
:101100003A95F1F700C09F5FF8CF8F5FE0CF620F95
:10111000421BDACF809164048F778093640480E06F
:101120000F9108950F931F93CF93DF9361110CC01C
:10113000809164048068809364048091000A8E7FAB
:101140008093000A10E00CC0EC0102E021E044E6CC
:101150006AE00E946308182F61E0CE010E94E50753
:10116000812FDF91CF911F910F9108950F931F93BE
:10117000CF93DF938C01C0E0D0E040E06C2FC8013A
:101180000E94B606D82BCF5FC830B9F78D2FDF91FC
:10119000CF911F910F9108951F93CF93DF93EC018F
:1011A000E0E0FAE080818E7F8083CE010E94B60865
:1011B000182FCE010E94F807812BDF91CF911F914C
:1011C0000895CF92DF92EF92FF920F931F93CF93E8
:1011D000DF939C016A016830A0F0FC01E559FF4FE4
:1011E0008081811107C087E08083319685E195E099
:1011F000808391838FEF9FEFD6018D939C9381E045
:101200001DC1062F10E0F80183E0EE0FFF1F8A9545
:10121000E1F7A9014E0F5F1FEA018D81882329F1B3
:1012200089819A81BC0160577E4F6132734060F0C2
:10123000F901E559FF4F80818111DCCF88E080837F
:10124000319687E295E0D4CF65E0609FD001619F41
:10125000B00D1124A20FB31FAF5BBF4F84529A4F42
:101260008D939C93DA0115961C92D901AE0FBF1F86
:1012700016968C9116978823C9F113968D919C919F
:101280001497009769F485E0809FD001819FB00D8D
:101290001124A20FB31FAD5BBF4F1C9270E020C0A2
:1012A00062E370E00E94C5166F3F710569F060F05F
:1012B000F901E559FF4F808181119CCF86E0808341
:1012C000319685E495E094CF762F85E0809FD0011C
:1012D000819FB00D1124A20FB31FAD5BBF4F6C9364
:1012E000D901AE0FBF1F16961C920BC085E0809FE0
:1012F000D001819FB00D1124A20FB31FAD5BBF4F72
:101300007C9185E0809F7001819FF00C1124E20E9A
:10131000F31ED701AF5BBF4F0D90BC91A02DC4E46D
:10132000EC0EF11CE70148815981C8010196711149
:1013300011C0D3E0880F991FDA95E1F7820F931F50
:10134000A417B50789F0EC011882E20FF31F17828A
:10135000F7015CC0A417B50771F4C3E0880F991FAB
:10136000CA95E1F7820F931F41E0EC014883E20F39
:10137000F31F47834DC04A175B0720F47D01E41A31
:10138000F50A03C07A01EA1AFB0A672F70E0E20F40
:10139000F31FE616F70660F441E04783F3E0880F99
:1013A000991FFA95E1F7F901E80FF91F108224C09F
:1013B0001782E3E0880F991FEA95E1F7F901E80F3A
:1013C000F91F10824A175B0720F4DA01A60FB71F36
:1013D00013C0A417B50720F4DA01A61BB70B0CC085
:1013E000F901E559FF4F8081811104CF88E08083A6
:1013F000319688EA95E0FCCE85E0809FF001819FE0
:10140000F00D1124E20FF31FEC5BFF4FA083B183BB
:10141000CD018C5494408132934060F0F901E5593C
:10142000FF4F80818111E6CE88E08083319685EB85
:1014300095E0DECEF601A083B18380E0DF91CF910D
:101440001F910F91FF90EF90DF90CF900895CF9272
:10145000DF92FF920F931F93CF93DF9300D0CDB70E
:10146000DEB78C01FC01F080F11005C041E060E0C6
:101470000E94B6060FC06FEF6F0D673070F440E04A
:101480000E94B606D82E41E06F2DC8010E94B60614
:10149000D11068C0882351F065C0F8E0FF1262C027
:1014A00040E00E94B606882341F15CC0F801E7598C
:1014B000FF4FC080D180AE014F5F5F4F6F2DC801DD
:1014C0000E94E10829813A81A9014C5454404132DB
:1014D000534070F0F801E559FF4F8081811134C00D
:1014E00088E0808331968DEE91E0808391832CC0DB
:1014F000C20ED31E882391F035C0F801E759FF4F83
:10150000208131812032FEE43F0700F580E29EE435
:10151000821B930B89839A83C12CD12C69817A8198
:10152000C8010E948A0781111DC0F801E759FF4FC9
:10153000C082D182E8E0FE1611F0F39401C0F12CD4
:10154000F801F08280E011C081E00FC0F801E55998
:10155000FF4F8081811106C0F08289EF91E03196C2
:1015600080839183C8010E94CC080F900F90DF9177
:10157000CF911F910F91FF90DF90CF900895FC01C4
:1015800090E0961731F08191882311F09F5FF9CF99
:10159000692F81E0860F0895EF92FF921F93CF93FA
:1015A000DF9300D01F92CDB7DEB7E82FAB0180915B
:1015B000936F9091946FA091956F89839A83AB8379
:1015C000CE0101967C0181E020E030E010E3D701FC
:1015D000FD917D01EF1788F08E2F6F2F0E94B916B5
:1015E000BA01620F711D90E3980FDB019C93F89F85
:1015F000E01911242F5F80E00AC0882311F03230F7
:1016000031F4BA01620F711DDB011C932F5F3F5F44
:101610003330E9F6FA01E20FF11D1082822F239692
:10162000CDBFDEBFDF91CF911F91FF90EF90089566
:101630000895FC018485A585B685A80FB11D6C931E
:101640002485422F50E0828590E001974817590782
:101650001CF42F5F248701C0148680E00895FC01EC
:1016600083819481FB018083918380E00895FC0154
:1016700081819281FB018083918380E00895FC0148
:1016800086819781981305C090E081E0FB019083EB
:101690000895218132812F5F3F4F21833283482F6C
:1016A00050E0A085B185A40FB51F9C91258130E045
:1016B00021503109421753071CF48F5F868301C004
:1016C000168280E0E3CFFC0160910008378126811B
:1016D000832F90E0422F50E0321710F09C0105C09C
:1016E0002581DC01A20FB11D9D01241B350B2F317B
:1016F00031051CF01782168213C020853185D9016F
:10170000A80FB91F6C932781422F50E0858190E08C
:101710000197481759071CF42F5F278301C01782D0
:1017200080E00895FC0134852385832F90E0422FCB
:1017300050E0321718F43285830F911D841B950BEE
:1017400018161906D4F48091040885FF16C0A585E3
:10175000B685A40FB51F3C91828590E0019748178C
:1017600059071CF42F5F238701C0138630930208AA
:101770008381948101968383948380E00895FB01A3
:10178000958186812781338524859C7F897F806C24
:101790009068408751871586168633873BE03783EC
:1017A00024879583868380E00895FC01118212824C
:1017B000138214820F968087918780E28583178237
:1017C0001682CF018F968587968780E1828714865F
:1017D000138649E351E060E078E0CF010E94BF0B3F
:1017E00080E008950C94D50B0895FC0111929C01A2
:1017F000275D3F4F1192119212AE13AEE217F3071D
:10180000C9F7FC01EE58FF4F1082319610823196D5
:10181000108208956115710529F4FC01EC58FF4F01
:1018200028E05BC0FB0120812F7D21542A3120F468
:1018300050E020E031E00BC0FC01EC58FF4F2EE0FF
:101840004CC0303208F045C0453241F03F5FFB01EB
:10185000E30FF11D40814111F4CF39C05F5F553076
:1018600028F0FC01EC58FF4F2AE037C0313049F036
:1018700032974081453229F4FC01EC58FF4F2BE0B0
:101880002CC03F5FFB01E30FF11D4081453579F02E
:1018900028F4443471F0433551F00DC0433729F03A
:1018A000453719F0443639F404C02F5F09C02E5F64
:1018B00007C02C5F05C0FC01EC58FF4F29E00DC0AC
:1018C000293020F2FC01EC58FF4F2CE006C03032EA
:1018D00038F0FC01EC58FF4F2DE0208381E00895A3
:1018E00080E00895EF92FF920F931F93CF93DF93C1
:1018F0006115710519F04115510529F4EC01CC5819
:10190000DF4F85E008C0FC012081233130F0EC017D
:10191000CC58DF4F86E0888315C07A018B01EC013B
:101920000E940A0C81110EC08881FE01E80FF11D92
:10193000E80FF11D01831283E5AEF6AE8F5F888359
:1019400080E001C081E0DF91CF911F910F91FF9066
:10195000EF900895CF93DF93FC0170E0DC01A60FB8
:10196000B71F99968C91660F771FDF01A60FB71FDF
:101970008F5F11960D90BC91A02DA80FB11D8C9179
:10198000DF01AB59BF4F9C9196959770EF01C90F3E
:10199000D11DCA59DF4F88832C912E7F2C9322951D
:1019A0002F708535D1F028F48434F9F08335A9F00F
:1019B00026C0833751F0853719F0843601F515C0FC
:1019C000E20FF11DE659FF4F05C030E026593F4FA9
:1019D000E20FF31F108280E017C030E026593F4F1E
:1019E000E20FF31F10821182F6CF30E026593F4FED
:1019F000E20FF31F1082118212821382ECCFEC5897
:101A0000FF4F84E0808381E0DF91CF9108950F93B1
:101A10001F93CF93DF93EC01E62FDC01AB59BF4F4F
:101A20006B3211F06D3249F491E0ED3209F090E043
:101A30008C9190FB80F98C93D6C0FC912F2F22952E
:101A40002F708F2F86958770DE01A80FB11DAA59C0
:101A5000BF4F8C91853509F443C038F4843409F4C0
:101A600085C0833509F45CC0CDC08337F9F0853774
:101A700021F0843609F0C6C08AC0C20FD11DDE0134
:101A8000A659BF4F9C919A3108F0C1C0990F292FD8
:101A9000220F220F920FF0FD03C0E053E90F03C0A5
:101AA000961BE92FE05DC659DF4F18C030E026597C
:101AB0003F4FC20FD31F88819CE0980F993108F0E7
:101AC000A6C0880F982F990F990F890FF0FD03C0BA
:101AD000E053E80F03C0861BE82FE05DE88383C076
:101AE00030E026593F4FC20FD31F288139812A3950
:101AF00049E1340708F08BC04AE0429FC001439F90
:101B0000900D1124262F30E0F0FD05C0C097F9019B
:101B1000E80FF91F28C0FC01E21BF30BF09623C06D
:101B200030E026593F4FC20FD31F888199819C0115
:101B30002453334F2939394108F069C04AE0489F9E
:101B40009001499F300D11248E2F90E0F0FD05C0CB
:101B5000FC01F097E20FF31F06C0FC01F097C901EA
:101B60008E1B9F0BFC01E883F9833DC030E02659B2
:101B70003F4FC20FD31F288139814A815B812A39A7
:101B800099E93907490799E15907A8F040C030E0C1
:101B900026593F4FC20FD31F288139814A815B816B
:101BA000DA01C90184539343A343B34F8939994957
:101BB000A949B94160F5AAE0B0E00E9410172E2FA4
:101BC00030E0F0FF12C0F901F0978F01FF0F220BF8
:101BD000330BDC01CB01801B910BA20BB30B888371
:101BE0009983AA83BB8380E013C0F901F0978F012A
:101BF000FF0F220B330BDC01CB01800F911FA21FC3
:101C0000B31FEDCFCC58DF4F81E0888301C081E066
:101C1000DF91CF911F910F910895AC01FC01EB5919
:101C2000FF4F9081292F22952F7096959770DA019A
:101C3000A90FB11DAA59BF4F3C91353711F0333769
:101C400011F42F5F0AC0353511F0333511F42E5FD2
:101C500004C03F7D3434C1F42C5F293038F0108249
:101C6000FA01EC58FF4F81E0808308952295207F90
:101C70003081317081E0890F8770880F932F922B0C
:101C8000982B908380E0089581E00895EF92FF9271
:101C90000F931F93CF93DF93FB01DC01AB59BF4F31
:101CA0002C912695277011F409957BC6DC01AA5961
:101CB000BF4F3C91353719F0333709F0E4C2DC01EE
:101CC000213029F4A659BF4F8C9109956AC6A959AC
:101CD000BF4F3C91353719F0333709F05FC1DC0154
:101CE000223049F4A559BF4FEC01C659DF4F6C9122
:101CF0008881099556C6A859BF4F3C91353719F0D0
:101D0000333709F076C0233071F4EC01C459DF4F4A
:101D1000DC01A559BF4F86599F4F48816C91DC016A
:101D20008C9109953EC6DC01A759BF4F3C913537D0
:101D300011F03337B9F4243009F033C69C0123592C
:101D40003F4FEC01C459DF4FBC0165597F4F8659A5
:101D50009F4FD9012C914881DB016C91DC018C9162
:101D600009951FC6353511F03335A9F4243009F033
:101D700018C6DC01A359BF4F2D913C911197EC017E
:101D8000C459DF4F129786599F4F48816C91DC01EF
:101D90008C91099506C63F7D343431F5243009F025
:101DA00000C6DC01A359BF4F0D911D912D913C91AF
:101DB0001397EC01C459DF4F129786599F4F488102
:101DC0006C91DC018C910995ECC5A759BF4F3C91F2
:101DD000353721F1333711F13535A9F1333599F123
:101DE0003F7D343409F444C0FC01EC58FF4F23E03C
:101DF000BCC0353519F0333509F051C0DC01233052
:101E000021F7A459BF4F4D915C9111971197EC01A7
:101E1000C659DF4F6C9188810995C3C5243009F0FC
:101E2000C0C5EC01C259DF4FDC01A459BF4F4D9131
:101E30005C911197119786599F4F28816C91DC0115
:101E40008C910995AEC5243009F0ABC5DC01A259CF
:101E5000BF4F2D913C91119712974D915C91119725
:101E60001197EC01C659DF4F6C918881099599C58E
:101E7000243009F096C5DC01A259BF4F0D911D9188
:101E80002D913C91139712974D915C911197119759
:101E9000EC01C659DF4F6C918881099582C53F7D61
:101EA000343409F076C0DC01233079F4A459BF4FF3
:101EB0002D913D914D915C9113971197EC01C6596D
:101EC000DF4F6C91888109956CC5A759BF4F3C9134
:101ED000353711F03337B9F4243009F062C5EC011D
:101EE000C059DF4FDC01A459BF4F2D913D914D9159
:101EF0005C911397119786599F4F08816C91DC0173
:101F00008C9109954EC5353511F0333531F52430B6
:101F100009F047C5DC01A059BF4F0D911C911197E5
:101F200014972D913D914D915C9113971197EC0170
:101F3000C659DF4F6C918881099533C5A759BF4FAA
:101F40003C91353709F4ACC0333709F4A9C03535B5
:101F500009F4B9C0333509F4B6C03F7D343409F013
:101F600043CFFC01EC58FF4F22E0208381E01AC5EB
:101F7000A859BF4F3C91353711F1333701F1353551
:101F800009F47DC0333509F47AC03F7D343409F457
:101F9000AFC0FC01EC58FF4F24E0E7CF353519F016
:101FA000333509F0D4C0DC01223011F7A559BF4FF9
:101FB0006D917C91119711978C910995F2C4DC0178
:101FC000233061F4A359BF4FEC01C559DF4F68813D
:101FD000798121974C9188810995E3C4A759BF4F16
:101FE0003C91353711F03337C1F4243009F0D9C4AE
:101FF000EC01C259DF4FAC0143595F4F9C01255999
:102000003F4FD9016D917C9186599F4F2881DA010C
:102010004C91DC018C910995C4C4353511F03335F0
:10202000A1F4243009F0BDC4DC01A259BF4F2D91A9
:102030003C9111971197EC01C559DF4F6881798167
:1020400021974C9188810995ACC43F7D343409F0C7
:10205000CBCE243009F0A5C4DC01A259BF4F0D91AD
:102060001D912D913C9113971197EC01C559DF4FAC
:102070006881798121974C918881099592C4DC010E
:10208000233009F05BCFA359BF4F4D915C9111975D
:1020900012976D917C91119711978C91099581C43C
:1020A000243009F07EC4DC01A159BF4FEC01C359B3
:1020B000DF4F4881598122976881798121972C913E
:1020C000888109956EC4243009F06BC4DC01A159E4
:1020D000BF4F2D913C91119712974D915C911197A3
:1020E00012976D917C91119711978C91099559C414
:1020F000DC01233079F4A359BF4F2D913D914D91CF
:102100005C91139712976D917C91119711978C9117
:10211000099547C4A759BF4F3C91353719F033375C
:1021200009F006C4243009F03CC4DC01AF58BF4FAD
:10213000EC01C359DF4F288139814A815B812297A5
:102140006881798121970C91888109952AC43F7D06
:10215000343409F01ECFDC01223059F4A559BF4FA9
:102160004D915D916D917C91139711978C9109958B
:1021700018C4A859BF4F3C91353719F0333709F0CF
:102180004EC0DC01233071F4A159BF4FEC01C55999
:10219000DF4F488159816A817B8121972C91888109
:1021A0000995FFC3A759BF4F3C91353711F033371D
:1021B000D9F4243009F0F5C3EC01C059DF4F7C019C
:1021C000BFE6EB0EF11C9C0125593F4FD9014D9103
:1021D0005D916D917C9186599F4F0881D7012C911B
:1021E000DC018C910995DDC3353519F0333509F0E3
:1021F000B4CE243009F0D5C3DC01A059BF4F0D91F6
:102200001C9111971197EC01C559DF4F48815981F5
:102210006A817B8121972C9188810995C2C33535CC
:1022200019F0333509F0A3C3DC01233079F4A15947
:10223000BF4F2D913C91119714974D915D916D91E8
:102240007C91139711978C910995ABC3A759BF4FF8
:102250003C91353719F0333709F06AC3243009F05F
:10226000A0C3DC01AF58BF4FEC01C159DF4F28813B
:1022700039812497488159816A817B8121970C910A
:10228000888109958EC3353519F0333509F043C27D
:10229000DC01213031F4A659BF4F8D919C910995F5
:1022A00080C3A959BF4F3C91353719F0333709F036
:1022B00001C1DC01223051F4A459BF4FEC01C659D1
:1022C000DF4F6C918881998109956BC3A859BF4FE5
:1022D0003C91353719F0333709F067C0233079F472
:1022E000EC01C359DF4FDC01A459BF4F86599F4F02
:1022F00048816C91DC018D919C91099552C3DC0160
:10230000A759BF4F3C91353711F03337C1F4243012
:1023100009F047C39C0122593F4FEC01C359DF4FDD
:10232000BC0164597F4F86599F4FD9012C91488138
:10233000DB016C91DC018D919C91099532C335359F
:1023400011F03335B1F4243009F02BC3DC01A2596C
:10235000BF4F2D913C911197EC01C359DF4F12975C
:1023600086599F4F48816C91DC018D919C91099514
:1023700018C33F7D343409F037CD243009F011C340
:10238000DC01A259BF4F0D911D912D913C911397E6
:10239000EC01C359DF4F129786599F4F48816C91CA
:1023A000DC018D919C910995FCC2353519F03335CE
:1023B00009F049C0DC01233071F4A359BF4F4D919E
:1023C0005C9111971197EC01C659DF4F6C91888190
:1023D00099810995E6C2A759BF4F3C91353711F055
:1023E0003337B1F4243009F0DCC2EC01C159DF4FBE
:1023F000DC01A359BF4F4D915C91119711978659FC
:102400009F4F28816C91DC018D919C910995C9C2E7
:10241000353519F0333509F0A0CD243009F0C1C2AB
:10242000DC01A159BF4F2D913C91119712974D910D
:102430005C9111971197EC01C659DF4F6C9188811F
:1024400099810995AEC23F7D343409F0A2CDDC01FB
:10245000233081F4A359BF4F2D913D914D915C9153
:1024600013971197EC01C659DF4F6C9188819981C0
:10247000099597C2A759BF4F3C91353719F03337AB
:1024800009F056C2243009F08CC2EC01CF58DF4F5E
:10249000DC01A359BF4F2D913D914D915C91139754
:1024A000119786599F4F08816C91DC018D919C9109
:1024B000099577C2353519F0333509F0C3C0DC0111
:1024C000223051F4A459BF4F6D917C91119712970E
:1024D0008D919C91099565C2A859BF4F3C913537A4
:1024E00019F0333709F04AC0DC01233069F4A259EE
:1024F000BF4FEC01C459DF4F6881798122974C911D
:102500008881998109954DC2A759BF4F3C913537B4
:1025100011F03337C9F4243009F043C2EC01C1593A
:10252000DF4FAC0142595F4F9C0124593F4FD90105
:102530006D917C9186599F4F2881DA014C91DC0185
:102540008D919C9109952DC2353519F0333509F0DF
:1025500004CD243009F025C2DC01A159BF4F2D91D3
:102560003C9111971197EC01C459DF4F6881798133
:1025700022974C9188819981099513C2353519F0BC
:10258000333509F047C0DC01233071F4A259BF4F45
:102590004D915C91119712976D917C9111971297C3
:1025A0008D919C910995FDC1A759BF4F3C9135373D
:1025B00011F03337A1F4243009F0F3C1DC01A05944
:1025C000BF4FEC01C259DF4F488159812297688182
:1025D000798122972C91888199810995E2C13535BD
:1025E00019F0333509F0B9CC243009F0BACCDC014C
:1025F000A059BF4F2D913C91119712974D915C912D
:10260000119712976D917C91119712978D919C91D2
:102610000995C7C13F7D343409F0BBCC233009F0A4
:10262000A0CCDC01A259BF4F2D913D914D915C9101
:10263000139712976D917C91119712978D919C91A0
:102640000995AFC13F7D343409F0A3CCDC012230C1
:1026500061F4A459BF4F4D915D916D917C91139799
:1026600012978D919C9109959CC1A859BF4F3C919F
:10267000353711F03337B1F5DC01233079F4A05947
:10268000BF4FEC01C459DF4F488159816A817B817A
:1026900022972C9188819981099583C1A759BF4FB1
:1026A0003C91353719F0333709F042C1243009F035
:1026B00078C1EC01CF58DF4F7C01B0E7EB0EF11C85
:1026C0009C0124593F4FD9014D915D916D917C91B1
:1026D00086599F4F0881D7012C91DC018D919C91E7
:1026E00009955FC1353519F0333509F040C1233004
:1026F00009F037CCDC01A059BF4F2D913C911197C7
:1027000014974D915D916D917C91139712978D91D6
:102710009C91099546C13F7D343409F03ACCDC01E7
:10272000213041F4A659BF4F6D917D918D919C91BF
:10273000099537C1A959BF4F3C91353719F0333747
:1027400009F0A6C0DC01223061F4A259BF4FEC01B0
:10275000C659DF4F688179818A819B814C910995A7
:1027600020C1A859BF4F3C91353719F0333709F0D4
:1027700055C0233091F4EC01C159DF4FAC014259EF
:102780005F4F86599F4FDC016D917D918D919C919A
:102790002881DA014C91099504C1DC01A759BF4F8A
:1027A0003C91353711F03337D1F4243009F0F9C0BA
:1027B0009C0120593F4FEC01C159DF4FAC014259F8
:1027C0005F4F86599F4FDC016D917D918D919C915A
:1027D000D9010C912881DA014C910995E2C0353577
:1027E00019F0333509F0B9CB243009F0DAC0DC0137
:1027F000A059BF4F0D911C91EC01C159DF4FAC01A5
:1028000042595F4F86599F4FDC016D917D918D91AB
:102810009C912881DA014C910995C3C0353519F096
:10282000333509F0A4C0DC01233081F4A159BF4F36
:102830002D913C9111971197EC01C659DF4F68819A
:1028400079818A819B814C910995ABC0A759BF4F73
:102850003C91353719F0333709F06AC0243009F05C
:10286000A0C0EC01CF58DF4FDC01A159BF4F2D9123
:102870003C91AC0142595F4F86599F4FDC016D91ED
:102880007D918D919C910881DA014C91099589C0C7
:10289000353519F0333509F06FC0DC01223061F4B1
:1028A000A259BF4F4D915C91119714976D917D91F5
:1028B0008D919C91099575C0A859BF4F3C913537B2
:1028C00011F03337E1F5DC01233079F4A059BF4F23
:1028D000EC01C259DF4F4881598124976881798181
:1028E0008A819B812C9109955CC0A759BF4F3C916F
:1028F000353711F03337E1F4243009F052C0EC01E0
:10290000CF58DF4F7C01B0E7EB0EF11C9C01225940
:102910003F4FD9014D915C9186599F4FDC016D91DC
:102920007D918D919C910881D7012C91099539C099
:10293000353509F416CB333509F00FCB12CB3535CD
:1029400011F03335A1F4233009F00BCBDC01A05991
:10295000BF4F2D913C91119712974D915C9111971A
:1029600014976D917D918D919C9109951AC03F7D31
:10297000343409F00ECBF5CA3F7D343409F009CB6D
:10298000223009F0EECADC01A259BF4F2D913D91D2
:102990004D915C91139714976D917D918D919C91C0
:1029A000099580E0DF91CF911F910F91FF90EF90FB
:1029B00008958F929F92AF92BF92CF92DF92EF9243
:1029C000FF920F931F93CF93DF93EC01F62E8C01B0
:1029D0000C581F4FD8018C9181111C92FE01ED58AB
:1029E000FF4F6F01F11061C080819E012E583F4F53
:1029F0007901823039F4CE010E940D0E882311F046
:102A0000D7011C92D701EC911E1664F5488180E035
:102A1000EFEF51E0841708F06EC1282F30E07E01FF
:102A2000E20EF31ED70199969C919923C9F0D60125
:102A30006C91623029F49E5F5C93D70199969C93C8
:102A4000220F331FDE01A20FB31F11960D90BC9110
:102A5000A02DA90FB11D9C91911102C0E82F842FC8
:102A60008F5FD8CFE11102C0EFEF45C1E0958E2F07
:102A700090E0DE01A80FB91F99962C91D6013C91E8
:102A8000323009F42E5F880F991FDE01A80FB91F9D
:102A900011968D919C911297009731F3DC01A20F52
:102AA000B11D8C918111E0CF26C18081811126C09A
:102AB0008F2D8F7D81548A31B8F628813C2FBE013D
:102AC0006F5F7F4FEC2FFD2FCE58DF4F91E08E2FA1
:102AD000831B821708F025C1DB014D915D91BD017B
:102AE000DA018C91F81207C088818F5F888391A7E3
:102AF000D6019C9301C011A63196E9CF813009F02F
:102B0000C2C0FE01EE58FF4F5F0180ED8F0D8A308D
:102B100030F0FBE2FF1619F02DE2F21262C0D5018F
:102B20006C911616F4F5E12C912C42E0842E8881EC
:102B3000E81608F0FDC08E2D90E0DE01A80FB91F49
:102B400099962C919997222351F1880F991FFE0194
:102B5000E80FF91F0180F281E02DE20FF11D808165
:102B6000853281F4F60180826E2DCE010E94AA0C7E
:102B70006F2DCE010E94070DE094D501EC92F4E197
:102B8000EF2E0DC099961C92F501808182301CF0C9
:102B90008150808304C0E4E1EE2E99249394E39461
:102BA000C6CF662309F4BDC06095862F90E0FC0176
:102BB000EE0FFF1FEC0FFD1FDE01A80FB91F999646
:102BC0008C910180F281E02DE80FF11D808185322A
:102BD00009F0A7C082E0D6018C93CE010E94AA0C16
:102BE00059C0F50180811816ACF5588190E0912C00
:102BF000951708F09DC0292F30E0DE01A20FB31F0A
:102C000099964C919997442319F1220F331FFE0195
:102C1000E20FF31F0180F281E02DE40FF11D20810E
:102C2000F2120AC04F5F99964C93813089F49095C7
:102C3000D5019C9394E10CC099961C92F5012081DA
:102C400022301CF02150208303C094E199249394F6
:102C50009F5FCECF809590E0DE01A80FB91F9996B7
:102C60002C919997880F991FFE01E80FF91F018099
:102C7000F281E02DE20FF11D8081F812F5CE2F5F79
:102C800099962C934EC0823009F04BC080ED8F0D89
:102C90008A3028F46F2DCE010E94070D42C0CE016C
:102CA0000E940D0EFE01EE58FF4F8081809590E04E
:102CB000DE01A80FB91F99962C91999732E0320F37
:102CC00099963C939997880F991FFE01E80FF91F79
:102CD0000180F281E02DE30FF11D8081F81205C023
:102CE0002D5F99962C93912C02C09924939481E0A6
:102CF000D6018C931DC0D6011C92DE01AE58BF4F89
:102D00001C92EF3F59F0E7FD0CC0EE0FFF0BEC0FEC
:102D1000FD1F65AD76ADCE010E94460ECB59DF4F4B
:102D2000188281E0F801908191110BC080E009C008
:102D30009920B9F3F6011082FE01EE58FF4F108280
:102D4000EDCFDF91CF911F910F91FF90EF90DF902A
:102D5000CF90BF90AF909F908F900895CF93DF93C7
:102D6000EC010E94F50B60E0CE01DF91CF910C9455
:102D7000D914991B79E004C0991F961708F0961B87
:102D8000881F7A95C9F780950895AA1BBB1B51E14E
:102D900007C0AA1FBB1FA617B70710F0A61BB70BCB
:102DA000881F991F5A95A9F780959095BC01CD0170
:102DB0000895A1E21A2EAA1BBB1BFD010DC0AA1F7C
:102DC000BB1FEE1FFF1FA217B307E407F50720F094
:102DD000A21BB30BE40BF50B661F771F881F991F0F
:102DE0001A9469F760957095809590959B01AC0158
:102DF000BD01CF010895EE0FFF1F0590F491E02D66
:102E00000994A29FB001B39FC001A39F700D811DC3
:102E10001124911DB29F700D811D1124911D0895E3
:102E20000E940117A59F900DB49F900DA49F800D47
:102E3000911D112408958F929F92AF92BF92CF92CD
:102E4000DF92EF92FF92CF93DF93EC01688179815B
:102E50008A819B81611571058105910521F464E2E8
:102E600079ED8BE597E02DE133EF41E050E00E94F2
:102E7000771749015A019B01AC01A7EAB1E40E940E
:102E800010176B017C01ACEEB4EFA50194010E9418
:102E90009917DC01CB018C0D9D1DAE1DBF1DB7FF29
:102EA00003C00197A109B04888839983AA83BB8393
:102EB0009F77DF91CF91FF90EF90DF90CF90BF9001
:102EC000AF909F908F9008950E941B17089580E007
:102ED00098E20E941B170895A0E0B0E080930028BC
:102EE00090930128A0930228B09303280895052EFB
:102EF00097FB1EF400940E948E1757FD07D00E9486
:102F0000D91607FC03D04EF40C948E1750954095BB
:102F1000309521953F4F4F4F5F4F08959095809585
:102F2000709561957F4F8F4F9F4F0895B7FF0C9419
:102F300010170E941017821B930B089510E0C9E52B
:102F4000D0E004C0FE010E94FB162196CA35D107CD
:062F5000C9F7F894FFCF61
:102F5600640A011027E80364000A00010000CA9A07
:102F66003B00E1F5058096980040420F00A08601DF
:102F76000010270000E8030000640000000A0000BB
:102F86000001000000E80364000A000100640A0171
:102F96001027E80364000A00010000CA9A3B00E11A
:102FA600F5058096980040420F00A0860100102784
:102FB6000000E8030000640000000A0000000100B1
:102FC600000054583A200052583A2000500046005B
:102FD60050504D25753A25533A2553004F72616E70
:102FE6006765486F742D323032322D30312D3037CF
:012FF60000DA
:062FF70001000000E26F82
:00000001FF
