S01C00004F72616E6765486174205465737420426C696E6B2E73726563BF
S11300000C9450000C9462000C9462000C946200F6
S11300100C94F6000C9462000C9462000C94620040
S11300200C9462000C9462000C9462000C946200C4
S11300300C9462000C9462000C9462000C946200B4
S11300400C9462000C9462000C9462000C946200A4
S11300500C9462000C9462000C9462000C94620094
S11300600C9462000C9462000C9462000C94620084
S11300700C9462000C9462000C9462000C94620074
S11300800C9462000C9462000C9462000C94620064
S11300900C9462000C9462000C9462000C94620054
S11300A011241FBECFEFCDBFDFE3DEBF28E2A0E007
S11300B0B8E201C01D92A430B207E1F70E943E01EC
S11300C00C946B010C94000088ED84BFE0E6F0E032
S11300D090819C7F908384BF90819F77908384BF1D
S11300E091819E7F918384BF9181917E918384BF0E
S11300F092819E7F928390899260908B84BF828943
S11301008068828B0895E0E0F4E010821482128605
S1130110108A118A128A138A148A158A88E0868BB7
S1130120178AE0E2F4E0108214821286108A118A9F
S1130130128A138A148A158A168A178AE0E4F4E06C
S113014080E3808314821286108A118A128A138AA9
S1130150148A158A168A178AE0E6F4E0108214825B
S11301601286108A118A128A138A148A158A168AA8
S1130170178AE0E8F4E0108214821286108A118A49
S1130180128A138A148A158A168A178AE0EAF4E016
S1130190108214821286108A118A128A138A148A8F
S11301A0158A168A178A0895E0E4F1E08081428175
S11301B055813781908922893C7F87788168967838
S11301C091622160168212861386148615865583E1
S11301D03783908B80834283228B08950E9464002E
S11301E00E9483000E94D400789408951F920F9275
S11301F00FB60F9211242F938F939F93809103280E
S113020080FD06C08091032881608093032807C085
S113021080910228882319F081E08093022880913C
S1130220002890910128009791F42091032821FD42
S113023006C0209103282260209303281DC020912A
S113024002282223C9F022E02093022815C0873E09
S113025023E0920789F480E090E080930028909353
S1130260012881E0809353019F918F912F910F90EA
S11302700FBE0F901F9018950196EFCF0E94EE00CD
S113028030E18091032880FF1AC0809103288E7F7B
S113029080930328209144048091080486FB8827D6
S11302A080F9C82F80E0D82FCE0145E0880F991F30
S11302B04A95E1F7922F9F7D892B80934404809186
S11302C0032881FFDECF809103288D7F809303284C
S10D02D030934704D6CFF894FFCF13
S9030000FC
